:020000040800F2
:1000000000500020F92B0008491200084B1200088C
:100010004D1200084F1200085112000800000000A5
:100020000000000000000000000000005312000863
:10003000551200080000000057120008591200086D
:10004000412C0008412C0008412C0008412C0008DC
:10005000412C0008412C0008412C0008412C0008CC
:10006000412C0008412C0008412C0008412C0008BC
:10007000412C0008412C0008412C0008412C0008AC
:10008000412C0008412C0008412C0008412C00089C
:10009000412C0008412C0008412C0008412C00088C
:1000A000412C0008412C0008412C0008412C00087C
:1000B000412C0008412C0008412C0008412C00086C
:1000C000412C0008412C0008412C0008412C00085C
:1000D000412C000861120008412C00087112000830
:1000E000412C0008412C0008412C000800000000B1
:1000F0000000000000000000000000000000000000
:0C01000000000000000000005FF808F1A3
:10011000844641EA000313F0030349D1403A23D354
:100120000B6803604B6843608B688360CB68C36077
:100130000B6903614B6943618B698361CB69C3615F
:100140000B6A03624B6A43628B6A8362CB6AC36247
:100150000B6B03634B6B43638B6B8363CB6BC3632F
:1001600040304031403ADBD230320BD30B68036071
:100170004B6843608B688360CB68C360103010317C
:10018000103AF3D20C3205D351F8043B40F8043B4B
:10019000043AF9D2043208D0D2071CBF11F8013B4F
:1001A00000F8013B01D30B8803806046704700BF15
:1001B000082A13D38B07B1D010F00303AED0C3F1DC
:1001C0000403D21ADB071CBF11F8013B00F8013B06
:1001D000A4D331F8023B20F8023B9FE7043AD9D37D
:1001E000013A11F8013B00F8013BF9D20B7803709A
:1001F0004B7843708B7883706046704781F0004184
:1002000002E000BF83F0004330B54FEA41044FEAFB
:10021000430594EA050F08BF90EA020F1FBF54EA96
:10022000000C55EA020C7FEA645C7FEA655C00F032
:10023000E2804FEA5454D4EB5555B8BF6D420CDD03
:100240002C4480EA020281EA030382EA000083EA86
:10025000010180EA020281EA0303362D88BF30BD26
:1002600011F0004F4FEA01314FF4801C4CEA11317C
:1002700002D0404261EB410113F0004F4FEA0333DB
:100280004CEA133302D0524263EB430394EA050F66
:1002900000F0A780A4F10104D5F1200E0DDB02FAD5
:1002A0000EFC22FA05F2801841F1000103FA0EF269
:1002B000801843FA05F359410EE0A5F120050EF12F
:1002C000200E012A03FA0EFC28BF4CF0020C43FA60
:1002D00005F3C01851EBE37101F0004507D54FF06D
:1002E000000EDCF1000C7EEB00006EEB0101B1F5BD
:1002F000801F1BD3B1F5001F0CD349085FEA300003
:100300004FEA3C0C04F101044FEA445212F5800F0D
:1003100080F09A80BCF1004F08BF5FEA500C50F1AA
:10032000000041EB045141EA050130BD5FEA4C0C8D
:10033000404141EB0101013C28BFB1F5801FE9D2EA
:1003400091F0000F04BF01460020B1FA81F308BF0D
:100350002033A3F10B03B3F120020CDA0C3208DDD9
:1003600002F1140CC2F10C0201FA0CF021FA02F1B4
:100370000CE002F11402D8BFC2F1200C01FA02F124
:1003800020FA0CFCDCBF41EA0C019040E41AA2BF49
:1003900001EB0451294330BD6FEA04041F3C1CDA11
:1003A0000C340EDC04F11404C4F1200220FA04F031
:1003B00001FA02F340EA030021FA04F345EA0301DB
:1003C00030BDC4F10C04C4F1200220FA02F001FA9D
:1003D00004F340EA0300294630BD21FA04F029461F
:1003E00030BD94F0000F83F4801306BF81F48011B8
:1003F0000134013D4EE77FEA645C18BF7FEA655C2B
:1004000029D094EA050F08BF90EA020F05D054EAFC
:10041000000C04BF1946104630BD91EA030F1EBF01
:100420000021002030BD5FEA545C05D14000494105
:1004300028BF41F0004130BD14F580043CBF01F5F8
:10044000801130BD01F0004545F0FE4141F47001DE
:100450004FF0000030BD7FEA645C1ABF19461046B9
:100460007FEA655C1CBF0B46024650EA013406BFBA
:1004700052EA033591EA030F41F4002130BD00BF79
:1004800090F0000F04BF0021704730B54FF4806436
:1004900004F132044FF000054FF0000150E700BFB7
:1004A00090F0000F04BF0021704730B54FF4806416
:1004B00004F1320410F0004548BF40424FF0000103
:1004C0003EE700BF42004FEAE2014FEA31014FEA46
:1004D00002701FBF12F07F4393F07F4F81F0605195
:1004E000704732F07F4208BF704793F07F4F04BFE0
:1004F00041F40021704730B54FF4607401F00045BD
:1005000021F000411CE700BF50EA010208BF70471C
:1005100030B54FF000050AE050EA010208BF70470D
:1005200030B511F0004502D5404261EB41014FF476
:10053000806404F132045FEA915C3FF4D8AE4FF07E
:1005400003025FEADC0C18BF03325FEADC0C18BF61
:10055000033202EBDC02C2F1200300FA03FC20FAB2
:1005600002F001FA03FE40EA0E0021FA02F11444FF
:10057000BDE600BF70B54FF0FF0C4CF4E06C1CEA18
:1005800011541DBF1CEA135594EA0C0F95EA0C0F89
:1005900000F0DEF82C4481EA030621EA4C5123EAFC
:1005A0004C5350EA013518BF52EA033541F480112B
:1005B00043F4801338D0A0FB02CE4FF00005E1FBDE
:1005C00002E506F00042E0FB03E54FF00006E1FB28
:1005D00003569CF0000F18BF4EF0010EA4F1FF046B
:1005E000B6F5007F64F5407404D25FEA4E0E6D41AB
:1005F00046EB060642EAC62141EA55514FEAC520BC
:1006000040EA5E504FEACE2EB4F1FD0C88BFBCF537
:10061000E06F1ED8BEF1004F08BF5FEA500E50F1E8
:10062000000041EB045170BD06F0004646EA0101AE
:1006300040EA020081EA0301B4EB5C04C2BFD4EBE0
:100640000C0541EA045170BD41F480114FF0000ED9
:10065000013C00F3AB8014F1360FDEBF002001F047
:10066000004170BDC4F10004203C35DA0C341BDCC1
:1006700004F11404C4F1200500FA05F320FA04F093
:1006800001FA05F240EA020001F0004221F00041C7
:1006900010EBD37021FA04F642EB06015EEA430E3A
:1006A00008BF20EAD37070BDC4F10C04C4F120056A
:1006B00000FA04F320FA05F001FA04F240EA02001D
:1006C00001F0004110EBD37041F100015EEA430EEE
:1006D00008BF20EAD37070BDC4F1200500FA05F20E
:1006E0004EEA020E20FA04F301FA05F243EA02038D
:1006F00021FA04F001F0004121FA04F220EA02009C
:1007000000EBD3705EEA430E08BF20EAD37070BDE1
:1007100094F0000F0FD101F00046400041EB0101C1
:1007200011F4801F08BF013CF7D041EA060195F0A3
:10073000000F18BF704703F00046520043EB03035D
:1007400013F4801F08BF013DF7D043EA060370474A
:1007500094EA0C0F0CEA135518BF95EA0C0F0CD055
:1007600050EA410618BF52EA4306D1D181EA03019B
:1007700001F000414FF0000070BD50EA410606BF95
:100780001046194652EA430619D094EA0C0F02D1DA
:1007900050EA013613D195EA0C0F05D152EA03361F
:1007A0001CBF104619460AD181EA030101F000413D
:1007B00041F0FE4141F470014FF0000070BD41F086
:1007C000FE4141F4780170BD70B54FF0FF0C4CF460
:1007D000E06C1CEA11541DBF1CEA135594EA0C0F7F
:1007E00095EA0C0F00F0A7F8A4EB050481EA030ECC
:1007F00052EA03354FEA013100F088804FEA0333B3
:100800004FF0805545EA131343EA12634FEA022280
:1008100045EA111545EA10654FEA00260EF0004141
:100820009D4208BF964244F1FD0404F5407402D293
:100830005B084FEA3202B61A65EB03055B084FEA24
:1008400032024FF480104FF4002CB6EB020E75EB21
:10085000030E22BFB61A754640EA0C005B084FEA49
:100860003202B6EB020E75EB030E22BFB61A7546C6
:1008700040EA5C005B084FEA3202B6EB020E75EB11
:10088000030E22BFB61A754640EA9C005B084FEA89
:100890003202B6EB020E75EB030E22BFB61A754696
:1008A00040EADC0055EA060E18D04FEA051545EA85
:1008B00016754FEA06164FEAC30343EA52734FEA2E
:1008C000C2025FEA1C1CC0D111F4801F0BD141EAA7
:1008D00000014FF000004FF0004CB6E711F4801F0C
:1008E00004BF01430020B4F1FD0C88BFBCF5E06FEC
:1008F0003FF6AFAEB5EB030C04BFB6EB020C5FEAFC
:10090000500C50F1000041EB045170BD0EF0004E50
:100910004EEA113114EB5C04C2BFD4EB0C0541EA82
:10092000045170BD41F480114FF0000E013C90E67F
:1009300045EA060E8DE60CEA135594EA0C0F08BF43
:1009400095EA0C0F3FF43BAF94EA0C0F0AD150EA42
:1009500001347FF434AF95EA0C0F7FF425AF1046D5
:1009600019462CE795EA0C0F06D152EA03353FF4FD
:10097000FDAE1046194622E750EA410618BF52EA7A
:1009800043067FF4C5AE50EA41047FF40DAF52EA4E
:1009900043057FF4EBAE12E74FF0FF3C06E000BFEB
:1009A0004FF0010C02E000BF4FF0010C4DF804CDF8
:1009B0004FEA410C7FEA6C5C4FEA430C18BF7FEAB8
:1009C0006C5C1BD001B050EA410C0CBF52EA430CE6
:1009D00091EA030F02BF90EA020F0020704710F166
:1009E000000F91EA030F58BF994208BF90422CBFF5
:1009F000D8176FEAE37040F0010070474FEA410CEE
:100A00007FEA6C5C02D150EA013C07D14FEA430C0B
:100A10007FEA6C5CD6D152EA033CD3D05DF8040B7C
:100A2000704700BF8446104662468C4619466346AE
:100A300000E000BF01B5FFF7B7FF002848BF10F185
:100A4000000F01BD4DF808EDFFF7F4FF0CBF0120CA
:100A500000205DF808FB00BF4DF808EDFFF7EAFF46
:100A600034BF012000205DF808FB00BF4DF808ED01
:100A7000FFF7E0FF94BF012000205DF808FB00BFF6
:100A80004DF808EDFFF7CEFF94BF012000205DF880
:100A900008FB00BF4DF808EDFFF7C4FF34BF01208D
:100AA00000205DF808FB00BF4FEA410C7FEA6C5C58
:100AB00002D150EA013C0AD14FEA430C7FEA6C5C58
:100AC00002D152EA033C02D14FF0000070474FF0D0
:100AD000010070474FEA410212F5001215D211D5FC
:100AE0006FF47873B3EB625212D94FEAC12343F02B
:100AF000004343EA505311F0004F23FA02F018BFAD
:100B0000404270474FF00000704750EA013005D175
:100B100011F0004008BF6FF0004070474FF0000038
:100B2000704700BF53B94AB9002908BF00281CBF4D
:100B30004FF0FF314FF0FF3000F00CB8ADF1080C72
:100B40006DE904CE07F09AF8DDF804E0DDE9022350
:100B500004B07047704700BF10B5054C237833B917
:100B6000044B13B10448AFF300800123237010BD80
:100B7000B809002000000000407F000808B5034BC2
:100B80001BB103490348AFF3008008BD000000001B
:100B9000BC090020407F000830B589B000240494CF
:100BA000059406940794184B9A6942F020029A61C2
:100BB0009A6902F020020192019A9A6942F00402B5
:100BC0009A619A6902F004020292029A9A6942F0CA
:100BD00008029A619B6903F008030393039B0B4D82
:100BE00022464FF47041284600F012FF4FF4704344
:100BF00004930123059306940323079304A928462D
:100C000000F0F6FD09B030BD00100240000C0140BC
:100C100072B6FEE700B585B00023019302930393FB
:100C20000F48104A02608360037303754FF460221B
:100C3000C26143600123036100F07EFC60B90023C0
:100C4000019301220292039301A9054800F0ACFB35
:100C500020B905B05DF804FBFFF7DAFFFFF7D8FF16
:100C6000D40900200024014008B50A480A4B03605B
:100C70000A4B436000238360C3604FF480420261EB
:100C800043618361C361036200F0C8FE00B908BD1F
:100C9000FFF7BEFF040A002000540040801A06003F
:100CA00000B58BB00023089309930193029303933B
:100CB00004930593069307931A484FF0804202600D
:100CC0004360836040F2E732C2600361836101F0F8
:100CD000FBFBF8B900230893099308A9114801F018
:100CE00011FDC8B960230193002302930393059378
:100CF000082201A90B4801F09DFC78B90C2201A93A
:100D0000084801F097FC58B9064800F0F9F90BB013
:100D10005DF804FBFFF77CFFFFF77AFFFFF778FF32
:100D2000FFF776FF580A002000B58DB0002301932D
:100D300002931348134A0260436083604FF6FF72C8
:100D4000C2600361836101220392049305920693BA
:100D50000793089309920A930B9303A901F0E0FB10
:100D600050B900230193029301A9054801F0CAFC80
:100D700020B90DB05DF804FBFFF74AFFFFF748FF0D
:100D8000A00A00200004004000B58DB000230193AC
:100D900002931348134A0260436083604FF6FF7268
:100DA000C26003618361012203920493059206935A
:100DB0000793089309920A930B9303A901F0B0FBE0
:100DC00050B900230193029301A9054801F09AFC50
:100DD00020B90DB05DF804FBFFF71AFFFFF718FF0D
:100DE000E80A00200008004008B50A480A4B0360E2
:100DF0004FF4E133436000238360C36003610C223E
:100E000042618361C36101F043FD00B908BDFFF792
:100E1000FFFE00BF740B00200048004008B50A48E0
:100E20000A4B03604FF4E133436000238360C360E7
:100E300003610C2242618361C36101F029FD00B9A5
:100E400008BDFFF7E5FE00BF300B00200038014071
:100E500000B595B000230D930F931093059306935F
:100E60000793089309930193029303930493012139
:100E70000A914FF480320B920C930E91022311933E
:100E800012924FF4E01313930AA800F0BBFEC8B906
:100E90000F23059302210691002307934FF48062EC
:100EA0000892099305A801F0EBF868B902230193B1
:100EB0004FF40043039301A801F0BEF930B915B017
:100EC0005DF804FBFFF7A4FEFFF7A2FEFFF7A0FE0C
:100ED00008B500F045FAFFF7BBFFFFF75DFEFFF72F
:100EE00099FEFFF7C1FEFFF7DBFEFFF71DFFFFF7DF
:100EF0004BFFFFF779FFFFF791FF044C204601F00D
:100F00001BFF204601F018FFF7E700BF587F0008DD
:100F100082B00E4B9A6942F001029A619A6902F01E
:100F200001020092009ADA6942F08052DA61DB69CC
:100F300003F080530193019B054A536823F0E0635B
:100F400043F00073536002B0704700BF00100240CE
:100F50000000014000B587B000230293039304937F
:100F600005930268114B9A4202D007B05DF804FB6A
:100F700003F56C439A6942F400729A619A6902F42B
:100F800000720092009A9A6942F004029A619B6989
:100F900003F004030193019B0123029303230393B2
:100FA00002A9034800F024FCDFE700BF0024014051
:100FB0000008014010B586B0002302930393049308
:100FC00005930268154B9A4201D006B010BD144C2F
:100FD000A36943F00803A361A36903F00803009326
:100FE000009B4FF440730293122303930323059352
:100FF00002A90C4800F0FCFB0B4A536843F0E06385
:1010000043F002035360E36943F40013E361E369CF
:1010100003F400130193019BD7E700BF0054004085
:1010200000100240000C0140000001400368B3F1D1
:10103000804F00D0704782B003F50433DA6942F084
:101040000102DA61DB6903F001030193019B02B045
:101050007047000000B589B0002304930593069300
:1010600007930368214A934205D0214A93421FD037
:1010700009B05DF804FB1F4BDA6942F00202DA6145
:10108000DA6902F002020092009A9A6942F00402C0
:101090009A619B6903F004030193019BC0230493AD
:1010A00000230593069304A9134800F0A1FBDFE792
:1010B000104BDA6942F00402DA61DA6902F00402E4
:1010C0000292029A9A6942F008029A619B6903F0BF
:1010D00008030393039BC023049300230593069303
:1010E00004A9064800F084FBC2E700BF00040040EA
:1010F000000800400010024000080140000C0140C0
:1011000000B587B00023029303930493059303680B
:10111000B3F1804F02D007B05DF804FB03F5043350
:101120009A6942F004029A619B6903F004030193F7
:10113000019B0C23029302230393059302A9024807
:1011400000F056FBE7E700BF0008014030B589B06A
:10115000002304930593069307930368354A93424B
:1011600004D0354A934233D009B030BD334B9A692D
:1011700042F480429A619A6902F480420092009A95
:101180009A6942F004029A619B6903F00403019397
:10119000019B4FF4007304930223059303230793E9
:1011A000274D04A9284600F023FB4FF480630493E5
:1011B00000240594069404A9284600F019FB224651
:1011C0002146252000F04EFA252000F07FFACBE7DB
:1011D0001A4BDA6942F48022DA61DA6902F4802279
:1011E0000292029A9A6942F008029A619B6903F09E
:1011F00008030393039B4FF4806304930223059336
:10120000032307930F4D04A9284600F0F1FA4FF489
:101210000063049300240594069404A9284600F072
:10122000E7FA22462146272000F01CFA272000F08A
:101230004DFA99E700380140004800400010024094
:1012400000080140000C0140FEE7FEE7FEE7FEE774
:10125000FEE770477047704708B500F093F808BD87
:1012600008B5024801F0C6FB08BD00BF300B0020E6
:1012700008B5024801F0BEFB08BD00BF740B00209A
:1012800070B50C4616460025B54207DAAFF300806C
:10129000214601F8010B01350C46F5E7304670BDDB
:1012A00070B50C4616460025B54205DA14F8010B58
:1012B000AFF300800135F7E7304670BD08B503464F
:1012C0000B4A126842B10A4A106803446A469342C4
:1012D00006D8074A136008BD054A06491160F2E7BF
:1012E00001F0B0FC0C2303604FF0FF30F3E700BFC8
:1012F000B80B0020200C00204FF0FF3070474FF457
:1013000000534B6000207047012070470020704759
:101310007047000010B504460E4B18784FF47A73EE
:10132000B3FBF0F30C4A1068B0FBF3F000F0DCF90B
:1013300068B90F2C01D901200AE0002221464FF0A4
:10134000FF3000F08FF9054B1C60002000E0012009
:1013500010BD00BF04000020000000200800002095
:1013600008B5074A136843F010031360032000F028
:1013700067F90F20FFF7CEFFFFF7CAFD002008BD79
:1013800000200240034A1168034B1B780B44136092
:10139000704700BFBC0B002004000020014B186800
:1013A000704700BFBC0B002030B482B00022019215
:1013B00090F82420012A00F08B800346012280F857
:1013C00024204A68062A29D80568686B02EB820245
:1013D000053A1F24944020EA04000C6804FA02F243
:1013E00002436A630A68092A38D91D68E86802EB73
:1013F00042021E3A0724944020EA04008C6804FA52
:1014000002F20243EA600A68103A012A34D9002045
:10141000002283F8242002B030BC70470C2A0ED87A
:101420000568286B02EB8202233A1F24944020EACD
:1014300004000C6804FA02F202432A63D2E705684A
:10144000E86A02EB8202413A1F24944020EA040039
:101450000C6804FA02F20243EA62C3E71D682869D5
:1014600002EB42020724944020EA04008C6804FA4C
:1014700002F202432A61C6E71A681648824205D082
:101480009A6A42F020029A620120C1E7906810F443
:10149000000F1BD1906840F4000090600A68102A89
:1014A00001D00020B4E70C4A12680C49A1FB0212DB
:1014B000920C02EB82025200019202E0019A013A80
:1014C0000192019A002AF9D10020A1E700209FE7AC
:1014D0000220A0E7002401400000002083DE1B431F
:1014E00038B503689A6812F0010F01D1002038BDA9
:1014F00004469A6822F001029A60FFF74FFF054602
:1015000023689B6813F0010F13D0FFF747FF431BBD
:10151000022BF5D923689B6813F0010FF0D0A36A62
:1015200043F01003A362E36A43F00103E362012086
:10153000DDE70020DBE7000000287BD070B5044623
:10154000836A002B4DD02046FFF7CAFFA36A13F031
:10155000100369D1002867D1A26A22F4885222F0D0
:10156000020242F00202A2626268E1690A43217B40
:1015700042EA4102A568B5F5807F02D0012D36D040
:101580001D46267D012E35D02668716821F46941FB
:10159000294371602568AE68274931401143A9602D
:1015A000A168B1F5807F01D0012902D12369013BF7
:1015B0001B052568E96A21F470010B43EB6223687F
:1015C00099681E4B0B409A4225D0A36A23F0120360
:1015D00043F01003A362E36A43F00103E3620120D6
:1015E00027E0C36280F82430FFF7B4FCABE74FF488
:1015F0008075C6E731B9A169013945EA413141F445
:101600000065C1E7A16A41F02001A162E16A41F0F1
:101610000101E162B8E70023E362A36A23F0030358
:1016200043F00103A36204E0A36A43F01003A36242
:10163000012070BD01207047FDF7E1FFFE0E1FFF86
:10164000074AD36823F4E0631B041B0C000200F478
:10165000E060034343F0BF6343F40033D36070475B
:1016600000ED00E030B4174BDB68C3F30223C3F195
:101670000704042C28BF04241D1D062D18D9033B84
:101680004FF0FF3505FA04F421EA0401994005FA08
:1016900003F322EA0303194300280BDB0901C9B253
:1016A00000F1604000F5614080F8001330BC7047E5
:1016B0000023E5E700F00F000901C9B2024B1954FD
:1016C000F4E700BF00ED00E014ED00E0002807DBC8
:1016D00000F01F02400901239340024A42F82030E3
:1016E000704700BF00E100E00138B0F1807F0AD20E
:1016F000064B5860064AF02182F8231000209860BB
:1017000007221A6070470120704700BF10E000E018
:1017100000ED00E090F82130022B06D00423836313
:10172000002380F82030012070470268136823F0FE
:101730000E0313600268136823F001031360036C47
:10174000C16B012202FA03F34B6080F821200023D1
:1017500080F820301846704708B590F82130022BE9
:1017600003D004238363012008BD0268136823F0BB
:101770000E0313600268136823F00103136003680B
:10178000194A934214D0143293421FD01432934218
:101790001ED0143293421ED0143293421ED0143203
:1017A000934202D04FF0807203E04FF4801200E0C9
:1017B00001220E4B5A60012380F82130002380F86B
:1017C0002030436B6BB198470020CDE71022F0E743
:1017D0004FF48072EDE74FF48052EAE74FF4803225
:1017E000E7E70020C0E700BF080002400000024019
:1017F000F0B482B000252C46A3E07F4FBB4210D04E
:1018000007D97E4FBB420CD007F58037BB4208D0CA
:1018100013E0A7F58017BB4203D007F57027BB4242
:1018200007D18B68002B58D0012B51D0426108257D
:1018300003E0A7F58017BB42F3D0FF2E4FD88446B4
:10184000FF2E4FD8A200DCF800300F27974023EA84
:10185000070305FA02F21343CCF800304B6813F08B
:10186000805F6DD0664B9A6942F001029A619B6974
:1018700003F001030193019BA208971C614B53F8ED
:10188000273004F00307BF004FF00F0C0CFA07FCE1
:1018900023EA0C0C5C4B98422AD003F580639842F3
:1018A00000F08A8003F58063984200F0878003F59A
:1018B000806398421AD004231BE0CD68BDE7CD6851
:1018C0000435BAE7CD680835B7E7CD680C35B4E71D
:1018D00002610825B1E70025AFE70425ADE700F177
:1018E000040CADE7A4F108029200ACE7032300E08A
:1018F0000023BB4043EA0C030232424F47F8223038
:101900004B6813F4803F5BD0404A13683343136045
:101910004B6813F4003F59D03C4A5368334353603B
:101920004B6813F4801F57D0384A93683343936051
:101930004B6813F4001F55D0344AD3681E43D66059
:1019400001340B6833FA04F252D00122A24003EAB8
:10195000020632EA0303F3D14B68122B3FF64DAF78
:10196000122B3FF66AAF01A757F823F0231800089F
:10197000BB180008C5180008D71800083B18000855
:101980003B1800083B1800083B1800083B180008EB
:101990003B1800083B1800083B1800083B180008DB
:1019A0003B1800083B1800083B1800083B180008CB
:1019B000BF180008CB18000801239AE7022398E714
:1019C000124A136823EA06031360A1E70F4A53681B
:1019D00023EA06035360A3E70C4A936823EA06034D
:1019E0009360A5E7094AD36823EA0606D660A7E70D
:1019F00002B0F0BC704700BF0000221000003110A0
:101A000000100240000001400008014000040140B5
:101A10000AB101617047090401617047002800F0B4
:101A2000CC80F8B5044690F83D30002B77D02423C5
:101A300084F83D302268136823F0010313602268A4
:101A4000136843F4004313602268136823F40043CF
:101A5000136000F0D1FB62685A4B9A4264D85A4B2B
:101A600098428CBF00230123002B40F0A880574DE3
:101A7000A5FB0035AF0C2668716821F03F0141EAF3
:101A80009541716021680B6A23F03F0365684D4AF8
:101A900095424FD87A1C13430B622568E96921F4FB
:101AA0004F4121F0FF016368464A93424CD8013808
:101AB0005B00B0FBF3F0013040F6FC73184278D0C5
:101AC000C0F30B030B43EB6121680B6823F0C003E9
:101AD000E269206A024313430B6021688B6823F498
:101AE000034323F0FF032269E068024313438B6042
:101AF0002168CB6823F0FF036269A06902431343A6
:101B0000CB602268136843F0010313600020206457
:101B1000202384F83D30206384F83E00F8BD80F82F
:101B20003C30FFF747FA82E7294B98428CBF0023ED
:101B3000012399E74FF4967202FB07F2254DA5FBAE
:101B4000025292090132A6E7A268BAB9461E03EB17
:101B50004307B6FBF7F60136C6F30B06B6FA86F670
:101B6000760946BBC2B9421E03EB4303B2FBF3F254
:101B70000132C2F30B0242F40043A3E7461E03EB1B
:101B8000830707EB8707B6FBF7F60136C6F30B06AC
:101B9000B6FA86F67609E4E7421E03EB830303EB0D
:101BA0008303B2FBF3F20132C2F30B0242F440436F
:101BB00088E7042386E7012384E70120704701209A
:101BC000ACE700BFA08601007F841E0083DE1B43BC
:101BD000FF083D00D34D621082B0084B1B68084AD5
:101BE000A2FB03235B0A00FB03F3019300BF019BED
:101BF0005A1E0192002BF9D102B07047000000205C
:101C0000D34D6210002800F0F18170B582B0044617
:101C1000036813F0010F2CD0AA4B5B6803F00C0390
:101C2000042B1DD0A74B5B6803F00C03082B12D0CC
:101C30006368B3F5803F41D0002B55D103F1804359
:101C400003F504331A6822F480321A601A6822F409
:101C500080221A6037E09B4B5B6813F4803FE7D02B
:101C6000984B1B6813F4003F03D06368002B00F00F
:101C7000BF81236813F0020F75D0924B5B6813F09D
:101C80000C0F5FD08F4B5B6803F00C03082B54D014
:101C90002369002B00F089808B4B01221A60FFF72B
:101CA0007DFB0546874B1B6813F0020F74D1FFF7CD
:101CB00075FB401B0228F5D903209EE1814A136879
:101CC00043F480331360636843B3FFF767FB054653
:101CD0007C4B1B6813F4003FCBD1FFF75FFB401B2D
:101CE0006428F5D9032088E1B3F5A02F09D0754BFE
:101CF0001A6822F480321A601A6822F480221A606C
:101D0000E1E703F18043A3F53C331A6842F48022F3
:101D10001A601A6842F480321A60D4E7FFF73EFB7B
:101D20000546684B1B6813F4003FA2D0FFF736FB53
:101D3000401B6428F5D903205FE1624B5B6813F414
:101D4000803FA5D15F4B1B6813F0020F03D02369BE
:101D5000012B40F04F815B4A136823F0F80361695F
:101D600043EAC1031360236813F0080F32D0A3695C
:101D7000002B45D0554B01221A60FFF70FFB05469B
:101D8000504B5B6A13F0020F21D1FFF707FB401B9A
:101D90000228F5D9032030E14A4A136823F0F803FA
:101DA000616943EAC1031360DDE7474B00221A6013
:101DB000FFF7F4FA0546434B1B6813F0020FD2D02D
:101DC000FFF7ECFA401B0228F5D9032015E10120AA
:101DD000FFF702FF236813F0040F00F09780394BE0
:101DE000DB6913F0805F1DD1364BDA6942F0805217
:101DF000DA61DB6903F080530193019B012512E056
:101E0000324B00221A60FFF7C9FA05462D4B5B6A78
:101E100013F0020FDED0FFF7C1FA401B0228F5D9FC
:101E20000320EAE000252A4B1B6813F4807F11D0C1
:101E3000E368012B22D0002B38D103F1804303F556
:101E400004331A6A22F001021A621A6A22F00402AA
:101E50001A6218E01E4A136843F480731360FFF798
:101E60009DFA06461A4B1B6813F4807FE0D1FFF7FA
:101E700095FA801B6428F5D90320BEE0114A136A45
:101E800043F001031362E36873B3FFF787FA064672
:101E90000C4B1B6A13F0020F37D1FFF77FFA801B40
:101EA00041F288339842F3D90320A6E0052B11D0E4
:101EB000044B1A6A22F001021A621A6A22F0040222
:101EC0001A62E0E7001002400000424280044242F1
:101ED000007000404D4B1A6A42F004021A621A6AFE
:101EE00042F001021A62CEE7FFF758FA0646474B66
:101EF0001B6A13F0020F08D0FFF750FA801B41F263
:101F000088339842F3D9032077E0E5B9E369002BE1
:101F100072D03E4A526802F00C02082A56D0022BB8
:101F200017D03B4B00221A60FFF738FA0446374BB4
:101F30001B6813F0007F47D0FFF730FA001B022820
:101F4000F5D9032059E0314AD36923F08053D36196
:101F5000DCE72F4B00221A60FFF720FA05462B4BD7
:101F60001B6813F0007F06D0FFF718FA401B022809
:101F7000F5D9032041E0236AB3F5803F1AD0234905
:101F80004B6823F47413226A606A024313434B6064
:101F90001F4B01221A60FFF701FA04461B4B1B6816
:101FA00013F0007F0ED1FFF7F9F9001B0228F5D9D5
:101FB000032022E0154A536823F40033A1680B4341
:101FC0005360DCE7002018E0002016E0012B16D05B
:101FD0000E4B5B6803F48031226A914211D103F405
:101FE0007013626A93420ED1002006E00120704710
:101FF000012002E0012000E0002002B070BD0120BD
:10200000FBE70120F9E70120F7E700BF00100240DD
:102010006000424286B0164B0FCB0DF1180C0CE954
:102020000F0040F20123ADF80430124B5B6803F05F
:102030000C02082A02D0104806B07047C3F383424E
:10204000624412F8102C13F4803F0CD0094B5B68EB
:10205000C3F34043634413F8143C074800FB02F009
:10206000B0FBF3F0E8E7054800FB02F0E4E700BF4F
:10207000747F00080010024000127A0000093D0041
:10208000002800F0A08070B50D460446524B1B6836
:1020900003F007038B420BD24F4A136823F0070368
:1020A0000B431360136803F007038B4240F08D80ED
:1020B000236813F0020F17D013F0040F04D0474A1F
:1020C000536843F4E0635360236813F0080F04D0AF
:1020D000424A536843F460535360404A536823F0C4
:1020E000F003A1680B435360236813F0010F31D054
:1020F0006368012B20D0022B25D0384A126812F0D9
:10210000020F64D035494A6822F0030213434B6042
:10211000FFF744F90646314B5B6803F00C03626835
:10212000B3EB820F16D0FFF739F9801B41F28833E9
:102130009842F0D9032045E0284A126812F4003F83
:10214000E0D101203EE0254A126812F0007FD9D18B
:10215000012037E0204B1B6803F00703AB420AD98C
:102160001D4A136823F007032B431360136803F021
:102170000703AB422DD1236813F0040F06D0174A92
:10218000536823F4E063E1680B435360236813F062
:10219000080F07D0114A536823F46053216943EABA
:1021A000C1035360FFF736FF0C4B5B68C3F30313A7
:1021B0000B4AD35CD8400B4B18600B4B1868FFF7E9
:1021C000A9F8002070BD012070470120FAE7012026
:1021D000F8E70120F6E700BF0020024000100240AF
:1021E0005C7F00080000002008000020014B1868F8
:1021F000704700BF0000002008B5FFF7F7FF044B51
:102200005B68C3F30223034AD35CD84008BD00BF18
:10221000001002406C7F000808B5FFF7E7FF044B91
:102220005B68C3F3C223034AD35CD84008BD00BF38
:10223000001002406C7F000870B582B0044603684D
:1022400013F0010F34D03E4BDB6913F0805F47D1B0
:102250003B4BDA6942F08052DA61DB6903F080536C
:102260000193019B0125374B1B6813F4807F39D004
:10227000334B1B6A13F4407311D0626802F440724E
:102280009A420CD02E4A136A23F440702E4901263C
:102290000E6000260E60106213F0010F36D1284A3E
:1022A000136A23F4407361680B431362002D3ED11F
:1022B000236813F0020F06D0214A536823F44043E9
:1022C000A1680B435360236813F0100F34D01C4AED
:1022D000536823F48003E1680B43536000202CE033
:1022E0000025C0E7174A136843F480731360FFF7B3
:1022F00055F80646134B1B6813F4807FB8D1FFF7DF
:102300004DF8801B6428F5D9032016E0FFF746F846
:1023100006460B4B1B6A13F0020FC0D1FFF73EF8C5
:10232000801B41F288339842F3D9032005E0D3693A
:1023300023F08053D361BBE7002002B070BD00BF23
:1023400000100240007000404004424270B4036A32
:1023500023F001030362036A4668826922F0730274
:102360000C6844EA020523F002028B6813430D4C0B
:10237000A04209D00B4CA0420DD0466085614A684E
:102380004263036270BC704723F00803CA681343BA
:1023900023F00403EEE726F440764A6932438E695F
:1023A0001643EAE7002C014030B4036A23F480733B
:1023B0000362036A4568C26922F073020C68224313
:1023C00023F400738C6843EA04230F4CA04209D025
:1023D0000D4CA0420ED04560C2614A68C2630362E0
:1023E00030BC704723F40063CC6843EA042323F431
:1023F0008063EDE725F440554C6945EA04158C6986
:1024000045EA0415E7E700BF002C014030B4036A39
:1024100023F480530362036A4468C26922F4E642EB
:102420000D6842EA052223F400538D6843EA053320
:10243000074DA84206D04460C2614A680264036244
:1024400030BC704724F480444D6944EA8514F2E7B7
:10245000002C014003681B4A90420AD0B0F1804F23
:1024600007D0A2F59432904203D002F580629042E8
:1024700003D123F070034A681343124A90420AD0F2
:10248000B0F1804F07D0A2F59432904203D002F50C
:102490008062904203D123F44073CA68134323F04F
:1024A00080034A69134303608B68C3620B688362CD
:1024B000044B984202D00123436170470B690363C8
:1024C000F9E700BF002C014040B310B5044690F876
:1024D0003D30F3B1022384F83D30214651F8040B1E
:1024E000FFF7B8FF012384F8463084F83E3084F8C3
:1024F0003F3084F8403084F8413084F8423084F82A
:10250000433084F8443084F8453084F83D3000206E
:1025100010BD80F83C30FEF789FDDBE701207047F5
:10252000002853D0F8B50D46044690F83D30002BF6
:1025300047D0022384F83D302268936823F4804317
:1025400023F007039360214651F8040BFFF782FF45
:1025500021688A688E690F6A2868104326F44076DD
:1025600026F00306AA68AB6942EA0323334323F447
:102570007C4323F0FC03EE68EA6946EA02261E4328
:102580002A6A13032A6943EA0213334327F0220716
:102590006A686D6942EA05123A43886021688B6176
:1025A00023681A62012384F8463084F83E3084F8A8
:1025B0003F3084F8423084F8433084F83D300020C6
:1025C000F8BD80F83C30FEF745FDB2E701207047CA
:1025D00030B4036A23F010030362036A446882691B
:1025E00022F4E6420D6842EA052223F020038D68BA
:1025F00043EA05130E4DA84209D00D4DA8420ED056
:10260000446082614A688263036230BC704723F091
:102610008003CD6843EA051323F04003EDE724F47B
:1026200040644D6944EA85048D6944EA8504E7E71E
:10263000002C014038B590F83C30012B60D00446A6
:102640000D46012380F83C300C2A1AD8DFE802F04E
:10265000071919191D191919311919194400006898
:10266000FFF774FE2268936943F0080393612268C0
:10267000936923F0040393612268936929690B43EA
:102680009361002084F83C0038BD0068FFF7A0FF8C
:102690002268936943F4006393612268936923F489
:1026A0008063936122689369296943EA01239361F6
:1026B000E7E70068FFF778FE2268D36943F0080374
:1026C000D3612268D36923F00403D3612268D369FC
:1026D00029690B43D361D4E70068FFF797FE2268AE
:1026E000D36943F40063D3612268D36923F4806320
:1026F000D3612268D369296943EA0123D361C0E722
:102700000220C1E790F83C30012B2BD030B40123DC
:1027100080F83C30022380F83D3003685C689D6897
:1027200024F070040A6822435A6003680E4A9342F8
:102730000AD0B3F1804F07D0A2F59432934203D070
:1027400002F58062934204D125F080054A68154362
:102750009D60012380F83D30002380F83C3018460E
:1027600030BC704702207047002C01400268D368DB
:1027700023F49073D3600268536923F0010353611B
:10278000036B012B05D0202380F83E300023036328
:1027900070470268D36823F01003D360F3E790F822
:1027A0003D30DBB2212B01D0022070478368B3F5A6
:1027B000805F17D0036A5A1C02621A7803685A6055
:1027C000C38C9BB2013B9BB2C3844BB90268D368F4
:1027D00023F08003D3600268D36843F04003D360E2
:1027E000002070470369002BE4D1036A1B8802684C
:1027F000C3F308035360036A02330362E0E7000097
:1028000010B504460268136923F44053C1680B43B2
:10281000136183680269134342691A430168CB68F4
:1028200023F4B05323F00C031343CB6002685369C5
:1028300023F4407381690B4353610268124B9A423F
:102840001FD0FFF7D9FC00EB800303EB8303626822
:102850009200B3FBF2F20D48A0FB02314909642358
:1028600003FB11231B013233A0FB03235B0903F09D
:10287000F00202EB011203F00F03216813448B6096
:1028800010BDFFF7C9FCDEE7003801401F85EB51A2
:1028900058B310B5044690F83D300BB3242384F8A8
:1028A0003D302268D36823F40053D3602046FFF7FD
:1028B000A7FF2268136923F49043136122685369C8
:1028C00023F02A0353612268D36843F40053D36092
:1028D00000202064202384F83D3084F83E3010BD71
:1028E00080F83C30FEF732FCD8E701207047704793
:1028F00008B50168CA6822F04002CA60202280F848
:102900003D20FFF7F4FF002008BD7047704708B571
:10291000406A0023C385C384FFF7F8FF08BD7047F2
:1029200090F83E30DBB2222B60D18368B3F5805F34
:1029300046D0826AB3F5805F04D0002B4DD1036985
:10294000002B4AD103685B681370836A013383628A
:10295000C38D9BB2013B9BB2C385002B48D100B510
:1029600083B00268D36823F02003D3600268D36881
:1029700023F48073D3600268536923F00103536129
:10298000202380F83E30036B012B2CD100230363FE
:102990000268D36823F01003D36003681A6812F04A
:1029A000100F06D0002201921A6801925B68019311
:1029B000019B818DFFF7B3FF002003B05DF804FB9E
:1029C0000269002AB5D1826A03685B68C3F3080311
:1029D0001380836A02338362BAE703685B6803F09B
:1029E0007F031370B1E7FFF790FFE5E70220704720
:1029F0000020704730B583B0044602681368D06881
:102A0000516913F00F0505D113F0200F02D010F01B
:102A1000200F19D12DB111F0010119D110F4907FBF
:102A200016D1216B012975D013F0800F03D010F05F
:102A3000800F40F0D78013F0400F03D010F0400F0C
:102A400040F0D48003B030BD2046FFF769FFF9E7BE
:102A500013F0010F06D010F4807F03D0226C42F0F7
:102A60000102226413F0040F04D019B1226C42F069
:102A70000202226413F0020F04D019B1226C42F05A
:102A80000402226413F0080F07D010F0200F00D1C9
:102A900019B1226C42F008022264226C002AD1D0C3
:102AA00013F0200F02D010F0200F21D123685B69B2
:102AB00003F04003226C12F0080F00D123B320462C
:102AC000FFF754FE23685A6912F0400F18D05A6974
:102AD00022F040025A61A36B73B1464A5A63A06B5D
:102AE000FEF73AFE0028ADD0A06B436B9847A9E7EC
:102AF0002046FFF715FFD9E72046FFF707FFA1E7BC
:102B00002046FFF703FF9DE72046FFF7FFFE002367
:102B1000236497E713F0100F86D010F0100F83D0C6
:102B2000002301931368019353680193019B536938
:102B300013F0400F32D0A16B0B685B689BB2002B87
:102B400080D0A08D98427FF67DAFE3858B69202BE6
:102B500008D1A18DE38D9BB2C91A89B22046FFF737
:102B6000DEFE6FE7D36823F48073D3602268536975
:102B700023F0010353612268536923F0400353613A
:102B8000202384F83E30002323632268D36823F097
:102B90001003D360A06BFEF7BDFDDAE7A18DE38DD6
:102BA0009BB2C91A89B2E38D9BB2002B3FF44AAFA6
:102BB00000293FF447AFD36823F49073D3602268B1
:102BC000536923F001035361202384F83E3000232E
:102BD00023632268D36823F01003D3602046FFF7F5
:102BE0009EFE2FE72046FFF7DAFD2BE72046FFF792
:102BF0007FFE27E70F2900080C480D490D4A0023E6
:102C000002E0D458C4500433C4188C42F9D30A4AA1
:102C10000A4C002301E013600432A242FBD3FEF70A
:102C200077FB00F015F8FEF753F97047000000201D
:102C3000B809002024820008B80900201C0C0020DC
:102C4000FEE70000014B1868704700BF0C00002031
:102C500070B50D4E0D4D761BB61006D0002455F8FC
:102C6000043B01349847A642F9D1094E094D05F0BD
:102C700067F9761BB61006D0002455F8043B0134E2
:102C80009847A642F9D170BD188200081882000842
:102C90002082000818820008F0B4860746D0541E2F
:102CA000002A3CD00346CAB201E0013C37D303F806
:102CB000012B9D07F9D1032C2AD9CDB245EA052570
:102CC0000F2C45EA054534D9A4F1100222F00F0C6F
:102CD00003F120071609674403F1100242E9045585
:102CE00042E902551032BA42F8D1721C14F00C0FAE
:102CF00003EB021204F00F0613D0331F23F003037B
:102D00000433134442F8045B9342FBD106F00304FE
:102D10002CB1CAB21C4403F8012B9C42FBD1F0BC7D
:102D2000704734461346002CF3D1F8E714460346A7
:102D3000C1E71A462646E0E70FB400B5074983B05D
:102D400004AB086853F8042B8168019300F008F87D
:102D500003B05DF804EB04B0704700BF0C00002026
:102D60002DE9F04FD7B01C468B461746814603F03D
:102D700053F903680E941846189304F08BF81790D3
:102D8000B9F1000F04D0D9F83830002B00F0EA81F7
:102D9000DBF8643013F0010FBBF90C309AB202D1AA
:102DA0009D0540F1B58690040AD4DBF8642043F415
:102DB000005322F40051ABF80C309AB2CBF86410F7
:102DC000110740F1BB80DBF81030002B00F0B6801B
:102DD00002F01A030A2B00F0BF800023002100221A
:102DE000CDE92B33CDE91A33CDE91C331393199375
:102DF0000A932DAB98462A933B78DA46CDE9141214
:102E0000002B00F060813C4604E014F8013F002BE9
:102E100000F0B980252BF8D1E51B40F0B78023786E
:102E2000002B00F0508100230B938DF88B3007931B
:102E30004FF0FF33667804F1010B20212B24099316
:102E40000BF1010BA6F120035A2B00F2BB80DFE847
:102E500013F0EA02B900B900E302B900B900B90001
:102E6000BF02B900B9006A005202B90033025E0223
:102E7000B90057025B005B005B005B005B005B001E
:102E80005B005B005B00B900B900B900B900B90094
:102E9000B900B9004201B900C101940142014201E7
:102EA0004201B900B900B900B900AF02B900B900D8
:102EB000FB01B900B900B900D501B9007802B90029
:102EC000B900B707B900B900B900B900B900B90035
:102ED000B900B9004201B900C101980142014201A3
:102EE0004201A50298018D01B9009B02B9003A0286
:102EF000FF0189028D01B900D50172009207B90066
:102F0000B9009607B90072000022A6F130031BF841
:102F1000016B02EB820203EB4202A6F13003092BA4
:102F2000F5D90B928EE70E9B53F8042B002A0B92D7
:102F30000E93C0F2BE819BF8006081E75946484677
:102F400001F05EFD002841F09B83BBF80C2002F0ED
:102F50001A030A2B7FF441AFBBF90E30002BFFF6AA
:102F60003CAFDBF86430DE0702D4950541F1808187
:102F700023463A465946484601F0FEFC0A900A9814
:102F800057B0BDE8F08FE51B00F09D80DDE92B32E6
:102F900001332A44072BC8E90075CDE92B3206DC42
:102FA00008F108080A9A23782A440A9238E7514619
:102FB00048462AAA04F00CF8002841F00E840DF1CE
:102FC000B408EFE7002E7ED0002301211A460891B5
:102FD0008DF8F4608DF88B300D930993129316934E
:102FE00010930C913DAF079B13F0020302D0089998
:102FF00002310891079911F084010F9105D10B99C5
:1030000008980D1A002D00F39C832C9C72B10120AE
:103010002B9A044402440DF18B01072ACDE92B249D
:10302000C8E9001000F30B8408F108086BB1022115
:103030002B9B0C44013323AA072BCDE92B34C8E981
:10304000002100F30B8408F108080F9B802B00F08F
:103050007882099B0C9A9D1A002D00F3B282079B7F
:10306000DD0500F119822B9B0C9A01331444072BC8
:10307000C8E900722C942B9300F3D58308F108085B
:10308000079B5D0705D50B9B089A9D1A002D00F341
:10309000F283DDE90A3208998A42ACBF9B185B18BB
:1030A0000A93002C40F0C18200232B930D9B1BB18F
:1030B00048460D9902F086FE5F460DF1B4083B7854
:1030C000002B7FF4A0AE2C9BD346002B40F0FB8757
:1030D00000232B93B7E20E9B073323F00703194617
:1030E000F1E80223CDE91423DDE9143424F000448F
:1030F0001D4618460E914FF0FF322146B04BFDF7AA
:10310000D3FC002840F06F85284621464FF0FF325F
:10311000AB4BFDF7ABFC002840F06585DDE9140101
:1031200000220023FDF798FC002841F0E9809DF87B
:103130008B2003200021A34FA34B08900D91472E15
:10314000C8BF1F46079C0C9024F080040794099187
:10315000129116911091002A3FF445AF089B01335C
:10316000089340E7484602F08DFD11E6079B9BF867
:10317000006043F02003079362E6079B43F01003CF
:103180000793079B9C0640F18E840E9B073323F028
:1031900007031946F1E8022314461D460E91002A42
:1031A00073F10003C0F2F884099B0133079B00F020
:1031B000098323F0800354EA0502089340F0038357
:1031C000099A002A40F004830793002356AF09931D
:1031D0000C9353E1002101240E9B0A4653F8040B83
:1031E0000894CDE90D138DF88B108DF8F40009913A
:1031F0001291169110910C943DAFF4E600250E9CAF
:103200008DF88B5054F8047B002F00F02386099A28
:103210001346013300F016872946384603F02EFA8C
:103220000D90002801F0A6812B460D9A0995D21B1E
:103230000C9222EAE27208920E949DF88B200D9374
:1032400012931693109386E7079B43F0100307939E
:10325000079B9A0640F148840E9B073323F007032F
:10326000F3E802450E93079B23F480630893002341
:1032700000228DF88B20099A1146013100F0DF8081
:10328000089921F08001079154EA050140F0D580AA
:10329000002A40F03882002B97D1089B13F00103DD
:1032A0000C9300F0658430230DF257178DF85731D9
:1032B000E4E00B9B5B420B93079B9BF8006043F0A1
:1032C00004030793BCE5079B9D0600F17084079BF0
:1032D000DC0600F17B86079B580600F10687079BFA
:1032E000990540F173860E9B0A9953F8042B5F46AB
:1032F00011700E93E3E69BF800608DF88B409FE51C
:10330000079B9BF8006043F08003079398E55A46BB
:1033100012F8016B2A2E01F00783A6F13003092B66
:10332000934698BF002201F26F811BF8016B02EBFC
:10333000820203EB4202A6F13003092BF5D9099270
:1033400080E5079B43F010030893089B9D0640F11E
:10335000BB830E9B073323F00703F3E802450E936C
:10336000012385E747F630020E9B079953F8044B7B
:1033700041F002010E93154B002519937826022384
:103380000891ADF88C2073E79BF80060079B6C2ECA
:1033900000F0418543F01003079351E59BF800606E
:1033A000079B682E00F04D8543F04003079347E5E7
:1033B000079B9BF8006043F00803079340E500BFBC
:1033C000FFFFEF7F8C7F0008907F00089C7F000844
:1033D000484602F021FE436818461C9303F05AFD4C
:1033E000034648461D461D9302F016FE82682021C2
:1033F0001A92002D3FF49FAD1A9B002B3FF49BAD1A
:103400001A9B1B78002B3FF496AD079B9BF800603E
:1034100043F48063079313E5079B9BF8006043F038
:10342000010307930CE59DF88B30002B7FF483ADEF
:103430009BF800608DF88B1002E5079A0892012B2B
:1034400000F0C181022B00F0668156AFE20842EA2B
:103450004572E90804F007030D461446303354EA78
:1034600005013A4607F8013DF0D108990846C00722
:1034700000F1D38256ABDB1B07910C930023099913
:103480000D931293169310930C9B9DF88B208B42F7
:10349000B8BF0B4608935EE6652E40F3E580DDE994
:1034A000140100220023FDF7CDFA002800F01B8252
:1034B00001212B9BCB4A0B440C44072BCDE92B3429
:1034C000C8E9002100F3678508F10808249B139AD6
:1034D000934280F218832B9B179A01331899144456
:1034E000072BC8E900122C942B9300F39D8408F15C
:1034F0000808139B5D1E002D7FF7C2AD102D40F311
:103500005785B94F10262B9B0F9705E008F1080847
:10351000103D102D40F34F8501331034072BCDE9BA
:103520002B34C8E90076F1DD514648462AAA03F05B
:103530004FFD002840F08180DDE92B340DF1B40807
:10354000E6E70B9B089A9D1A002D7FF782AD102DA0
:1035500041F3A780A4482146102304462B9A0F90DC
:1035600004E0103D102D08F1080817DD013210317C
:10357000072ACDE92B21C8E90043F2DD5146484630
:103580002AAA03F025FD002857D1DDE92B21103DA3
:10359000102D4FF010030DF1B408E7DC0C4601329A
:1035A0000F9B2C44072ACDE92B24C8E9003500F3F2
:1035B0000A84099B0C9A08F108089D1A002D7FF7D0
:1035C0004EAD102D40F37A858748214610230446DE
:1035D0002B9A0F9004E0103D102D08F1080816DD1D
:1035E00001321031072ACDE92B21C8E90043F2DD71
:1035F000514648462AAA03F0EBFCF0B9DDE92B213D
:10360000103D102D4FF010030DF1B408E8DC0C460E
:1036100001320F9B2C44072ACDE92B24C8E9003541
:1036200000F3348208F1080819E5514648462AAAF1
:1036300003F0CEFC00283FF437ADD3460D9911B10D
:10364000484602F0BFFBDBF8643013F0010FBBF813
:103650000C3002D1980540F17784590601F11C80A5
:103660000A9857B0BDE8F08F139B012B40F3B78148
:1036700001232B9D1C441D44072D2C94C8F8007079
:103680002B95C8F8043000F3FF8308F10808179B56
:103690000135189A1C44072DCDE92B54C8E90023A5
:1036A00000F3008408F108080023DDE9140100227A
:1036B000FDF7C8F9139B002840F0BD81013B01359F
:1036C00001371C44072DCDE92B54C8F80070C8F809
:1036D000043000F3938308F108081B9A0135144461
:1036E00026AB072DCDE92B54C8E900327FF7C6ACD5
:1036F000514648462AAA03F06BFC00289DD12C9C19
:103700000DF1B408BCE4012B00F0D087022B079B1D
:1037100008937FF49AAE199856AF230943EA0573CC
:10372000290904F00F020D461C46835C07F8013D91
:1037300054EA0503F1D1089B079356ABDB1B0C93AE
:103740009CE6102D40F33887DDE92B211E930B46B4
:103750003946102437465646CA46894604E0103D8D
:10376000102D08F1080817DD013220491033072A0F
:10377000CDE92B23C8E90014F1DD314650462AAAD1
:1037800003F026FC002840F0F883DDE92B23103DF0
:10379000102D0DF1B408E7DC4846D146B2463E464E
:1037A000074619461E9B6C1801321049072ACDE9BD
:1037B0002B24C8E9001500F3CF839DF88B2008F176
:1037C000080823E40893002D08BF0A2C80F07883B2
:1037D000089B3034079301238DF857410C930DF269
:1037E00057174BE6CC7F0008E07F0008D07F000829
:1037F0002B9B1799013318980C44072BC8E900013B
:103800002C942B9300F3258508F10808002AC0F2B8
:10381000FF86139A01331444072BCDE92B34C8E9F2
:1038200000727FF72BAC514648462AAA03F0D0FB22
:1038300000287FF402AF2C9C0DF1B40820E451461F
:1038400048462AAA1E9303F0C3FB00287FF4F5AE76
:103850002C9C1E9B0DF1B408FFF7E8BB514648466F
:103860002AAA03F0B5FB00287FF4E7AE2C9C0DF1EB
:10387000B408FFF7EABB102D40F3FF8610262B9B00
:1038800004E0103D102D08F1080817DD0133B94A96
:103890001034072BCDE92B34C8E90026F1DD514661
:1038A00048462AAA03F094FB00287FF4C6AEDDE95F
:1038B0002B34103D102D0DF1B408E7DC0133AD4A77
:1038C0002C44072BCDE92B34C8E900257FF7E1AB69
:1038D000514648462AAA03F07BFB00287FF4ADAE90
:1038E0002C9CFFF7D6BB249A002A40F31A81109B28
:1038F000139A9342A8BF1346002B1D460BDD2B9B4A
:103900002C440133072BC8E900752C942B9300F34A
:10391000DB8508F10808109B002DA8BF5B1B002B5E
:103920001D4600F36783109B3B441E46079B5905C9
:1039300000F10185249B139A934203DB079AD20777
:1039400040F1CB832B9A1799013218980C44072A1F
:10395000C8E900012C942B9200F3C38508F10808F4
:10396000139ABD18AD1BD31A9D42A8BF1D46002D4A
:103970000BDD2B9A2C440132072AC8E900652C94F0
:103980002B9200F31D8608F10808002DB4BF1D46D8
:103990005D1B002D7FF774AB102D40F30983764F2C
:1039A00010262B9B0F9705E008F10808103D102DFD
:1039B00040F3018301331034072BCDE92B34C8E9E0
:1039C0000076F1DD514648462AAA03F001FB0028A3
:1039D0007FF433AEDDE92B340DF1B408E6E7079B45
:1039E000DE073FF545AE01232B9D1C441D44072DEA
:1039F0002C94C8F800702B95C8F804307FF76BAE94
:103A0000514648462AAA03F0E3FA00287FF415AE8F
:103A1000DDE92B540DF1B4085FE6302B3FF48BAE9B
:103A20003023023A07F8013C089956AB9B1A174617
:103A300007910C9322E55E1E002E7FF74EAE102EEE
:103A400040F34F874C4BCDF824B01027D3460F934B
:103A5000CA46994605E008F10808103E102E40F3CA
:103A6000BF8101351034072DCDE92B54C8E90097EB
:103A7000F1DD594650462AAA03F0AAFA002840F080
:103A8000EC85DDE92B540DF1B408E6E751464846D4
:103A90002AAA03F09DFA00287FF4CFAD2C9C0DF1EB
:103AA000B408FFF7DCBA079BD80669D4079B590610
:103AB00040F1F6820E9B53F8044B24B2E5170E93A7
:103AC00022462B46FFF76BBB089BDC067CD4089B89
:103AD000580640F1CA820E9A012352F8044B002581
:103AE0000E92A4B2FFF7C4BB079BDB0674D4079BFE
:103AF0005F0640F1C9820E9B002553F8044B0E93DC
:103B0000A4B2FFF7B0BB079BD8077FF5B9AAE2E4E0
:103B1000DBF8580002F088FABBF90C309AB2FFF7D4
:103B200042B901202B9B154903440444072BCDE9DE
:103B30002B34C8E9001000F3AC8408F10808002A0F
:103B40007FF456AE079B139A03F0010313433FF42F
:103B500097AA2B9B179A013318991444072BC8E98D
:103B600000122C942B9300F3748308F1080850E69C
:103B700056AF83E4D07F0008E07F0008CC7F0008C8
:103B80000E9B53F8044B2246E5170E932B46002A52
:103B900073F10003BFF608AB2D23079A64428DF83A
:103BA0008B3065EB450501230892FFF764BB0E9B44
:103BB0005F4653F8041B0E930A9BDD171A462B46EB
:103BC000C1E90023FFF77BBA0E9A012352F8044B98
:103BD00000250E92FFF74CBB0E9B002553F8044BBB
:103BE0000E93FFF740BBDDE914010B460246FCF7DC
:103BF0005BFF0146002840F0DD85612E00F08285E4
:103C0000412E00F07B82099B26F020055A1C089566
:103C100000F0CC85472D00F0A385DDE91401079B5A
:103C200043F4807312930B46002BC0F239860022B6
:103C30000F931E920D920C90462D0C9A00F07A84F0
:103C4000452D4FF002000F9B40F0598409990090D8
:103C50004C1C28A925A8049124A9CDE9021001949F
:103C6000484600F0D5FF07460444129B079D079382
:103C7000002200230C980F99FCF7E4FE002800F0C6
:103C80002B832346DB1B1393089B472B00F0F68204
:103C9000089B462B00F07A84249B1093109B089A73
:103CA000013B412A249300F0F5850021F2B2002B5C
:103CB0008DF89820B6BF2D222B22109B8DF89920CD
:103CC000B8BFC3F10103092B40F3D5850DF1A70E51
:103CD00072469C46C24C6046114684FB0C234FEA58
:103CE000EC72C2EBA30202EB8203ACEB4303303372
:103CF0006328944601F8013C01F1FF32EBDC634696
:103D00003033D8B28B1E9E4502F8010C40F2288653
:103D10000DF19A0301E012F8010B964503F8010B2F
:103D2000F9D10DF1A9030DF19A025B1A134426AAE9
:103D30009B1A1B93139B1B9A012B1A440C9240F362
:103D4000B2850C9B179A13440C930023129316937D
:103D500010930C9B25F4806545F4807223EAE3738D
:103D6000079208931E9B002B40F0AF829DF88B209A
:103D70000993FFF7F0B9079B0893FFF7E6BA994B51
:103D80001993079B990675D50E9B073323F00703FC
:103D9000F3E802450E93079AD7070AD554EA0503BC
:103DA00007D0302342F002028DF88D6007928DF823
:103DB0008C30079A022322F480620892FFF758BAE7
:103DC000894B1993DDE7514648462AAA03F000F9CA
:103DD00000287FF432AC2C9C0DF1B408FFF739B900
:103DE000D146DA46DDF824B001350F9B3444072D67
:103DF000CDE92B54C8E900367FF76DAC51464846F3
:103E00002AAA03F0E5F800287FF417ACDDE92B546B
:103E10000DF1B40861E443F020039BF801600793BF
:103E20000BF1010BFFF70CB8514648462AAA03F0E4
:103E3000CFF800287FF401AC2C9C0DF1B408FFF7FB
:103E400058BB43F400739BF8016007930BF1010B1F
:103E5000FEF7F6BF099B3A46062B28BF06230997B3
:103E60001297169710970D970893604F0E940C9326
:103E7000FFF771B9079BDA0640F183800E9B00259E
:103E800053F8044B0E9386E7514648462AAA03F09E
:103E90009FF800287FF4D1ABDDE92B540DF1B40875
:103EA000FFF7F5BB514648462AAA03F091F80028CF
:103EB0007FF4C3ABDDE92B540DF1B408FFF7F4BB7D
:103EC0000022089BCDF81CB003F480630C96CDF85B
:103ED00034A09346CA461E46C14656AFDDF86880F8
:103EE0000BE00A22002320462946FCF71BFE002D8A
:103EF00008BF0A2C1BD304460D460A220023204685
:103F00002946FCF70FFE303207F8012C0BF1010BAC
:103F1000013F002EE5D098F800309B45E1D1BBF180
:103F2000FF0FDED0002D08BF0A2C80F0EF81CDF806
:103F30006880CDF84CB0C8460C9ED146DDF81CB068
:103F4000DDF834A0FFF7F7BBDBF8580002F06EF89D
:103F5000BBF80C30FFF781BB514648462AAA1E9396
:103F600003F036F800287FF468AB9DF88B202C9C7A
:103F70001E9B0DF1B408FFF749B8D146B346FFF7D1
:103F80005DBB079B5B0665D50E9B002553F8044B74
:103F90000E93A4B2FFE6514648462AAA03F018F849
:103FA00000287FF44AAB2C9C0DF1B408FFF78EBAC1
:103FB0000F4A2B9B0F9201330F9A2C44072BCDE90C
:103FC0002B34C8E900257FF759A82CE40E9B0A99E9
:103FD00053F8042B5F4611600E93FFF770B800BFD3
:103FE000676666669C7F0008B07F0008C47F000893
:103FF000E07F0008102B40F393845146BC4ACA4628
:1040000009971026174689462B9B0F9205E008F169
:104010000808103D102D40F32A8201331034072B7D
:10402000CDE92B34C8E90076F1DD494650462AAA8D
:1040300002F0CEFF002840F01383DDE92B340DF1B0
:10404000B408E6E7384602F025FF2B4602460995FC
:10405000FFF7EEB8079B002513F4007F0E9B53F883
:10406000044B0E9318BFE4B295E60E9A089B52F8E3
:10407000044B13F4007F4FF000054FF001030E9244
:1040800018BFE4B2FFF7F4B8079B002513F4007FD4
:104090000E9B53F8044B0E9318BFE4B2FFF7E3B83E
:1040A000079B13F4007F0E9B53F8044B18BF64B2B8
:1040B000E5170E9322462B46FFF771B88C4B2B9ACF
:1040C0000F93FFF7A5BA484651462AAA02F080FF8F
:1040D00000283EF4FDAFFFF7B6BA139ABD18AD1B2A
:1040E000D31A9D42A8BF1D464FE40E9B0A9953F870
:1040F000042B5F4611800E93FEF7E1BF30238DF84D
:104100008C3058238DF88D30079B43F00204099BB7
:10411000632B00F3ED8200233DAF0D93079BDDE998
:10412000141243F4817312931346002B26F02005DA
:104130000794C0F255820F93002308950C911E93AB
:10414000612E00F07B83412E7FF476AD24AA0C987B
:104150000F9902F00FFE00224FF07F53FCF70AFA8E
:1041600004460D4600220023CDE91045FCF76AFC09
:1041700008B1012324935F4B0C93099BCDF83CB00D
:10418000013B1396CDF87C90CDF880A02197BA46DC
:10419000DDE910679946DDF830B0CDF8588006E0CB
:1041A00000220023FCF74EFC09F1FF39E8B9002298
:1041B000514B30463946FCF7DDF90D460446FCF715
:1041C00089FC8046FCF76CF90B46024629462046DE
:1041D000FCF718F81BF80830B9F1FF3F55460646C2
:1041E0000F464C460AF8013BDAD1304639460022E8
:1041F000424BDDF83CB0139ECDF83CA0CDF84C808E
:10420000CDE91001DDE91F9ADDF85880219FFCF708
:1042100041FC002840F05082DDE910010022374BBC
:10422000FCF710FC18B1139BDB0700F14582002C52
:1042300008DB30220F99631C0B4401F8012B8B42E1
:10424000FBD10F910F9B079DDB1B1393129B0793D1
:104250001AE5514648462AAA02F0BAFE00287FF421
:10426000ECA9DDE92B34249A0DF1B408FFF7CEBA9E
:10427000DBF8580001F0DAFEFEF77ABE249BD81C6A
:10428000109302DB099A934204DD023E26F02003DC
:10429000089303E5109B13998B42C0F2AB81EA07A8
:1042A00040F1E482179A13440C936E0540F1E182C9
:1042B000109B002B00F3948267260C9B23EAE37388
:1042C00008930023129316934CE52D2200238DF8BA
:1042D0008B200993FEF742BF289BA342BFF4D2ACC8
:1042E00030215A1C28921970289B9C42F9D8C9E4A5
:1042F000E07F0008B07F0008000030400000E03F91
:104300002D231A468DF88B30FEF713BF1D9B1C9989
:10431000FF1A1A46384602F0EBFD98F801300BB14F
:1043200008F101080A22002320462946FCF7FAFB7F
:104330004FF0000BDFE5139B4246DDF85880FB1879
:104340000993CDF830B00F972046DDF874B01A9F6E
:10435000129BB8F1000F2DD0002B6DD1013F08F159
:10436000FF382B9B1C9901335844072BC2E9001BD3
:104370002C902B9364DC083209993B788D1B9D426D
:10438000A8BF1D46002D0ADD2B9B28440133072BB7
:10439000C2E900652C902B935DDC3B780832002D40
:1043A000B4BF1D465D1B002D15DC1E44129BB8F1E9
:1043B000000FD1D1002B3FD1139B1A970F9F90462E
:1043C000FB189E42324628BF1A4604461646DDF8C0
:1043D00030B0FFF7AFBA102D40F36A822B9910244A
:1043E0000B4604E0103D102D02F1080216DD0133EA
:1043F000B0491030072BCDE92B30C2E90014F1DDB4
:10440000514648462AAA02F0E3FD00287FF415A988
:10441000DDE92B30103D102D2DAAE8DC19464B1C90
:10442000A4492844072BCDE92B30C2E900153EDC16
:104430003B7808321E44B9E7129B013B129390E788
:10444000514648462AAA02F0C3FD00287FF4F5A889
:104450002C982DAA90E7514648462AAA02F0B8FDAA
:1044600000287FF4EAA83B782C982DAA97E74A46C3
:10447000D1469246099F01330F9A2C44072BCDE970
:104480002B34C8E9002500F3428108F10808FFF742
:104490004ABA514648462AAA02F09AFD00287FF4FB
:1044A000CCA8249A2C9C0DF1B408FFF748BB5146C8
:1044B00048462AAA02F08CFD00287FF4BEA83B786B
:1044C0002C982DAA1E4471E7514648462AAA02F0AC
:1044D0007FFD00287FF4B1A82C9C0DF1B408FFF7F4
:1044E0001ABA514648462AAA02F072FD00287FF403
:1044F000A4A8249B2C9C0DF1B408FFF731BA099CA9
:1045000028A9CDE90004049125A824A9CDE9021029
:10451000484600F07DFB472D07461AD1079D2B46E4
:10452000DB0700F1A180129A289B0792472208928C
:10453000FFF7A8BB0320099C28A9CDE9000404913A
:1045400025A824A9CDE902100F9B484600F060FB86
:104550000746099B462D07EB03047FF486AB3B78A7
:10456000302B00F0B081249B129A079D1C440792C7
:10457000FFF77EBB099B9DF88B2008930C93099055
:104580000E94129016901090FEF7E5BD249A002A22
:10459000109240F3AF81099905F001030B4340F0FD
:1045A00047816626109B0C936A0500F11A810C9BCB
:1045B00023EAE373089384E6DDE92B21FFF7F3B8E0
:1045C000514648462AAA02F003FD00287FF435A888
:1045D000249B139A2C9C0DF1B408D31AFFF7D5B97C
:1045E00008952D23DDE914121E9302F100430C916E
:1045F0000F93A5E5139B179A9A18109B0C92002B0A
:1046000040F358816726CFE700230993FEF71ABCD1
:104610005542103280F2A1815146264ACA46099776
:104620001026174689460F9204E008F10808103D4D
:10463000102D79DD01331034072BCDE92B34C8E977
:104640000076F2DD494650462AAA02F0C1FC38B98C
:10465000DDE92B340DF1B408E9E7D146FEF7EEBFF2
:10466000CB46D146FEF7EABF099B079DFC18129B7B
:10467000079347230893FFF7FBBA2B9BFFF71EB95D
:10468000DBF86430DB0707D4BBF80C309F0503D49C
:10469000DBF8580001F0CAFC4FF0FF330A93FEF735
:1046A000DFBF044B2B9A0F93FEF779BF079B08934C
:1046B000FFF78EB8E07F00080F9B0C99289513F840
:1046C000012CC97B8A4240F02981302003F8010C7B
:1046D000289B5A1E289213F8012C9142F6D0392AB1
:1046E0000BBF0C9A0132927AD2B203F8012CA9E5E1
:1046F0004846591C01F014FD0746002800F02481AB
:104700000D900BE530238DF88C307823FAE4514678
:1047100048462AAA02F05CFC00287EF48EAF2C9C4E
:104720000DF1B408FFF7FFB84A46D1469246099FFB
:1047300001330F9A2C44072BCDE92B34C8E900250F
:104740007FF713AA514648462AAA02F041FC0028E6
:104750007EF473AFDDE92B340DF1B408FFF759B8DF
:10476000002B08BF01230993079B43F48073129326
:10477000159B002B0C93C0F2BB800224099D28A836
:1047800025AA24ABCDE90320CDE90045DDE9144598
:10479000029322462B4648460D9100F039FA0C9BB5
:1047A00007460F930D9B0C941E93B7E606230993BF
:1047B000FFF733BA159B0320002BB8BF2D234FF012
:1047C0000001BABF1A468DF88B309DF88B20664FDA
:1047D000664B08900D91FEF7B2BCD346FEF733BF8F
:1047E00067261A990B78FF2B00F0AA800024109AF4
:1047F000204603E001300131FF2B08D0934206DA56
:10480000D21A4B78002BF5D10B780134F4E71A91CA
:10481000109216901294129A169B0C9913441D9A9A
:1048200002FB03130C9323EAE3730893FFF79ABA8E
:10483000179B6626D31819440C91B5E624AA0C9848
:104840000F9902F097FA00224FF07F53FBF792FE88
:1048500004460D4600220023CDE91045FCF7F2F88E
:1048600008B101232493424B0C9386E4109B0C93D4
:104870001BE567269BE6002937D130228DF89A2068
:104880000DF19B02303302F8013B26ABD31A1B9388
:10489000FFF750BA06F10F020121D2B2FFF707BAB3
:1048A00000230D939DE6E9077FF54FAAFFF749BA6C
:1048B0002B99B4E5C3F101031A4422EAE273672697
:1048C0000C920893FDE4002200230C980F99FCF74A
:1048D000B9F800287FF447AE099BC3F10103249384
:1048E00042E6244B0F93FFF77FBA0DF19A02C9E716
:1048F0000D9076E6099A05F0010513462B4304D185
:104900000123662608930C93DBE4179B662601338C
:104910001A4422EAE2730C920893D2E40F9BDEE67B
:10492000144A2B9B0F92A6E50E9B9BF8016053F84F
:10493000040B934640EAE07009900E93FEF780BAAC
:1049400000231293169366E7BAF80C30D34643F06F
:104950004003AAF80C30FEF776BE064A0F92E7E64F
:1049600002231B93FFF7E6B9947F0008987F0008A5
:104970009C7F0008E07F0008F0B50C464FF4806C87
:104980004FF0000E154606461F46636EADF26C4DA5
:10499000E28989891993E369ADF80E20626A21F0F2
:1049A0000201079316A81AABADF80C10CDF818E069
:1049B000099200930493CDF808C0CDF814C001F01B
:1049C0002FFB2A463B4669463046FEF7C9F9051ECD
:1049D00007DB3046694601F0F9F8002818BF4FF0B0
:1049E000FF35BDF80C305B0603D5A38943F04003C7
:1049F000A381169801F016FB28460DF26C4DF0BD10
:104A000038B5324B054618680C4610B1836B002B45
:104A10003CD0B4F90C3018079AB20CD52169A9B171
:104A200012F0010022D000256069A5604042A0611B
:104A300011B3002038BDD1063FD5520729D42169D2
:104A400043F00803A3819AB20029E9D102F420704F
:104A5000B0F5007FE4D02846214601F017FBB4F9F9
:104A60000C3021699AB212F00100DCD1950758BFD1
:104A70006069A0600029DCD1120658BF0846D9D56C
:104A800043F040034FF0FF30A38138BD01F0FAF846
:104A9000BFE7216B51B104F14002914204D0284696
:104AA00001F090F9B4F90C30002222630022216950
:104AB00023F02403C4E90012C2E7092243F04003B3
:104AC0002A604FF0FF30A38138BD00BF0C000020EA
:104AD000024B13B1024800F005B870470000000017
:104AE000F95C0008002301461A46184602F090BA05
:104AF0002DE9F04F03690D6983B0AB42C0F28480A9
:104B0000013D01F1140600F1140956F8253059F859
:104B1000252001338E46A90000919A4209EB8501B8
:104B20008246B2FBF3F706EB8508019137D30022EA
:104B3000B446144648465CF8043B01681FFA83FB00
:104B400007FB0B221B0C4FEA124B07FB03BB93B274
:104B5000E31A8AB21FFA8BF41344C4EB114404EB3A
:104B600023449BB243EA0443E04540F8043B4FEA48
:104B700024444FEA1B42DED2009B59F8033073B93C
:104B8000019B043B994504D307E0994505F1FF35A6
:104B900003D253F80429002AF7D0CAF810507146FE
:104BA000504601F0D9FF00282ADB48460023013790
:104BB00056F8041B04688AB29A1A0B0CA1B20A4474
:104BC000C3EB144303EB224392B242EA0342B045E3
:104BD00040F8042B4FEA2343EAD259F8252009EB89
:104BE00085036AB9043B994504D307E0994505F16B
:104BF000FF3503D253F80429002AF7D0CAF8105021
:104C0000384603B0BDE8F08F002003B0BDE8F08F58
:104C10002DE9F04F16461F46016C9BB00446CDE9C6
:104C20000467279D41B10123426C9340C1E90123F0
:104C300001F096FD00232364B7F10009B4BF0123FE
:104C400000232B60764BBCBF29F00049CDF81490AF
:104C500033EA090300F0AB80DDE90423104619466E
:104C600000220023CDE90601FBF7ECFE804670B17F
:104C70000123269A1360289B002B00F0C582694807
:104C80001860431E039303981BB0BDE8F08F18AA69
:104C900019ABCDE90032DDE90623204602F016F813
:104CA0005FEA1955824640F09880DDE91885454451
:104CB00005F23240202840F38983C0F1400305F219
:104CC000124009FA03F926FA00F049EA0000FBF75E
:104CD000D7FB0122013D1092A1F1F8710022524B45
:104CE000FBF790FA48A3D3E90023FBF743FC48A362
:104CF000D3E90023FBF788FA064628460F46FBF760
:104D0000CFFB45A3D3E90023FBF734FC02460B4657
:104D100030463946FBF778FA06460F46FBF7DAFECF
:104D200000228346002330463946FBF795FE0028D3
:104D300040F05D82BBF1160F00F24B82DDE9060107
:104D40003A4B03EBCB03D3E90023FBF785FE0028A6
:104D500072D00023A8EB0505B5F101090BF1FF3B6B
:104D60000D9300F13E8200230993BBF1000F6BDA33
:104D7000099BCDF820B0A3EB0B030993CBF1000303
:104D80000C93249B4FF0000B092B65D8052B40F3A7
:104D90001B830025043B2493249B023B032B00F23E
:104DA0006286DFE813F03B0438042F040F0442F25C
:104DB0000F73269AC9F31309136059EA06031CD12D
:104DC000289B002B00F04686194B03930833289A42
:104DD000039813601BB0BDE8F08FDDE90612C2F343
:104DE0001303084643F07F51CDF84080A5F2FF350C
:104DF000DDF8608041F4401170E7289B002B40F003
:104E0000D1830C4B03933EE761436F63A787D23F87
:104E1000B3C8608B288AC63FFB799F501344D33FA9
:104E20000000F07FCD7F00080000F83F28800008D8
:104E3000F47F0008F07F0008A8EB0505B5F1010933
:104E400000F196840D90099000230C93249BD94483
:104E5000092BCDF820B099D94FF0FF36012500235A
:104E6000CDE90A65249325930021119661642046BB
:104E700001F050FC0E2E0390206400F2F280002D11
:104E800000F0EF800899002940F34084B94B01F00D
:104E90000F0203EBC203CA054FEA2115D3E90067ED
:104EA00040F1DB83DDE90601B34B05F00F05D3E9E3
:104EB0000823FBF789FC0323CDE912010E93A5B16A
:104EC0001494DFF8B4820E9CEB0708D5D8E90023D0
:104ED00030463946FBF74EFB06460F4601346D104F
:104EE00008F10808F0D10E94149C3B46DDE912014C
:104EF0003246FBF769FC074688460D9B43B100220A
:104F0000384641469D4BFBF7A7FD002840F02E8513
:104F10000E98FBF7C5FA3A464346FBF72BFB984B36
:104F20000022FBF771F9A1F15073CDE90E010F9347
:104F30000A9B002B00F0CC83089B14930A9B1293CE
:104F40000B9B002B00F09684129A8A4B002003EBF7
:104F5000C20353E902238B49FBF736FCDDE90E233C
:104F6000FBF750F902460B4638464146CDE90E2381
:104F7000FBF7B0FD1590FBF793FA02460B46384657
:104F80004146FBF73FF9159B039D303306460F461C
:104F9000024605F8013B0B46DDE90E01FBF77AFD01
:104FA000002840F024850023CDE916B9CDF854A09F
:104FB0009846DDE90EABDDF848900E9428E0C84530
:104FC0004ADA5046594600226F4BFBF7D3FA0022CB
:104FD0006D4B82468B4630463946FBF7CBFA0F467F
:104FE0000646FBF777FD0446FBF75AFA02460B46E6
:104FF00030463946FBF706F9303452465B4605F831
:10500000014B06460F46FBF727FD002840F0EC84D5
:1050100032463B4600205949FBF7F4F852465B46BE
:10502000FBF71AFD08F101080028C8D0149BDDF831
:1050300054A00E9C039A089302E0954200F0BE84AF
:10504000A94615F8013D392BF7D00133DBB22B709F
:10505000089B01330893A0E1DDF854A00E9CDDE924
:1050600016B9199B002BC0F29380089A0E2A00F300
:105070008F80404B03EBC203D3E90023CDE9042327
:10508000259B002B1ADA0A9B002B17DC40F0A78423
:10509000DDE9040100223D4BFBF76CFA02460B46AA
:1050A000DDE90601FBF7E2FCDDF828804546002833
:1050B00000F04182259B039FDE4344E2DDE9046763
:1050C000DDE9060132463B46FBF77EFBFBF702FDBE
:1050D0008046FBF7E5F932463B46FBF74BFA0B46B9
:1050E0000246DDE90601FBF78DF8039D08F1300368
:1050F00005F8013B0A9B012B00F07183CDF818A045
:105100004FF00109AA469B4609941BE032463B46F4
:1051100020462946FBF758FBFBF7DCFC8046FBF7F3
:10512000BFF932463B46FBF725FA0B4602462946B5
:105130002046FBF767F808F13003D9450AF8013B30
:1051400000F049830022104BFBF714FA00220023E1
:1051500004460D46FBF776FC09F101090028D5D07D
:105160005546099CDDF818A0089BA9460133089311
:1051700013E100BF28800008008000080000F03F15
:1051800000001C400000E03F0000244000001440EC
:105190000B9A002A3ED0249A012A40F37C820A9B73
:1051A0005F1E0C9BBB4280F256820C9B0C97FB1A35
:1051B00000279B440A9B002BC0F23F83099A994425
:1051C00016461A4409920121204601F061FB05466A
:1051D00023E00123A8EB0505B5F101090D937FF547
:1051E000C2ADC5F101034FF000090993BDE5584672
:1051F000FBF756F932463B46FBF724FC00287FF4C8
:1052000099AD0BF1FF3B95E5BF4B039303981BB0A2
:10521000BDE8F08F0C9F099E0B9D002E0CDDB9F1AF
:10522000000F09DD4E453346A8BF4B46099AF61AD2
:10523000D21A0992A9EB03090C9BD3B10B9B002B4B
:1052400000F0A981002F10DD29463A46204601F0E2
:10525000CBFB524601460546204601F023FB0346A0
:10526000514620469A4601F07BFA0C9BDA1B40F02F
:1052700093810121204601F00BFBBBF1000F80461A
:1052800000F3A980249B012B40F39081002701208B
:10529000BBF1000F40F0AA80484410F01F0000F05E
:1052A0009180C0F12003042B40F3D883C0F11C008F
:1052B000099B0644034409938144099B002B05DDA7
:1052C00051461A46204601F0DFFB8246B9F1000F35
:1052D00005DD41464A46204601F0D6FB80460D9B3F
:1052E000002B40F03D810A9B002B40F30F810B9B6C
:1052F000002B40F08D80089B013308930126039F0B
:10530000DDF8289007E0514600230A22204601F0EC
:1053100031FA8246013641465046FFF7E9FB4E45D9
:1053200000F1300307F8013BEDDB0A9A0026002A62
:10533000CCBF93464FF0010B039A93445146012290
:105340002046049301F0A0FB4146824601F004FC94
:10535000002840F38E811BF8013C039A0BF1FF3BC0
:1053600004E05A4500F090811BF8013D392B0BF108
:105370000109F6D001338BF800304146204601F098
:10538000EFF955B12EB1AE4203D03146204601F0BF
:10539000E7F92946204601F0E3F95146204601F09D
:1053A000DFF9002389F80030269B1A46089B13601A
:1053B000289B002B3FF467AC0398C3F800901BB008
:1053C000BDE8F08F1C2073E70125E5E4C0F1200063
:1053D00006FA00F07BE401465A46204601F004FB41
:1053E000249B8046012B40F3C5810027D8F810305C
:1053F00008EB8303186901F0FBF9C0F120004BE7CB
:10540000249B022B00F31D83119BCDF820900A935F
:10541000089B01330893002E00F31681002F40F003
:10542000F8812F460399049B0E4603F001024B1EA0
:1054300024990C920A430B920A9A1A440A92414602
:105440005046FFF755FB29468346504601F084FB42
:105450003A4641468146204601F09CFBC26801461F
:105460000BF13003002A42D106905046099301F017
:1054700073FB06990490204601F072F9049A099B87
:105480001AB90B99002900F0C282B9F1000FC0F2DD
:105490008781249941EA09090C9951EA090100F030
:1054A0007F81002A00F3CD810A9A06F10109B242F8
:1054B000CB46337000F0CF81514600230A222046AC
:1054C00001F058F9BD42824629464FF000034FF0E3
:1054D0000A02204612D001F04DF939460546002354
:1054E0000A22204601F046F94E460746A7E7204625
:1054F000049301F035F90122049BC6E701F03AF963
:105500004E46054607469AE7CC7F0008249B022BAF
:1055100040F387800A9B002B7FF4CCAD41460522E7
:10552000204601F027F980465046414601F014FB21
:1055300000287FF7BFAD039F31223B46089E03F84A
:10554000012B013603934146204601F009F9731CF3
:10555000DDF80C9008930397002D7FF41AAF1CE739
:105560004146504601F0F8FA0028BFF6BCAE51465D
:1055700000230A22204601F0FDF8089B824603F131
:10558000FF390B9B002B40F04982119B002B40F30D
:1055900052820A93B2E60C9A5146204601F024FA50
:1055A000824666E6AD4B0393033310E4DDE9041253
:1055B00000297FF46BAEC2F31303002B00F0E480EC
:1055C000049F64E601230B93259B089A13441193CF
:1055D0000133012B1E46B8BF01260A930021172E66
:1055E000D8BF0A9E61647FF742AC012204235B00AE
:1055F00003F11400B042114602F10102F7D90A9EEC
:10560000616434E401230B93259B002B2CDD1E46A3
:1056100011930A93E2E700230B93D5E700230B9342
:10562000F2E70B9B002B7FF4F3AE41465046FFF7A9
:105630005FFA089ADDF80CB000F130030132002661
:1056400008920BF8013B79E629463246204601F0E4
:105650001BFA0546E2E6DF1BACE5DDE90623CDE9F2
:10566000122302230E932AE4012625960A96FFF7B9
:10567000FBBB03D1049BDB073FF56DAED9461BF89E
:10568000013D302BFAD078E63123089A0132089296
:10569000039A137071E6109A002A00F05781099A54
:1056A00003F2334316461A440C9F994409928AE543
:1056B0000E98FAF7F5FE3A464346FAF75BFF684B59
:1056C0000022FAF7A1FDA1F15073CDE90E010F936D
:1056D000384641460022634BFAF794FDDDE90E237C
:1056E00006460F46FBF7D6F98046002840F0738146
:1056F000DDE90E01024601F1004330463946FBF771
:10570000ABF900283FF4ADAC4546D3E400F0288166
:10571000DDE90601089B5D42534B05F00F0203EBE8
:10572000C203D3E90023FAF725FF2D110746884667
:1057300000F08C810222CDE912780023A0461446A5
:105740004A4EEF0705D5D6E90023FAF713FF0123E8
:105750001C446D1006F10806F3D10E944446DDE9B1
:105760001278002B3FF4C9AB07468846FFF7C5BB4C
:105770000D9036E5DDE9041200297FF436AEC2F360
:105780001303002B7FF431AE394F1740002F3FF445
:105790007EAD099B01270133099309F1010976E5E3
:1057A000002A12DD514601222046049301F06CF9D3
:1057B0004146824601F0D0F90028049B40F3218144
:1057C000392B00F001810BF13103B1462E4609F867
:1057D000013B3D46D1E55546099CDDF818A002463F
:1057E0000B46FAF711FDDDE9042306460F46FBF7E9
:1057F00051F960B9DDE9042330463946FBF722F957
:1058000000283FF4B1AC18F0010F3FF4ADAC039A9F
:1058100016E46968204600F07DFF06462B6905F115
:105820000C0102339A000C30FAF772FC3146012267
:10583000204601F029F90746F4E5DDE909329E1A10
:10584000C1E4392B00F0C080B14601332E4609F87F
:10585000013B3D4691E52E463D466FE5F07F000851
:1058600000001C4000001440288000080080000850
:105870000000F07F12988449DDE90E2301EBC0019E
:1058800051E90201FAF776FE02460B4638464146D8
:10589000CDE90E23FBF71EF90646FAF701FE0B468B
:1058A000024641463846FAF7ADFC06F1300306469B
:1058B0001298039D01280F4605F8013B22D0129B48
:1058C000039ACDF848B01344984600226F4B3046F7
:1058D0003946FAF74FFE0F460646FBF7FBF88346BC
:1058E000FAF7DEFD02460B4630463946FAF78AFCE7
:1058F0000BF1300B05F801BB454506460F46E4D1D8
:10590000DDF848B00022DDE90E01614BFAF77CFCBE
:1059100032463B46FBF7A0F800286DD1DDE90E23A7
:1059200000205B49FAF76EFC32463B46FBF7B2F8C3
:1059300000283FF496AB15F8013CA946302B05F141
:10594000FF35F8D0149B0133089326E5189B099A7C
:10595000C3F1360316461A440C9F9944099232E467
:105960000223DDE906780E93FFF7C7BA0A9B002BE6
:105970003FF49EAE119D002D7FF773AB434B38462D
:1059800041460022FAF7F6FD0246884617460E9871
:105990000130FAF785FD3A464346FAF7EBFD00225F
:1059A0003C4BFAF731FC089AA1F15073013ACDE96A
:1059B0000E0114920F931295FFF7C2BA089B0133A0
:1059C00008933123FFF743BBB34639232E460BF828
:1059D000013B3D46C1E44FF000084546ABE54FF0C2
:1059E00000084546FFF766BBDDF854A00E9C149BEB
:1059F000A94601330893D0E4149B039A0893FFF758
:105A00001FBB7FF4E2AEDA077FF5DFAED8E6392BB5
:105A1000DAD0B9F1000F3FF7D6AED6E6294600231B
:105A20000A22204600F0A6FE119B0546002B7FF7B8
:105A3000E7AC0A93EFE4249B022B02DCCDF8209024
:105A4000F3E5119BCDF820900A9363E502230E93B2
:105A5000FFF753BA104B0393FFF715B93FF42DAC82
:105A6000C0F13C0024E4002520462946656400F08E
:105A700051FE4FF0FF3311930A93012303902595B4
:105A800020640B93FFF7EDBA288000080000244043
:105A90000000E03F00001C40F47F0008B1F90C203A
:105AA0002DE9F0410D461107804647D46B6842F45A
:105AB0000062002BAA815EDDAC6A002C58D0002366
:105AC000D8F80060C8F8003093B212F4805256D172
:105AD00001234046E969A047431C67D0AB89AC6A03
