:020000040800F2
:1000000000500020AD6A0008594100085B4100081B
:100010005D4100085F4100086141000800000000E8
:100020000000000000000000000000006341000824
:1000300065410008000000006741000869410008B0
:10004000F56A0008F56A0008F56A0008F56A000814
:10005000F56A0008F56A0008F56A0008F56A000804
:10006000F56A0008F56A0008F56A0008F56A0008F4
:10007000F56A0008F56A0008F56A0008F56A0008E4
:10008000F56A0008F56A0008F56A0008F56A0008D4
:10009000F56A0008F56A0008F56A0008F56A0008C4
:1000A000F56A0008F56A0008F56A0008F56A0008B4
:1000B000F56A0008F56A0008F56A0008F56A0008A4
:1000C000F56A0008F56A0008F56A0008F56A000894
:1000D000F56A0008F56A0008F56A0008F56A000884
:1000E000F56A0008F56A0008F56A000800000000DB
:1000F0000000000000000000000000000000000000
:0C01000000000000000000005FF808F1A3
:1001100081F0004102E000BF83F0004330B54FEAB8
:1001200041044FEA430594EA050F08BF90EA020F25
:100130001FBF54EA000C55EA020C7FEA645C7FEAB8
:10014000655C00F0E2804FEA5454D4EB5555B8BFDB
:100150006D420CDD2C4480EA020281EA030382EA4C
:10016000000083EA010180EA020281EA0303362DDE
:1001700088BF30BD11F0004F4FEA01314FF4801CB1
:100180004CEA113102D0404261EB410113F0004FC3
:100190004FEA03334CEA133302D0524263EB43037A
:1001A00094EA050F00F0A780A4F10104D5F1200E18
:1001B0000DDB02FA0EFC22FA05F2801841F1000173
:1001C00003FA0EF2801843FA05F359410EE0A5F147
:1001D00020050EF1200E012A03FA0EFC28BF4CF078
:1001E000020C43FA05F3C01851EBE37101F000452E
:1001F00007D54FF0000EDCF1000C7EEB00006EEB3B
:100200000101B1F5801F1BD3B1F5001F0CD34908C4
:100210005FEA30004FEA3C0C04F101044FEA44521B
:1002200012F5800F80F09A80BCF1004F08BF5FEAA2
:10023000500C50F1000041EB045141EA050130BD82
:100240005FEA4C0C404141EB0101013C28BFB1F594
:10025000801FE9D291F0000F04BF01460020B1FADF
:1002600081F308BF2033A3F10B03B3F120020CDAB2
:100270000C3208DD02F1140CC2F10C0201FA0CF090
:1002800021FA02F10CE002F11402D8BFC2F1200CF5
:1002900001FA02F120FA0CFCDCBF41EA0C019040AB
:1002A000E41AA2BF01EB0451294330BD6FEA0404F4
:1002B0001F3C1CDA0C340EDC04F11404C4F12002DF
:1002C00020FA04F001FA02F340EA030021FA04F3F1
:1002D00045EA030130BDC4F10C04C4F1200220FA48
:1002E00002F001FA04F340EA0300294630BD21FA86
:1002F00004F0294630BD94F0000F83F4801306BF4C
:1003000081F480110134013D4EE77FEA645C18BF3F
:100310007FEA655C29D094EA050F08BF90EA020FD6
:1003200005D054EA000C04BF1946104630BD91EACE
:10033000030F1EBF0021002030BD5FEA545C05D1D1
:100340004000494128BF41F0004130BD14F5800410
:100350003CBF01F5801130BD01F0004545F0FE4184
:1003600041F470014FF0000030BD7FEA645C1ABFB9
:10037000194610467FEA655C1CBF0B46024650EAF0
:10038000013406BF52EA033591EA030F41F400211C
:1003900030BD00BF90F0000F04BF0021704730B5A2
:1003A0004FF4806404F132044FF000054FF0000177
:1003B00050E700BF90F0000F04BF0021704730B538
:1003C0004FF4806404F1320410F0004548BF40420D
:1003D0004FF000013EE700BF42004FEAE2014FEA62
:1003E00031014FEA02701FBF12F07F4393F07F4F3D
:1003F00081F06051704732F07F4208BF704793F040
:100400007F4F04BF41F40021704730B54FF4607452
:1004100001F0004521F000411CE700BF50EA010255
:1004200008BF704730B54FF000050AE050EA0102FE
:1004300008BF704730B511F0004502D5404261EB6E
:1004400041014FF4806404F132045FEA915C3FF4AF
:10045000D8AE4FF003025FEADC0C18BF03325FEA4C
:10046000DC0C18BF033202EBDC02C2F1200300FAFD
:1004700003FC20FA02F001FA03FE40EA0E0021FA22
:1004800002F11444BDE600BF4FEA4102B2F1E0437D
:1004900024BFB3F5001CDCF1FE5C0DD901F0004C6B
:1004A0004FEAC0024CEA5070B2F1004F40EB8300BB
:1004B00008BF20F00100704711F0804F21D113F1E7
:1004C0003872BCBF01F00040704741F480114FEA20
:1004D0005252C2F11802C2F1200C10FA0CF320FAA9
:1004E00002F018BF40F001004FEAC1234FEAD323C6
:1004F00003FA0CFC40EA0C0023FA02F34FEA430330
:10050000CCE77FEA625307D150EA01331EBF4FF0B8
:10051000FE4040F44000704701F0004040F0FE40D3
:1005200040F40000704700BF80F0004002E000BFD0
:1005300081F0004142001FBF5FEA410392EA030FCE
:100540007FEA226C7FEA236C6AD04FEA1262D2EB18
:100550001363C1BFD218414048404140B8BF5B421D
:10056000192B88BF704710F0004F40F4000020F0B6
:100570007F4018BF404211F0004F41F4000121F0CC
:100580007F4118BF494292EA030F3FD0A2F1010216
:1005900041FA03FC10EB0C00C3F1200301FA03F154
:1005A00000F0004302D5494260EB4000B0F5000F77
:1005B00013D3B0F1807F06D340084FEA310102F136
:1005C0000102FE2A51D2B1F1004F40EBC25008BFE8
:1005D00020F0010040EA03007047490040EB0000B2
:1005E000013A28BFB0F5000FEDD2B0FA80FCACF1B3
:1005F000080CB2EB0C0200FA0CF0AABF00EBC250E0
:1006000052421843BCBFD0401843704792F0000FCD
:1006100081F4000106BF80F400000132013BB5E720
:100620004FEA41037FEA226C18BF7FEA236C21D096
:1006300092EA030F04D092F0000F08BF08467047FB
:1006400090EA010F1CBF0020704712F07F4F04D1C9
:10065000400028BF40F00040704712F100723CBFDC
:1006600000F50000704700F0004343F0FE4040F406
:10067000000070477FEA226216BF08467FEA2363C4
:100680000146420206BF5FEA412390EA010F40F4AF
:10069000800070474FF0000304E000BF10F00043FB
:1006A00048BF40425FEA000C08BF704743F09643E2
:1006B00001464FF000001CE050EA010208BF7047FD
:1006C0004FF000030AE000BF50EA010208BF704784
:1006D00011F0004302D5404261EB41015FEA010C99
:1006E00002BF84460146002043F0B64308BFA3F191
:1006F0008053A3F50003BCFA8CF2083AA3EBC25373
:1007000010DB01FA02FC634400FA02FCC2F1200291
:10071000BCF1004F20FA02F243EB020008BF20F0C8
:100720000100704702F1200201FA02FCC2F120022E
:1007300050EA4C0021FA02F243EB020008BF20EA23
:10074000DC7070474FF0FF0C1CEAD0521EBF1CEA51
:10075000D15392EA0C0F93EA0C0F6FD01A4480EA3F
:10076000010C400218BF5FEA41211ED04FF0006328
:1007700043EA501043EA5111A0FB01310CF0004054
:10078000B1F5000F3EBF490041EAD3715B0040EA7A
:10079000010062F17F02FD2A1DD8B3F1004F40EB4A
:1007A000C25008BF20F00100704790F0000F0CF01D
:1007B000004C08BF49024CEA502040EA51207F3AE1
:1007C000C2BFD2F1FF0340EAC250704740F40000BC
:1007D0004FF00003013A5DDC12F1190FDCBF00F0AD
:1007E00000407047C2F10002410021FA02F1C2F15B
:1007F000200200FA02FC5FEA310040F1000053EAF7
:100800004C0308BF20EADC70704792F0000F00F044
:10081000004C02BF400010F4000F013AF9D040EA4A
:100820000C0093F0000F01F0004C02BF490011F4DE
:10083000000F013BF9D041EA0C018FE70CEAD153DC
:1008400092EA0C0F18BF93EA0C0F0AD030F0004C5C
:1008500018BF31F0004CD8D180EA010000F0004010
:10086000704790F0000F17BF90F0004F084691F0CE
:10087000000F91F0004F14D092EA0C0F01D1420208
:100880000FD193EA0C0F03D14B0218BF084608D1D1
:1008900080EA010000F0004040F0FE4040F400001B
:1008A000704740F0FE4040F4400070474FF0FF0CAE
:1008B0001CEAD0521EBF1CEAD15392EA0C0F93EAF5
:1008C0000C0F69D0A2EB030280EA010C49024FEA47
:1008D000402037D04FF0805343EA111143EA101300
:1008E0000CF000408B4238BF5B0042F17D024FF4B8
:1008F000000C8B4224BF5B1A40EA0C00B3EB510F93
:1009000024BFA3EB510340EA5C00B3EB910F24BF7B
:10091000A3EB910340EA9C00B3EBD10F24BFA3EB00
:10092000D10340EADC001B0118BF5FEA1C1CE0D1C8
:10093000FD2A3FF650AF8B4240EBC25008BF20F07B
:10094000010070470CF0004C4CEA50207F32C2BFCF
:10095000D2F1FF0340EAC250704740F400004FF06C
:100960000003013A37E792F0000F00F0004C02BF9D
:10097000400010F4000F013AF9D040EA0C0093F067
:10098000000F01F0004C02BF490011F4000F013BC1
:10099000F9D041EA0C0195E70CEAD15392EA0C0F29
:1009A00008D142027FF47DAF93EA0C0F7FF470AF61
:1009B000084676E793EA0C0F04D14B023FF44CAFA4
:1009C00008466EE730F0004C18BF31F0004CCAD139
:1009D00030F000427FF45CAF31F000437FF43CAF75
:1009E0005FE700BF4FF0FF3C06E000BF4FF0010C97
:1009F00002E000BF4FF0010C4DF804CD4FEA400279
:100A00004FEA41037FEA226C18BF7FEA236C11D0C2
:100A100001B052EA530C18BF90EA010F58BFB2EB75
:100A2000030088BFC81738BF6FEAE17018BF40F0F5
:100A3000010070477FEA226C02D15FEA402C05D1A9
:100A40007FEA236CE4D15FEA412CE1D05DF8040B2E
:100A5000704700BF844608466146FFE70FB5FFF7C1
:100A6000C9FF002848BF10F1000F0FBD4DF808ED79
:100A7000FFF7F4FF0CBF012000205DF808FB00BF6A
:100A80004DF808EDFFF7EAFF34BF012000205DF8C4
:100A900008FB00BF4DF808EDFFF7E0FF94BF012011
:100AA00000205DF808FB00BF4DF808EDFFF7D2FF0E
:100AB00094BF012000205DF808FB00BF4DF808ED51
:100AC000FFF7C8FF34BF012000205DF808FB00BF1E
:100AD0004FEA40024FEA41037FEA226C02D15FEA0B
:100AE000402C08D17FEA236C02D15FEA412C02D16D
:100AF0004FF0000070474FF0010070474FEA40028E
:100B0000B2F1FE4F0FD34FF09E03B3EB12620DD93B
:100B10004FEA002343F0004310F0004F23FA02F0A5
:100B200018BF404270474FF00000704712F1610F4C
:100B300001D1420205D110F0004008BF6FF0004023
:100B400070474FF00000704742000ED2B2F1FE4FE6
:100B50000BD34FF09E03B3EB126209D44FEA00238C
:100B600043F0004323FA02F070474FF00000704753
:100B700012F1610F01D1420202D14FF0FF307047F4
:100B80004FF00000704700BF7BB972B90029BEBFAB
:100B900000204FF0004106E008BF00281CBF6FF0A6
:100BA00000414FF0FF3000F015B9ADF1080C6DE9D0
:100BB00004CE002909DB002B1ADB06F081FCDDF8EE
:100BC00004E0DDE9022304B07047404261EB4101DB
:100BD000002B1BDB06F074FCDDF804E0DDE90223EA
:100BE00004B0404261EB4101524263EB4303704762
:100BF000524263EB430306F063FCDDF804E0DDE9F9
:100C0000022304B0404261EB41017047524263EB62
:100C1000430306F055FCDDF804E0DDE9022304B0EF
:100C2000524263EB4303704700F1340191E838000E
:100C30009C46A6464CF8045D90E8FF0FE54600BDD3
:100C400090EC210B704700BF80EC210B704700BF78
:100C500090EC200B704700BF80EC200B704700BF6A
:100C6000D0EC200B704700BFC0EC200B704700BFDA
:100C7000F0EC0201F0EC0211F0EC0221F0EC023198
:100C8000F0EC0241F0EC0251F0EC0261F0EC027188
:100C9000F0EC0281F0EC0291F0EC02A1F0EC02B178
:100CA000F0EC02C1F0EC02D1F0EC02E1F0EC02F168
:100CB000704700BFE0EC0201E0EC0211E0EC022121
:100CC000E0EC0231E0EC0241E0EC0251E0EC0261C8
:100CD000E0EC0271E0EC0281E0EC0291E0EC02A1B8
:100CE000E0EC02B1E0EC02C1E0EC02D1E0EC02E1A8
:100CF000E0EC02F1704700BFB0FC0181B0FC019153
:100D0000B0FC01A1B0FC01B1704700BFA0FC0181A3
:100D1000A0FC0191A0FC01A1A0FC01B1704700BFA3
:100D2000EC4600B52DE900502DE9FF1F4FF0000300
:100D30002DE90C0001A906F075FEDDF840E012B0C7
:100D4000704700BFEC4600B52DE900502DE9FF1FAC
:100D50004FF000032DE90C0001A906F09DFEDDF81F
:100D600040E012B0704700BFEC4600B52DE90050DE
:100D70002DE9FF1F4FF000032DE90C0001A906F03B
:100D8000ADFEDDF840E012B0704700BFEC4600B5A4
:100D90002DE900502DE9FF1F4FF000032DE90C0055
:100DA00001AB06F06FFEDDF840E012B0704700BF07
:100DB000EC4600B52DE900502DE9FF1F4FF0000370
:100DC0002DE90C0001AA06F0DFFEDDF840E012B0CC
:100DD000704700BF704700BF844641EA000313F02C
:100DE000030349D1403A23D30B6803604B68436047
:100DF0008B688360CB68C3600B6903614B69436197
:100E00008B698361CB69C3610B6A03624B6A43627E
:100E10008B6A8362CB6AC3620B6B03634B6B436366
:100E20008B6B8363CB6BC36340304031403ADBD282
:100E300030320BD30B6803604B6843608B68836070
:100E4000CB68C36010301031103AF3D20C3205D3A6
:100E500051F8043B40F8043B043AF9D2043208D07C
:100E6000D2071CBF11F8013B00F8013B01D30B88EE
:100E700003806046704700BF082A13D38B07B1D0A8
:100E800010F00303AED0C3F10403D21ADB071CBF7A
:100E900011F8013B00F8013BA4D331F8023B20F8E4
:100EA000023B9FE7043AD9D3013A11F8013B00F81D
:100EB000013BF9D20B7803704B7843708B788370C9
:100EC0006046704780EA010C1CF0030F37D110F028
:100ED000030C20F0030021F0030150F8042B08BF9D
:100EE00051F8043B0ED08CF0030C6FF07F434FEAB7
:100EF000CC0C23FA0CFC51F8043B42EA0C0243EA06
:100F00000C0300BFA2F1013C9A4201BF2CEA020C83
:100F10001CF0803F50F8042B51F8043BF2D04FEA0C
:100F200002604FEA1222012828BFB0EB036F08BF0E
:100F30001B0AF4D003F0FF03000EC01A704710F034
:100F4000030F0AD010F8012B11F8013B012A28BF2A
:100F50009A42F4D0A2EB030070474DF8045D50F8BC
:100F6000042B01F0030521F0030151F8043B022D8D
:100F700026D04DD822F07F45B5EB132FA2F1013CCE
:100F80002CEA020C0DD11CF0803C08BF51F8043B48
:100F90000AD185EA0205B5EB036F0CD150F8042B9A
:100FA000E8E74FEA13235BE03CF07F4C54D10B7829
:100FB0004FEA126554E04FEA126503F0FF034FE079
:100FC0004FEA0245A2F1013C4FEA15452CEA020C1A
:100FD000B5EB134F18D11CF0803C08BF51F8043B0F
:100FE00007D185EA0205B5EB034F09D150F8042B70
:100FF000E6E75FEA0C4C2FD10B884FEA12452FE051
:101000004FEA03434FEA12454FEA134328E000BF7B
:1010100002F0FF05B5EB136FA2F1013C2CEA020CC4
:101020000DD11CF0803C08BF51F8043B0AD185EA81
:101030000205B5EB032F0AD150F8042BE8E74FEA7D
:1010400013630DE012F0FF0F06D051F8043B4FEA96
:10105000122523F07F4303E04FF0000020BC7047CF
:1010600005F0FF0203F0FF00012828BF904204BFF3
:101070002D0A1B0AF4D0A2EB000020BC704700BF71
:1010800070B54FF0FF0C4CF4E06C1CEA11541DBF1E
:101090001CEA135594EA0C0F95EA0C0F00F0DEF8E9
:1010A0002C4481EA030621EA4C5123EA4C5350EACE
:1010B000013518BF52EA033541F4801143F480131F
:1010C00038D0A0FB02CE4FF00005E1FB02E506F0B0
:1010D0000042E0FB03E54FF00006E1FB03569CF005
:1010E000000F18BF4EF0010EA4F1FF04B6F5007F0B
:1010F00064F5407404D25FEA4E0E6D4146EB06067D
:1011000042EAC62141EA55514FEAC52040EA5E5005
:101110004FEACE2EB4F1FD0C88BFBCF5E06F1ED8AF
:10112000BEF1004F08BF5FEA500E50F1000041EBE6
:10113000045170BD06F0004646EA010140EA020093
:1011400081EA0301B4EB5C04C2BFD4EB0C0541EAB5
:10115000045170BD41F480114FF0000E013C00F3CA
:10116000AB8014F1360FDEBF002001F0004170BDEE
:10117000C4F10004203C35DA0C341BDC04F1140407
:10118000C4F1200500FA05F320FA04F001FA05F293
:1011900040EA020001F0004221F0004110EBD37060
:1011A00021FA04F642EB06015EEA430E08BF20EA8C
:1011B000D37070BDC4F10C04C4F1200500FA04F32F
:1011C00020FA05F001FA04F240EA020001F00041C1
:1011D00010EBD37041F100015EEA430E08BF20EA34
:1011E000D37070BDC4F1200500FA05F24EEA020E7C
:1011F00020FA04F301FA05F243EA020321FA04F0AB
:1012000001F0004121FA04F220EA020000EBD37061
:101210005EEA430E08BF20EAD37070BD94F0000F61
:101220000FD101F00046400041EB010111F4801F95
:1012300008BF013CF7D041EA060195F0000F18BF46
:10124000704703F00046520043EB030313F4801F82
:1012500008BF013DF7D043EA0603704794EA0C0F3C
:101260000CEA135518BF95EA0C0F0CD050EA410652
:1012700018BF52EA4306D1D181EA030101F00041CF
:101280004FF0000070BD50EA410606BF10461946F7
:1012900052EA430619D094EA0C0F02D150EA013603
:1012A00013D195EA0C0F05D152EA03361CBF104644
:1012B00019460AD181EA030101F0004141F0FE41E3
:1012C00041F470014FF0000070BD41F0FE4141F467
:1012D000780170BD70B54FF0FF0C4CF4E06C1CEA67
:1012E00011541DBF1CEA135594EA0C0F95EA0C0F1C
:1012F00000F0A7F8A4EB050481EA030E52EA0335D7
:101300004FEA013100F088804FEA03334FF08055F7
:1013100045EA131343EA12634FEA022245EA111524
:1013200045EA10654FEA00260EF000419D4208BFD5
:10133000964244F1FD0404F5407402D25B084FEA82
:101340003202B61A65EB03055B084FEA32024FF42E
:1013500080104FF4002CB6EB020E75EB030E22BF8B
:10136000B61A754640EA0C005B084FEA3202B6EB4B
:10137000020E75EB030E22BFB61A754640EA5C00FA
:101380005B084FEA3202B6EB020E75EB030E22BF8A
:10139000B61A754640EA9C005B084FEA3202B6EB8B
:1013A000020E75EB030E22BFB61A754640EADC004A
:1013B00055EA060E18D04FEA051545EA16754FEAAC
:1013C00006164FEAC30343EA52734FEAC2025FEACA
:1013D0001C1CC0D111F4801F0BD141EA00014FF059
:1013E00000004FF0004CB6E711F4801F04BF01432A
:1013F0000020B4F1FD0C88BFBCF5E06F3FF6AFAE46
:10140000B5EB030C04BFB6EB020C5FEA500C50F1D5
:10141000000041EB045170BD0EF0004E4EEA113158
:1014200014EB5C04C2BFD4EB0C0541EA045170BD5F
:1014300041F480114FF0000E013C90E645EA060EA3
:101440008DE60CEA135594EA0C0F08BF95EA0C0FD1
:101450003FF43BAF94EA0C0F0AD150EA01347FF419
:1014600034AF95EA0C0F7FF425AF104619462CE7F0
:1014700095EA0C0F06D152EA03353FF4FDAE104653
:10148000194622E750EA410618BF52EA43067FF4A4
:10149000C5AE50EA41047FF40DAF52EA43057FF434
:1014A000EBAE12E74FF0FF3C06E000BF4FF0010C3F
:1014B00002E000BF4FF0010C4DF804CD4FEA410CA3
:1014C0007FEA6C5C4FEA430C18BF7FEA6C5C1BD070
:1014D00001B050EA410C0CBF52EA430C91EA030FF1
:1014E00002BF90EA020F0020704710F1000F91EA4E
:1014F000030F58BF994208BF90422CBFD8176FEA1C
:10150000E37040F0010070474FEA410C7FEA6C5CE9
:1015100002D150EA013C07D14FEA430C7FEA6C5CF0
:10152000D6D152EA033CD3D05DF8040B704700BF1C
:101530008446104662468C461946634600E000BF6A
:1015400001B5FFF7B7FF002848BF10F1000F01BD3C
:101550004DF808EDFFF7F4FF0CBF012000205DF807
:1015600008FB00BF4DF808EDFFF7EAFF34BF01208C
:1015700000205DF808FB00BF4DF808EDFFF7E0FF25
:1015800094BF012000205DF808FB00BF4DF808ED76
:10159000FFF7CEFF94BF012000205DF808FB00BFDD
:1015A0004DF808EDFFF7C4FF34BF012000205DF8BF
:1015B00008FB00BF4FEA410C7FEA6C5C02D150EAA5
:1015C000013C0AD14FEA430C7FEA6C5C02D152EA3B
:1015D000033C02D14FF0000070474FF0010070470C
:1015E0004FEA410212F5001215D211D56FF478734B
:1015F000B3EB625212D94FEAC12343F0004343EAEE
:10160000505311F0004F23FA02F018BF40427047C8
:101610004FF00000704750EA013005D111F0004052
:1016200008BF6FF0004070474FF00000704700BFE8
:1016300053B94AB9002908BF00281CBF4FF0FF3139
:101640004FF0FF30FFF7C6BBADF1080C6DE904CEDB
:1016500005F036FFDDF804E0DDE9022304B0704751
:1016600010B5054C237833B9044B13B10448AFF3DC
:1016700000800123237010BD000A0020000000003C
:1016800010D7000808B5034B1BB103490348AFF35B
:10169000008008BD00000000040A002010D70008E8
:1016A00038B50C1E13DB114D01224FF400512846B2
:1016B00003F084FA00224FF48051284603F07EFAAA
:1016C0000B4B1B68002CB8BF64421C6438BD074D2F
:1016D00000224FF40051284603F070FA01224FF423
:1016E0008051284603F06AFAEAE700BF000C014087
:1016F000EC0A002038B50C1E13DB114D01224FF40B
:101700008041284603F05AFA00224FF4004128464F
:1017100003F054FA0B4B1B68002CB8BF6442DC6327
:1017200038BD074D00224FF48041284603F046FAA9
:1017300001224FF40041284603F040FAEAE700BFD7
:10174000000C0140EC0A002010B584B00A24029479
:101750000192009301230A4600FA03F1024803F0C4
:1017600059FD04B010BD00BF940A002010B584B02C
:101770000A2402940192009301230A4600FA03F11D
:10178000024803F0F9FD04B010BD00BF940A002028
:10179000F0B583B004460D4616461F460DF107030B
:1017A0000122FFF7E3FF8FB1012202FA06F69DF84E
:1017B00007203243D2B28DF807200DF10703012232
:1017C00029462046FFF7C0FF03B0F0BD0122B2401A
:1017D0009DF8073023EA0202EDE7F0B583B0054635
:1017E0000E4614461F460DF107030122FFF7BEFF08
:1017F00008B103B0F0BD012202FA07F10139E41B80
:10180000144401FA04F39DF8201001FA04F4E4B240
:101810009DF807100B4023438DF807300DF10703A7
:1018200031462846FFF790FFE3E70000F0B583B0AC
:1018300007462A4B586801AB04220D210078FFF7B8
:1018400095FF002848D104469DF80420D21002F0EC
:101850001C029DF80710C1F301131A438DF80020F4
:101860009DF80520D21002F01C02C1F381031A4337
:101870008DF801209DF80630DB1003F01C0301F009
:1018800003010B438DF8023016E007EB8405144B7F
:1018900047F8243004E013492868FEF753FF286016
:1018A00002AB9A1912F8083C013BDBB202F8083C83
:1018B000002BF0D10134E4B2022C0AD8264602AB48
:1018C000234413F8083C002BDFD1002347F82430D1
:1018D000F0E7002003B0F0BD0720FBE70000002088
:1018E0007B14AE3E1D5A843F2DE9F04385B08146FE
:1018F000884601A8FFF79AFF00273C460DE02049E3
:101900003046FFF7BDF820B91E493046FFF7D6F83C
:1019100010B10123A3401F430134022C2CDCA5008D
:1019200059F8240058F82430C01A0028B8BF4042A3
:10193000FEF7B4FE4FF05E51FEF704FF064604AB1F
:101940001D4455F80C5C00212846FFF78FF800284D
:10195000D5D129463046FEF7A9FF4FF07E51FEF75C
:10196000E7FD20F000400849FFF7A8F80028D3D091
:101970000123A3401F43CFE7384605B0BDE8F083FD
:101980009A99993E3333733F295C0F3E2DE9F0411C
:1019900082B007468846364B586801AB03220D21BA
:1019A0000078FFF7E3FE00285CD19DF8043003F0D7
:1019B0001F038DF804309DF8053003F01F038DF8E8
:1019C00005309DF8063003F01F038DF80630002621
:1019D000344624E02749FEF7B5FE02AB1A1912F887
:1019E000043C013BDBB202F8043C002BF2D101467F
:1019F0002846FEF75BFF4FF07E51FEF799FD20F081
:101A000000401D49FFF75AF840B10123A3401E438F
:101A100004E01A48E1E70123A3401E430134022CED
:101A200021DC57F8240058F82430C01A0028B8BF29
:101A30004042FEF733FE4FF05E51FEF783FE05464F
:101A400002AB234413F8043C002BE2D10C49FFF70E
:101A500017F80028DFD10B492846FFF72FF8002898
:101A6000DCD0D8E70726304602B0BDE8F08100BFE1
:101A70000000002054E3853F295C0F3E0000C84170
:101A8000000020410000D24200B583B0234B93F800
:101A90002430CBB1A0B102238DF807301F4B58681A
:101AA00019680DF107030122497C0078FFF74CFE0D
:101AB00048BB9DF80720194B5A7403B05DF804FB2E
:101AC00000238DF80730E9E7144B9B7AF3B110B18E
:101AD000124B5B7CEBB990B101238DF807300F4BB3
:101AE000586819680DF107030122497C0078FFF757
:101AF0002BFE80B99DF80720084B5A74DDE70023C0
:101B00008DF80730EBE74FF0FF30D6E74FF0FF30AE
:101B1000D3E70020D1E74FF0FF30CEE700000020F0
:101B20002DE9F04385B004460D46164601238DF895
:101B3000043000238DF80530AC4B5868196801ABB0
:101B40000222497D0078FFF7FFFD002840F0DD818B
:101B5000C82002F067FD00238DF80430A34B5868BD
:101B6000196801AB0122497C0078FFF7EDFD0028E0
:101B700040F0CE819D4B5868196801AB012249792C
:101B80000078FFF7E1FD002840F0C581974B5868C9
:101B9000196801AB0122497D0078FFF7D5FD0028C7
:101BA00040F0BC81914B5868196801AB0122897ED5
:101BB0000078FFF7C9FD002840F0B3818B4B5868CF
:101BC000196801AB012209790078FFF7BDFD0028F3
:101BD00040F0AA810C238DF80430844B58681968B2
:101BE00001AB012209790078FFF7AEFD002840F033
:101BF0009E810F2002F016FD7C4B9A6A527A8DF876
:101C000004205868196801AB012289780078FFF731
:101C10009BFD002840F08E81744B9A6A127A8DF8F1
:101C200004205868196801AB012249780078FFF751
:101C30008BFD002840F08181002E00F0C8806B4BA6
:101C40009B6A9B7A63F01F038DF80430674B5868DA
:101C5000196801AB012289790078FFF775FD00282A
:101C600040F06E81002E00F0B880604B9B6ADB7AFA
:101C700063F01F038DF804305C4B5868196801ABA2
:101C80000122C9790078FFF75FFD002840F05B81F1
:101C9000002E40F0A68040238DF80430534B586846
:101CA000196801AB012209790078FFF74DFD002882
:101CB00040F04C8178238DF804304C4B58681968FB
:101CC00001AB012249790078FFF73EFD002840F082
:101CD0004081322002F0A6FC00238DF80430434BF3
:101CE0005868196801AB012249790078FFF72CFD8B
:101CF000002840F031813D4B5868196801AB022241
:101D0000097B0078FFF732FD0646002840F0278166
:101D10009DF804309DF8057047EA0327344BA3FB78
:101D20000737C7F3C7070023A36063602360AB6076
:101D30006B602B60BE425DD22C4B5868196801ABBA
:101D40000C22497B0078FFF711FD002840F00A8142
:101D50009DF804309DF8051041EA032109B29DF871
:101D600006309DF8072042EA032212B29DF80800CF
:101D70009DF8093043EA00231BB22868014429601A
:101D800069680A446A60AA681344AB609DF80A3027
:101D90009DF80B2042EA032212B29DF80C309DF808
:101DA0000D1041EA032109B29DF80E009DF80F3095
:101DB00043EA00231BB22068024422606268114497
:101DC0006160A2681344A3600136F6B2B2E7074B24
:101DD0009B6A9B7A8DF8043038E718238DF804301D
:101DE0004AE7C82002F01EFC55E700BF00000020B3
:101DF000ABAAAAAA21688322002308040914FEF7CB
:101E0000C3FEFEB2002732463B46FEF7BDFE206011
:101E100061688322002308040914FEF7B5FE3246E8
:101E20003B46FEF7B1FE6060A168832200230804F0
:101E30000914FEF7A9FE32463B46FEF7A5FEA06058
:101E40002B684FEA03484FEA2349B8F1000F79F1B4
:101E500000033ADB4FEAD82032463B4640EA49507D
:101E60004FEAE921FEF790FE28606B684FEA0348CD
:101E70004FEA2349B8F1000F79F100032EDB4FEA56
:101E8000D82032463B4640EA49504FEAE921FEF766
:101E90007BFE6860AB684FEA03484FEA2349B8F11C
:101EA000000F79F1000322DB4FEAD82032463B468F
:101EB00040EA49504FEAE921FEF766FE00281FDD9F
:101EC000A0F58030A86000204EE040F2FF7318EBD0
:101ED00003084FF0000349EB0309BBE740F2FF732F
:101EE00018EB03084FF0000349EB0309C7E740F282
:101EF000FF7318EB03084FF0000349EB0309D3E726
:101F000000F58030A86000202EE04FF0FF302BE07D
:101F10004FF0FF3028E04FF0FF3025E04FF0FF306A
:101F200022E04FF0FF301FE04FF0FF301CE04FF099
:101F3000FF3019E04FF0FF3016E04FF0FF3013E0B4
:101F40004FF0FF3010E04FF0FF300DE04FF0FF306A
:101F50000AE04FF0FF3007E04FF0FF3004E04FF0B1
:101F6000FF3001E04FF0FF3005B0BDE8F08300BF67
:101F70007C4B9B7A002B00F0D48000B583B000230B
:101F80008DF80730774B586819680DF10703012267
:101F9000497C0078FFF7D8FB002840F0C580714BE2
:101FA000586819680DF10703012249790078FFF795
:101FB000CBFB002840F0BB806A4B586819680DF1D4
:101FC0000703012209790078FFF7BEFB002840F0E3
:101FD000B180644B93F82430002B52D00C238DF841
:101FE0000730604B586819680DF107030122097921
:101FF0000078FFF7A9FB002840F09F80322002F014
:1020000011FBC0238DF80730564B9B7A13F0010F5C
:1020100002D0E0238DF80730524B586819680DF153
:102020000703012209790078FFF78EFB002840F0B2
:1020300087804C4B5B7C03B302238DF80730494B00
:10204000586819680DF107030122497C0078FFF7F1
:102050007BFB002877D100238DF80730414B58686F
:1020600019680DF10703012249790078FFF76CFB2D
:1020700000286BD103B05DF804FB00238DF8073016
:10208000DDE704238DF80730364B586819680DF1E9
:102090000703012209790078FFF756FB002858D181
:1020A000304B9B7C23B92F4B9B7A13F0010F30D11F
:1020B00040238DF807302B4B586819680DF1070342
:1020C000012209790078FFF73FFB002844D1322034
:1020D00002F0A8FA234B5B7CFBB101238DF807309B
:1020E000204B586819680DF107030122497C0078DC
:1020F000FFF72AFB98BB1B4B586853F8101B0122B3
:1021000049790078FFF720FB0028B3D04FF0FF306B
:10211000B0E760238DF80730CDE700238DF8073056
:10212000DEE74FF0FF3070474FF0FF30A2E74FF08F
:10213000FF309FE74FF0FF309CE74FF0FF3099E70B
:102140004FF0FF3096E74FF0FF3093E74FF0FF304E
:1021500090E74FF0FF308DE74FF0FF308AE74FF008
:10216000FF3087E7000000200D4B1B7A032B13D8AC
:10217000DFE803F002060A0EFA230380002070470E
:102180004FF4FA730380F9E74FF47A730380F5E7AD
:102190004FF4FA630380F1E700230380EEE700BF0A
:1021A00000000020244B9B7A002B3CD000B583B06C
:1021B000B0F57A7F33D00BD8FA2813D0B0F5FA7F78
:1021C00003D108238DF807300FE04FF0FF3023E0F4
:1021D000B0F5FA6F03D118238DF8073005E04FF002
:1021E000FF3019E000238DF80730134B1B7A9DF860
:1021F0000720B3EBD20F19D00F4B586819680DF1B7
:102200000703012289790078FFF79EFA80B99DF8CB
:102210000730DB08084A137203B05DF804FB102393
:102220008DF80730E1E74FF0FF3070470020F3E70B
:102230004FF0FF30F0E700BF000000200F4B5B7A4B
:10224000032B16D8DFE803F0020C0F1202230370F1
:102250000A4BDB7C83B103785B000370002070477E
:1022600004230370F4E708230370F1E710230370DD
:10227000EEE74FF0FF30704700207047000000206D
:10228000234B9B7A002B37D000B583B002380E2841
:1022900035D8DFE800F008342534343429343434B8
:1022A000343434342D0000238DF80730184B5B7A1A
:1022B0009DF80720B3EBD20F24D0154B586819684E
:1022C0000DF107030122C9790078FFF73DFAD8B96B
:1022D0009DF80730DB080E4A537203B05DF804FB2B
:1022E00008238DF80730E1E710238DF80730DDE78C
:1022F00018238DF80730D9E74FF0FF3070474FF0C3
:10230000FF30EAE70020E8E74FF0FF30E5E700BFE5
:10231000000000200F4BDB7A013B052B17D8DFE8CC
:1023200003F003070A0D1013BC230380002070473D
:1023300062230380FAE72A230380F7E7142303804C
:10234000F4E70A230380F1E705230380EEE7002387
:102350000380EBE700000020234B9B7A002B3AD050
:1023600000B583B0BB281AD901238DF807301E4B66
:10237000DA7A9DF807309A4230D01B4B58681968BA
:102380000DF10703012289780078FFF7DDF938BBEA
:102390009DF80720144BDA7203B05DF804FB612846
:1023A00003D902238DF80730E1E7292803D9032355
:1023B0008DF80730DBE7132803D904238DF80730A5
:1023C000D5E7092803D905238DF80730CFE7062381
:1023D0008DF80730CBE74FF0FF3070470020DBE788
:1023E0004FF0FF30D8E700BF00000020054B93F806
:1023F000243023B9034BDB890380002070474FF062
:10240000FF307047000000200D4B1B7A032B13D8C0
:10241000DFE803F002060A0E0A4B03600020704753
:10242000094B036000207047084B03600020704791
:10243000074B0360002070474FF0FF30704700BF2C
:1024400000000020000003430000834233330342B6
:1024500033338341114B5B7A032B1AD8DFE803F047
:10246000020D11154FF4804303800C4BDB7C9BB1B4
:1024700003885B0803800020704741F69C7303804B
:10248000F3E74FF480530380EFE74FF400630380DA
:10249000EBE74FF0FF30704700207047000000204E
:1024A000024B1B7C03700020704700BF000000201F
:1024B00070B5174B93F824302BBB00F0FE04144B7F
:1024C0009B7A13B3124A167C23401374A3420BD099
:1024D0004FF0FF3514B90E4B1B7D3BB10120FFF7C8
:1024E000D3FA3CB9284670BD0025F3E70020FFF77A
:1024F000CBFAF6E7FFF73CFD0028F3D0044B1E743F
:102500004FF0FF35EEE70025ECE74FF0FF35E9E748
:10251000000000202E4B93F82430002B49D0F0B55A
:1025200083B005460F461646294B9B7A002B43D0B5
:10253000274B5868196801AB0222097B0078FFF726
:1025400015F900283BD19DF804009DF8054044EAA8
:102550000024AC4223D31E4B58684388B4EB530F7E
:102560000DD91B4B196801AB0122C97C0078FFF71C
:10257000FDF838BB9DF8043013F0100F14D1144B44
:10258000586819683B46EAB2497B0078FFF7EEF8D5
:10259000D8B9B4FBF5F4013C347003B0F0BD0023AE
:1025A00033704FF0FF30F8E7FFF7E2FC6FF0010007
:1025B000F3E74FF0FF3070474FF0FF30EDE74FF09B
:1025C000FF30EAE74FF0FF30E7E74FF0FF30E4E796
:1025D00000000020584B9B7C834200F09C8010B58B
:1025E00082B00446002844D0534B586819680DF156
:1025F0000703012209790078FFF7B8F8002840F0B6
:102600008C809DF8073023F020038DF807304A4B6B
:10261000586819680DF10703012209790078FFF75E
:1026200093F800287CD1032001F0FCFF02238DF8F1
:102630000730414B93F8223013B182238DF80730D5
:102640003D4B93F823302BB19DF8073043F0300316
:102650008DF80730384B586819680DF107030122CF
:10266000C97D0078FFF770F8002844D04FF0FF30A4
:1026700044E0314B586819680DF1070301220979CC
:102680000078FFF773F800284DD12B4B9B7A13F09D
:10269000010F35D09DF8073043F020038DF8073047
:1026A000254B586819680DF1070301220979007854
:1026B000FFF74AF8002839D1032001F0B3FF1E4B81
:1026C00093F822301BB380238DF807301A4B93F810
:1026D00023302BB19DF8073043F030038DF80730DD
:1026E000154B586819680DF107030122C97D007860
:1026F000FFF72AF8E8B9104B9C74002002B010BD17
:102700009DF8073023F020038DF80730C8E7002339
:102710008DF80730DAE7002070474FF0FF30EDE723
:102720004FF0FF30EAE74FF0FF30E7E74FF0FF30C0
:10273000E4E74FF0FF30E1E7000000201B4B93F887
:10274000233083422DD010B582B0044628B3302305
:102750008DF80730154B9B7C2BB19DF8073043F06B
:1027600002038DF80730114B93F822302BB19DF8FE
:10277000073063F07F038DF807300C4B58681968F9
:102780000DF107030122C97D0078FEF7DDFF50B986
:10279000064B83F8234002B010BD00238DF80730AC
:1027A000D8E7002070474FF0FF30F4E7000000202A
:1027B00028285FD810B582B00446B8B90020FFF7CA
:1027C000BDFF00238DF8043007238DF805302E4B14
:1027D0005868196801AB0222497D0078FEF7B4FF02
:1027E00000284AD1284B187502B010BD0120FFF710
:1027F000A5FF20238DF80430012C26D0052C2BD9E1
:10280000142C30D802238DF805300A20FFF7A4FDE0
:102810009DF805309B0143F007038DF805301A4BF6
:102820005868196801AB0222497D0078FEF78CFFD9
:1028300030BB154B08229A7200241C7301221A75B2
:102840002046FFF735FE2046CEE700238DF8053001
:102850000520FFF781FDDBE701238DF8053005201A
:10286000FFF77AFDD4E703238DF805301420FFF736
:1028700073FDCDE74FF0FF3070474FF0FF30B3E707
:102880004FF0FF30B0E700BF00000020264B9B7ADE
:10289000002B40D010B582B00446234B93F824306F
:1028A000002B3BD1204B1B7D33B1431E9BB2272B0A
:1028B0000AD90020FFF77CFF032C0AD9B4F57A7FF0
:1028C00008D94FF47A7405E0C0B2FFF771FF002019
:1028D0001FE004244FF47A7090FBF4F4013C8DF86F
:1028E0000740114B586819680DF107030122497818
:1028F0000078FEF729FFA0B99DF80700431C4FF4AC
:102900007A7090FBF3F0084BD8814008FFF724FD64
:10291000002002B010BD4FF0FF3070474FF0FF3085
:10292000F7E74FF0FF30F4E70000002010B582B069
:10293000044610F0700F50D001238DF80730334B50
:10294000586819680DF107030122497D0078FEF7E8
:10295000FBFE00284AD19DF8073003F0BF032B4A45
:10296000137300238DF8073014F0400F02D10423B5
:102970008DF8073014F0200F05D19DF8073043F093
:1029800002038DF8073014F0100F05D19DF80730C1
:1029900043F001038DF8073014F0080F05D19DF8BE
:1029A000073043F038038DF80730184B5868196822
:1029B0000DF107030122897D0078FEF7C5FED8B925
:1029C0000CB1082C1ED1114B9C7200241C753220B6
:1029D00001F028FE204602B010BD18B100238DF88A
:1029E0000730ACE740238DF80730A8E7074B0022FB
:1029F0009A724FF0FF30EEE7044B00229A724FF0CC
:102A0000FF30E8E70020FFF799FEDCE70000002038
:102A100010B582B080238DF80030624B5868196879
:102A20006B460122497D0078FEF78EFE002840F0BB
:102A30009480642001F0F6FD00238DF80030594B9E
:102A4000586819686B460122497D0078FEF77CFEC4
:102A5000002840F08580534B586819686B46062261
:102A6000497E0078FEF782FE00287CD19DF8053073
:102A70009B0003F004029DF803305B0003F00203A7
:102A800013439DF9012002F0010213434CD0012BA6
:102A900046D0022B6AD1434B0022DA74414BFF220D
:102AA0009A721A725A72DA724FF6FF71D9811A74D9
:102AB0009A7401221A7383F82220002283F82320BB
:102AC0005A751A75C3F81620C3F81A20C3F81E20C9
:102AD00083F8242083F82520DA844FF4FA60FFF786
:102AE00061FB00284BD10220FFF7CAFB002849D127
:102AF0002A20FFF731FC002847D13220FFF7C6FE1D
:102B0000002845D1FFF7D4FC002844D1FFF762FD2F
:102B10000446002842D1FFF709FF204602B010BD4D
:102B2000204B0122DA74B9E71E4B586819686B46CE
:102B30000122C9780078FEF719FED0B99DF800305F
:102B400013F00F0318D0042B03D0164B0022DA74B5
:102B5000A4E7144B0122DA74A0E74FF0FF34DCE75E
:102B60004FF0FF34D9E74FF0FF34D6E74FF0FF3492
:102B7000D3E74FF0FF34D0E74FF0FF34CDE74FF00D
:102B8000FF34CAE74FF0FF34C7E74FF0FF34C4E724
:102B90004FF0FF34C1E74FF0FF34BEE74FF0FF3492
:102BA000BBE700BF000000203AB370B582B00C460E
:102BB0001646194B9B7A1BB3030A8DF80430C0B23A
:102BC0008DF805000844144B5D686B8998421ADC47
:102BD000114B196801AB0222C97E2878FEF7B4FDBB
:102BE000A0B90D4B586819683346E2B2097E0078E7
:102BF000FEF7AAFD68B902B070BD4FF0FF30704714
:102C00004FF0FF30F7E74FF0FF30F4E74FF0FF30C1
:102C1000F1E74FF0FF30EEE7000000203AB370B567
:102C200082B00C461646194B9B7A1BB3030A8DF8EB
:102C30000430C0B28DF805000844144B5D686B8900
:102C400098421ADC114B196801AB0222C97E287820
:102C5000FEF77AFDA0B90D4B586819683346E2B209
:102C6000097E0078FEF782FD68B902B070BD4FF0B2
:102C7000FF3070474FF0FF30F7E74FF0FF30F4E7D9
:102C80004FF0FF30F1E74FF0FF30EEE7000000209B
:102C90002DE9F04F87B09A462A4B93F82530002B48
:102CA00040D107468846914600293ED0002401E0E5
:102CB0002C44A4B2BC421CD23E1B102EA8BF10262E
:102CC000B5B208EB040B5A4629462046FFF76CFFC5
:102CD00070BB02AA29462046FFF7A0FF58BB2A4630
:102CE00002A9584605F078FE0028E1D06FF00100F7
:102CF00015E04FEA19238DF804308DF80590114B3B
:102D00005868196801AB0222497F0078FEF71CFD64
:102D1000A0B90C4B012283F82520A3F826A007B008
:102D2000BDE8F08F4FF0FF30F9E74FF0FF30F6E7E6
:102D30004FF0FF30F3E74FF0FF30F0E74FF0FF3098
:102D4000EDE700BF00000020234B93F824308342BE
:102D50003CD030B583B018B31F4B93F82530002B0F
:102D600036D00020FEF790FE0020FFF733FC1A4D0E
:102D7000E88CFFF78BFD00248DF8074068680DF1A3
:102D80000703012223210078FEF7DEFC012085F8ED
:102D90002400FEF779FEFFF7EBF8204603B030BDC4
:102DA0000020FEF771FE0C4D2B7C8DF80730686813
:102DB0000DF10703012223210078FEF7C5FC002452
:102DC00085F82440FFF7D4F82046E7E70020704755
:102DD0004FF0FF30E2E700BF000000202DE9F04196
:102DE00088B005460E46384B93F82470FFB901A809
:102DF000FFF7BAF90DF10700FFF720FA6846FFF771
:102E000089FA0DF10200FFF7F1FA2F4B93F80A80CF
:102E10000DF10600FFF744FB0024012C0CDC00221E
:102E200031462846FEF77CFE30B10134F5E700203C
:102E3000FFF78AFF0127DAE7022C14D00024012CC7
:102E400007DC012202A905A8FEF76AFE08B10134D9
:102E5000F5E7022C07D002A93046FEF745FD05A98B
:102E60002846FEF793FD002231462846FEF758FE1D
:102E7000154BFF221A725A72DA724FF6FF71D9811E
:102E80009A721A7401221A73BDF80400FFF78AF9C6
:102E90009DF80700FFF7F4F9BDF80000FFF75CFAB2
:102EA000BDF80200FFF7F2FC4046FFF73FFD9DF83A
:102EB0000600FFF7FDFA1FB9072008B0BDE8F08152
:102EC0000120FFF741FFF7E70000002038B5044676
:102ED000C578437813F0010F09D005F03F00C00812
:102EE00005F007010131074B1B6803B19847637870
:102EF00013F0080F04D0034B5B680BB1A809984787
:102F0000002038BD1C0A002008B5C8234FF4806299
:102F1000024940F6F630FFF7BBFE08BDB4D7000803
:102F200010B586B004464A4B1B68ADF80C301B0C3C
:102F30008DF80E30474B1B68ADF808301B0C8DF830
:102F40000A30454B1B68ADF804301B0C8DF8063079
:102F5000424B1B68ADF800301B0C8DF8023000F0BE
:102F6000030106AB194411F80C3C8DF81430C0F382
:102F7000C10206AB1A4412F80C3C8DF81530C0F3B0
:102F8000811306A8034413F80C0C8DF8160011F8F1
:102F9000101C8DF8101012F8102C8DF8112013F859
:102FA000103C8DF8123005AA032140F22640FFF7AD
:102FB000FBFD002840D104AA032140F22A40FFF77C
:102FC000F3FD00283BD1019BADF814301B0C8DF8AC
:102FD0001630009BADF810301B0C8DF8123014F039
:102FE000040F05D037238DF8143027238DF81030C7
:102FF00014F0200F05D057238DF8153047238DF896
:10300000113014F4807F05D077238DF816306723B4
:103010008DF8123005AA03214FF48860FFF7C4FD34
:1030200080B904AA032140F23140FFF7BDFD60B929
:103030000B4B1C8106B010BD4FF0FF30FAE74FF08C
:10304000FF30F7E74FF0FF30F4E74FF0FF30F1E7E4
:103050007CD7000880D7000884D7000888D70008EC
:103060001C0A0020F0B585B03F4B1B8903F003021A
:1030700050F82220019213F0040F01D05242019225
:10308000C3F3C10250F82220029213F0200F01D0A6
:1030900052420292C3F3811250F82220039213F499
:1030A000807F01D052420392019AD117DFF8BCC051
:1030B000A2FB0C230CFB0133910F41EA8301029A1E
:1030C000D517A2FB0C230CFB0533940F44EA8304B1
:1030D000039AD717A2FB0C230CFB0733950F45EA85
:1030E00083050B0E8DF80030C1F307438DF80130D6
:1030F000C1F307238DF802308DF803106A460421CE
:103100004FF47470FFF750FD40BB230E8DF8003074
:10311000C4F307438DF80130C4F307238DF8023060
:103120008DF803406A4604214FF47570FFF73CFDAB
:10313000B8B92B0E8DF80030C5F307438DF8013078
:10314000C5F307238DF802308DF803506A46042139
:103150004FF47670FFF728FD05B0F0BD4FF0FF305B
:10316000FAE74FF0FF30F7E71C0A002009E3CA0234
:10317000F0B589B004460DF10600FFF76BF9BDF814
:103180000620D303344A128902F0030154F82110B7
:10319000059112F0040F01D049420591C2F3C1011B
:1031A00054F82110069112F0200F01D049420691E7
:1031B000C2F3811154F82110079112F4807F01D0DD
:1031C000494207910598C517A0FB030103FB0511B0
:1031D000840F44EA81040698C717A0FB030103FB90
:1031E0000711820F42EA81020798C717A0FB03016B
:1031F00003FB0711830F43EA8103210E8DF80810AA
:10320000C4F307418DF80910C4F307218DF80A10A3
:103210008DF80B40110E8DF80C10C2F307418DF89C
:103220000D10C2F307218DF80E108DF80F201A0E25
:103230008DF81020C3F307428DF81120C3F3072245
:103240008DF812208DF8133002AA0C214FF425704E
:10325000FFF7AAFC09B0F0BD1C0A002010B586B02B
:103260000446164B93E8070006AB03E90700C82C99
:103270001AD8C82393FBF4F3013B1A0E8DF80420EF
:103280008DF8053001AA022140F21620FFF78CFCD0
:1032900068B903AA0C2140F6C120FFF785FC48B9A4
:1032A000074B9C8106B010BD4FF0FF30FAE74FF09E
:1032B000FF30F7E74FF0FF30F4E700BF8CD700088E
:1032C0001C0A002070B582B0044610F0070F00F011
:1032D000AC800846B1F5C86F00F2AA80FDF7DAF9B4
:1032E0005B49FDF7E3FA05460DF10300FEF7A6FF83
:1032F0009DF80330023B0E2B00F29D80DFE803F0C7
:10330000089B2C9B9B9B3C9B9B9B9B9B9B9B4C0058
:103310004FF08D412846FDF715FAFDF715FC86B2F2
:103320004C492846FDF70EFAFDF70EFC80B2330A31
:103330008DF804308DF80560030A8DF806308DF89D
:10334000070014F0010F37D114F0020F48D114F028
:10335000040F58D1002070E04FF08C412846FDF753
:10336000F1F9FDF7F1FB86B23B492846FDF7EAF992
:10337000FDF7EAFB80B2DAE74FF08B412846FDF714
:10338000E1F9FDF7E1FB86B234492846FDF7DAF9A9
:10339000FDF7DAFB80B2CAE74FF08A412846FDF715
:1033A000D1F9FDF7D1FB86B22D492846FDF7CAF9C0
:1033B000FDF7CAFB80B2BAE701AA02214FF4EA7016
:1033C000FFF7F2FB00283AD10DF1060202214FF47B
:1033D0009270FFF7E9FB0028B6D04FF0FF302CE0E9
:1033E00001AA02214FF4EC70FFF7DEFB50BB0DF198
:1033F000060202214FF49470FFF7D6FB0028A6D0F6
:103400004FF0FF3019E001AA02214FF4EE70FFF7F0
:10341000CBFBD0B90DF1060202214FF49670FFF7F5
:10342000C3FB50B14FF0FF3007E04FF0FF3004E036
:103430004FF0FF3001E04FF0FF3002B070BD4FF0B1
:10344000FF30FAE74FF0FF30F7E74FF0FF30F4E7D7
:1034500000004843000040460000C04500004045D1
:103460000000C04400B583B000238DF8073010F091
:10347000010F02D030238DF8073010F0020F05D075
:103480009DF8073043F00C038DF8073010F0040F5F
:1034900005D09DF8073043F003038DF807300DF198
:1034A000070201214FF4A470FFF77EFB03B05DF823
:1034B00004FB00B583B020B10346042802D90423DD
:1034C00000E00123013B8DF807300DF107020121D7
:1034D00040F24F10FFF768FB03B05DF804FB0000FB
:1034E00000B583B0094BA3FB0030830A8DF804308C
:1034F000C0F387008DF8050001AA02214FF4EF7098
:10350000FFF752FB03B05DF804FB00BFCDCCCCCC81
:1035100000B583B0094BA3FB0030830A8DF804305B
:10352000C0F387008DF8050001AA02214FF4ED7069
:10353000FFF73AFB03B05DF804FB00BFCDCCCCCC69
:1035400000B583B00E4B83FB0023C017C0EBA31064
:1035500001FB00F0030E8DF80430C0F307438DF833
:103560000530C0F307238DF806308DF8070001AA57
:1035700004214FF4AE70FFF717FB03B05DF804FBB6
:10358000D34D621000B583B0084BA3FB0030830815
:10359000800A8DF804008DF8053001AA02214FF44D
:1035A000AD70FFF701FB03B05DF804FBCDCCCCCCD4
:1035B00000B583B0084BA3FB00308308800A8DF868
:1035C00004008DF8053001AA02214FF4AC70FFF71A
:1035D000EBFA03B05DF804FBCDCCCCCC00B585B0E4
:1035E00068B10D4A01AB07CA03C31A7001AA0921C9
:1035F0004FF49760FFF7D8FA05B05DF804FB074A6F
:1036000001AB07CA03C31A7001AA09214FF49760DE
:10361000FFF7CAFAF0E700BF9CD70008A8D7000858
:1036200000B583B0B0B1C0238DF80430C2238DF84B
:103630000530C4238DF80630C6238DF8073001AA63
:10364000042140F69820FFF7AFFAFEF791FC03B093
:103650005DF804FB4FF08B330193F0E700B583B0C6
:10366000B0B120238DF8043028238DF805303023A5
:103670008DF8063038238DF8073001AA042140F672
:103680009E20FFF791FAFEF773FC03B05DF804FB90
:103690004FF0A3330193F0E72DE9F04184B00446E5
:1036A00002238DF80430CA238DF80530E3238DF80A
:1036B000063009238DF8073001AA04216820FFF79E
:1036C00073FAA3238DF8043014F0400800F0B080A2
:1036D000C0238DF80530C8238DF80630C2238DF83D
:1036E000073014F4C07500F0AB80C4238DF80830A7
:1036F000CC238DF80930C6238DF80A30A3238DF82A
:103700000B308DF80C308DF80D3001AA0A2140F6EF
:10371000A720FFF749FA14F0030700F0998020234F
:103720008DF8043001AA012140F6B620FFF73CFADB
:1037300014F0200F00F090800120FFF74FFFADB193
:1037400014F4807F00F08C80B2238DF804308B233A
:103750008DF80530B6238DF806309B238DF80730A1
:1037600001AA042140F6A220FFF71EFA14F0010F6F
:1037700000F08380F8238DF8043001AA01214FF472
:103780000B60FFF711FAFA210720FFF79BFD0720D6
:10379000FFF768FE0120FFF78CFE6420FFF7A0FE14
:1037A0004FF4FA70FFF7B4FEC8213F48FFF7C8FE98
:1037B0002820FFF7E7FE0A20FFF7FAFE14F0020FB9
:1037C00065D0D9238DF8043001AA012140F23D7063
:1037D000FFF7EAF914F0040F5DD00120FFF720FF96
:1037E00014F0100F5BD00120FFF738FF2F4E44F08C
:1037F00008037381FEF7BCFB0023B373B8F1000F1D
:1038000001D00622B2731DB1284A937B063393730D
:1038100014F0140F03D0254A937B103393731FB118
:10382000224A937B04339373002004B0BDE8F081F7
:10383000A3238DF805308DF806308DF8073050E75A
:10384000A3238DF808308DF809308DF80A3055E73C
:10385000D8238DF8043065E70020FFF7BFFE6EE740
:10386000B0238DF8043080238DF80530B4238DF813
:10387000063090238DF8073072E7D8238DF8043096
:1038800001AA01214FF40B60FFF78EF996E7D823C8
:103890008DF8043098E70020FFF7C2FEA0E7002073
:1038A000FFF7DCFEA2E700BF09E3CA021C0A002002
:1038B0002DE9F04788B006460F4692469846109D7F
:1038C00000232B80119A69466F4B987BFEF722FEEE
:1038D000002840F0D58081466B4B5B8913F0140FB4
:1038E0005FD09DF800209DF80100000440EA0260CE
:1038F0009DF8022040EA02209DF803201043CAF8F8
:1039000000009DF804109DF80520120442EA0162AF
:103910009DF8061042EA01229DF807100A43CAF8F2
:1039200004209DF808409DF80910090441EA04614B
:103930009DF80A4041EA04219DF80B402143CAF852
:1039400008109DF80CC09DF80D40240444EA0C6456
:103950009DF80EC044EA0C249DF80FC044EA0C0404
:10396000CAF80C4000144FEA224C091422140CFB34
:103970000CFC00FB00C001FB010102FB021202F182
:103980007142B2F1007F05D82A8842F480722A8001
:10399000102207E0FEF7ECFA00232B804FF0FF39EE
:1039A00065E0002213F0400F2BD008A9114411F854
:1039B000204C501C08A9084410F8201C41EA04219E
:1039C0003980911C08A8014411F8204CD01C08A98A
:1039D000084410F8201C41EA04217980111D08A830
:1039E000014411F8204C501D08A9084410F8201C6F
:1039F00041EA0421B9800632D2B2298841F0080197
:103A0000298013F4C07F2BD008A9114411F8204C51
:103A1000501C08A9084410F8201C41EA04213180F8
:103A2000911C08A8014411F8204CD01C08A9084496
:103A300010F8201C41EA04217180111D08A80144DE
:103A400011F8204C501D08A9084410F8201C41EA28
:103A50000421B1800632D2B2298841F07001298058
:103A600013F0030F07D100F0D7FDC8F80000484657
:103A700008B0BDE8F0870DEB0200FFF727FAF2E788
:103A80004FF0FF39F3E700BF1C0A002090F9003027
:103A9000002B01DD002070470FDB90F90130002B77
:103AA00001DD012070470ADB90F90230002B08DCB1
:103AB00001DB07207047062070470420704705206F
:103AC00070470220704738B50546FFF7DFFF044610
:103AD000E81CFFF7DBFF44EAC00424B2A81DFFF78F
:103AE000D5FF44EA801080B238BD10B588B002A975
:103AF00005A8FFF773F9072801D008B010BD01A889
:103B0000FEF782FC019C0598FCF7C8FD2146FCF7F6
:103B100019FEFCF7F3FF05900698FCF7BFFD214660
:103B2000FCF710FEFCF7EAFF06900798FCF7B6FDDD
:103B30002146FCF707FEFCF7E1FF079005A8FFF719
:103B400091FA0DF10200FEF785FCBDF80230029AF1
:103B500003FB02F20292039A03FB02F20392049A1D
:103B600003FB02F3049302A8FFF702FBC5E700B5CD
:103B700083B00090032302226B216820FDF72DFE05
:103B800003B05DF804FB00B583B00090022304226B
:103B90001B216820FDF721FE03B05DF804FB00B592
:103BA00083B00090022304221C216820FDF715FE3B
:103BB00003B05DF804FB08B5034606226B216820BC
:103BC000FDF7E6FD08BD000010B5074C002323609B
:103BD0006360A360A3812346012275216820FDF75D
:103BE000C5FD207810BD00BF3C0A002008B5034683
:103BF00005226A216820FDF7CBFD08BD08B5034604
:103C0000012237216820FDF7C3FD08BD08B5022059
:103C1000FFF7ADFF0320FFF7B6FF0320FFF7BFFF5D
:103C20000020FFF7C8FF0020FFF7E0FF0020FFF7AC
:103C3000E5FF08BD08B5FFF7C7FF682804D10020DD
:103C4000FEF7E6FE68B108BDBFF34F8F1349CA689F
:103C500002F4E062124B1343CB60BFF34F8F00BFFF
:103C6000FDE77820FEF762FE7820FEF721FCC820F1
:103C7000FEF70CFEFFF748F90A48FFF724FFFFF7AD
:103C80004FF940F27310FFF707FDC820FFF7E6FA7F
:103C9000FFF72BFF0120FFF757F8D4E700ED00E016
:103CA0000400FA052C0000202DE9F04F89B00DF139
:103CB0001B030193544C009407AB02AA5349544888
:103CC000FFF7F6FD238813F4807F02D109B0BDE829
:103CD000F08F0298FCF7E2FC4FF04251FCF732FD06
:103CE0000446DFF83891C9F800000398FCF7D6FCC9
:103CF0004FF04251FCF726FD0746DFF82481C8F853
:103D000000000498FCF7CAFC4FF04251FCF71AFD82
:103D10000546DFF810B1CBF800000598FCF7BEFCB3
:103D20004FF04251FCF70EFD0646DFF8FCA0CAF842
:103D300000004FF040413846FCF704FD0146304694
:103D4000FCF700FD064621462046FCF7F3FB014642
:103D50002846FCF7F7FC01463046FCF7EBFB03F086
:103D60000FF8FCF739FB26A3D3E90023FDF788F908
:103D7000FCF78AFB274B1860DBF8007039463846A1
:103D8000FCF7D8FB8346DAF80010FCF7DBFC0546AD
:103D9000D9F800000146FCF7CDFBD8F800402146D9
:103DA000FCF7D0FC06464FF040412046FCF7CAFC29
:103DB00001462046FCF7C6FC044659463846FCF747
:103DC000C1FC01462046FCF7B3FB4FF07E51FCF7E7
:103DD000B1FB044631462846FCF7ACFB214603F014
:103DE00021F8FCF7F9FA06A3D3E90023FDF748F917
:103DF000FCF74AFB084B186068E700BFAFF3008090
:103E00006666666666A64C40600A0020340A00209A
:103E10004C0A00202C0A0020300A00203800002024
:103E2000540A0020580A00205C0A002000B585B022
:103E300000230193029303931048114A02608360A8
:103E4000037303754FF46022C26143600123036171
:103E500000F0C4FC60B90023019301220292039395
:103E600001A9064800F0F2FB28B905B05DF804FB93
:103E700000F0CEF8EFE700F0CBF8F6E7640A002098
:103E80000024014000B587B00023029303930493FC
:103E900005930268114B9A4202D007B05DF804FB0B
:103EA00003F56C439A6942F400729A619A6902F4CC
:103EB00000720092009A9A6942F004029A619B692A
:103EC00003F004030193019B012302930323039353
:103ED00002A9034800F062FDDFE700BF00240140B3
:103EE0000008014030B589B000240494059406947C
:103EF0000794184B9A6942F020029A619A6902F07D
:103F000020020192019A9A6942F004029A619A6928
:103F100002F004020292029A9A6942F008029A613F
:103F20009B6903F008030393039B0B4D22464FF458
:103F30007041284600F042FE4FF470430493012381
:103F4000059306940323079304A9284600F026FD51
:103F500009B030BD00100240000C014008B50B480C
:103F60000B4B03600B4B436000238360C3604FF433
:103F70008042026143618361C361036201F06CF8B6
:103F800000B908BD00F044F8FBE700BF940A002028
:103F900000540040801A060010B586B0002302933A
:103FA0000393049305930268154B9A4201D006B01F
:103FB00010BD144CA36943F00803A361A36903F087
:103FC00008030093009B4FF4407302931223039362
:103FD0000323059302A90C4800F0E0FC0B4A536848
:103FE00043F0E06343F002035360E36943F40013DA
:103FF000E361E36903F400130193019BD7E700BF7A
:104000000054004000100240000C0140000001403C
:1040100072B6FEE700B595B000230D930F93109391
:1040200005930693079308930993019302930393CF
:10403000049301210A914FF480320B920C930E915C
:104040000223119312924FF4E01313930AA801F084
:104050004BFBC8B90F230593022106910023079358
:104060004FF480620892099305A801F07BFD68B9BE
:10407000022301934FF40043039301A801F04EFE85
:1040800030B915B05DF804FBFFF7C2FFFFF7C0FFC2
:10409000FFF7BEFF08B500F0A1FA194802F046FB91
:1040A000FFF7B8FFFFF71EFFFFF7C0FEFFF756FF51
:1040B00000F084F900F08CF800F0BCF800F0C6F9CC
:1040C00000F0DEF9FFF7A2FDFFF7B4FD0D4804F0A4
:1040D0000DFD04210C4802F007F904210B4802F001
:1040E00003F90B4C0821204602F090F80C212046E1
:1040F00002F08CF802F08CFCFFF7D6FDFCE700BF65
:10410000C40B0020ACE30008340B00207C0B002023
:10411000EC0A002082B00E4B9A6942F001029A61CB
:104120009A6902F001020092009ADA6942F0805224
:10413000DA61DB6903F080530193019B054A536800
:1041400023F0E06343F00073536002B0704700BF98
:104150000010024000000140FEE7FEE7FEE7FEE738
:10416000FEE770477047704708B500F049FA08BD90
:104170000120704708B504F047F9162303604FF09B
:10418000FF3008BD08B54FF0FF31FFF7F3FFFEE742
:1041900008B503460B4A126842B10A4A1068034444
:1041A0006A46934206D8074A136008BD054A064985
:1041B0001160F2E704F028F90C2303604FF0FF30A0
:1041C000F3E700BFE80A0020180D00207047000048
:1041D00000B58DB00023019302931448144A026085
:1041E000436083604FF6FF72C26003618361012206
:1041F00003920493059206930793089309920A93F6
:104200000B9303A901F0FEFE50B900230193029322
:1042100001A9064802F0CCF828B90DB05DF804FBFE
:10422000FFF7F6FEF1E7FFF7F3FEF6E7340B0020A9
:104230000004004000B58DB00023019302931448A0
:10424000144A0260436083604FF6FF72C2600361EC
:1042500083610122039204930592069307930893C6
:1042600009920A930B9303A901F0CCFE50B90023E5
:104270000193029301A9064802F09AF828B90DB0FB
:104280005DF804FBFFF7C4FEF1E7FFF7C1FEF6E7B8
:104290007C0B0020000800400368B3F1804F00D081
:1042A000704782B003F50433DA6942F00102DA6143
:1042B000DB6903F001030193019B02B0704700002A
:1042C00000B589B000230493059306930793036810
:1042D000224A934205D0224A934220D009B05DF889
:1042E00004FB204BDA6942F00202DA61DA6902F07B
:1042F00002020092009A9A6942F004029A619B6954
:1043000003F004030193019BC0230493002305934E
:104310000123069304A9144800F040FBDEE7114B8B
:10432000DA6942F00402DA61DA6902F00402029208
:10433000029A9A6942F008029A619B6903F00803A5
:104340000393039BC0230493002305930123069347
:1043500004A9064800F022FBC0E700BF00040040AB
:10436000000800400010024000080140000C01401D
:1043700000B587B000230293039304930593036869
:10438000B3F1804F02D007B05DF804FB03F50433AE
:104390009A6942F004029A619B6903F00403019355
:1043A000019B0C23029302230393059302A9024865
:1043B00000F0F4FAE7E700BF0008014000B58BB059
:1043C00000230893099301930293039304930593A5
:1043D000069307931C484FF080420260436083605D
:1043E00040F2E732C2600361836101F0DFFDF8B99A
:1043F00000230893099308A9134801F0D9FFD0B905
:10440000602301930023029303930593082201A9DB
:104410000D4801F081FE88B90C2201A90A4801F07B
:104420007BFE70B90848FFF7A3FF0BB05DF804FBF3
:10443000FFF7EEFDDCE7FFF7EBFDE1E7FFF7E8FD57
:10444000EAE7FFF7E5FDEDE7EC0A002008B50A48CA
:104450000A4B03604FF4E133436000238360C36081
:1044600003610C2242618361C36102F051F800B91B
:1044700008BDFFF7CDFDFBE7C40B0020003801406D
:1044800008B50A480A4B03604FF4E1334360002348
:104490008360C36003610C2242618361C36102F0E7
:1044A00037F800B908BDFFF7B3FDFBE7080C0020A3
:1044B0000048004010B588B000230493059306938C
:1044C000079303682D4A934204D02D4A93422BD080
:1044D00008B010BD2B4B9A6942F480429A619A69E8
:1044E00002F480420092009A9A6942F004029A61B2
:1044F0009B6903F004030193019B4FF40073049341
:1045000002230593032307931F4C04A9204600F0C0
:1045100045FA4FF48063049300230593069304A99E
:10452000204600F03BFAD3E7164BDA6942F48022CA
:10453000DA61DA6902F480220292029A9A6942F000
:1045400008029A619B6903F008030393039B4FF4ED
:104550008063049302230593032307930B4C04A960
:10456000204600F01BFA4FF40063049300230593E8
:10457000069304A9204600F011FAA9E7003801408B
:10458000004800400010024000080140000C0140BB
:1045900010B504460E4B18784FF47A73B3FBF0F362
:1045A0000C4A1068B0FBF3F000F0E2F968B90F2C88
:1045B00001D901200AE0002221464FF0FF3000F02F
:1045C000A3F9054B1C60002000E0012010BD00BFD6
:1045D000400000203C0000204400002008B5074AAD
:1045E000136843F010031360032000F07BF90F20E1
:1045F000FFF7CEFFFFF78EFD002008BD0020024030
:10460000034A1168034B1B780B441360704700BFCB
:104610004C0C002040000020014B1868704700BF80
:104620004C0C002038B50446FFF7F6FF0546B4F100
:10463000FF3F02D0044B1B781C44FFF7EDFF401BEB
:10464000A042FAD338BD00BF4000002030B482B091
:104650000022019290F82420012A00F08B8003466A
:10466000012280F824204A68062A29D80568686B48
:1046700002EB8202053A1F24944020EA04000C68F1
:1046800004FA02F202436A630A68092A38D91D68EB
:10469000E86802EB42021E3A0724944020EA040034
:1046A0008C6804FA02F20243EA600A68103A012AAE
:1046B00034D90020002283F8242002B030BC704797
:1046C0000C2A0ED80568286B02EB8202233A1F24BD
:1046D000944020EA04000C6804FA02F202432A63C0
:1046E000D2E70568E86A02EB8202413A1F2494404F
:1046F00020EA04000C6804FA02F20243EA62C3E70B
:104700001D68286902EB42020724944020EA040055
:104710008C6804FA02F202432A61C6E71A68164856
:10472000824205D09A6A42F020029A620120C1E7D3
:10473000906810F4000F1BD1906840F40000906066
:104740000A68102A01D00020B4E70C4A12680C490C
:10475000A1FB0212920C02EB82025200019202E0D3
:10476000019A013A0192019A002AF9D10020A1E7A9
:1047700000209FE70220A0E7002401403C00002029
:1047800083DE1B4338B503689A6812F0010F01D12C
:10479000002038BD04469A6822F001029A60FFF7B3
:1047A0003BFF054623689B6813F0010F13D0FFF70A
:1047B00033FF431B022BF5D923689B6813F0010FCD
:1047C000F0D0A36A43F01003A362E36A43F001034D
:1047D000E3620120DDE70020DBE7000000287BD05A
:1047E00070B50446836A002B4DD02046FFF7CAFF00
:1047F000A36A13F0100369D1002867D1A26A22F4DA
:10480000885222F0020242F00202A2626268E1696A
:104810000A43217B42EA4102A568B5F5807F02D0B8
:10482000012D36D01D46267D012E35D026687168B3
:1048300021F46941294371602568AE6827493140F8
:104840001143A960A168B1F5807F01D0012902D18F
:104850002369013B1B052568E96A21F470010B43BC
:10486000EB62236899681E4B0B409A4225D0A36ADD
:1048700023F0120343F01003A362E36A43F0010341
:10488000E362012027E0C36280F82430FFF7FAFAE0
:10489000ABE74FF48075C6E731B9A169013945EA44
:1048A000413141F40065C1E7A16A41F02001A162F4
:1048B000E16A41F00101E162B8E70023E362A36A23
:1048C00023F0030343F00103A36204E0A36A43F06F
:1048D0001003A362012070BD01207047FDF7E1FFC6
:1048E000FE0E1FFF074AD36823F4E0631B041B0C72
:1048F000000200F4E060034343F0BF6343F400337D
:10490000D360704700ED00E030B4174BDB68C3F3B1
:104910000223C3F10704042C28BF04241D1D062D07
:1049200018D9033B4FF0FF3505FA04F421EA0401DE
:10493000994005FA03F322EA0303194300280BDB2D
:104940000901C9B200F1604000F5614080F8001330
:1049500030BC70470023E5E700F00F000901C9B241
:10496000024B1954F4E700BF00ED00E014ED00E045
:104970000138B0F1807F0AD2064B5860064AF02118
:1049800082F823100020986007221A6070470120E7
:10499000704700BF10E000E000ED00E0F0B482B02E
:1049A00000252C46A3E07F4FBB4210D007D97E4F95
:1049B000BB420CD007F58037BB4208D013E0A7F507
:1049C0008017BB4203D007F57027BB4207D18B6825
:1049D000002B58D0012B51D04261082503E0A7F5E8
:1049E0008017BB42F3D0FF2E4FD88446FF2E4FD8FE
:1049F000A200DCF800300F27974023EA070305FAEE
:104A000002F21343CCF800304B6813F0805F6DD096
:104A1000664B9A6942F001029A619B6903F00103B7
:104A20000193019BA208971C614B53F8273004F0B7
:104A30000307BF004FF00F0C0CFA07FC23EA0C0C25
:104A40005C4B98422AD003F58063984200F08A803C
:104A500003F58063984200F0878003F580639842F5
:104A60001AD004231BE0CD68BDE7CD680435BAE752
:104A7000CD680835B7E7CD680C35B4E70261082585
:104A8000B1E70025AFE70425ADE700F1040CADE781
:104A9000A4F108029200ACE7032300E00023BB402E
:104AA00043EA0C030232424F47F822304B6813F4BA
:104AB000803F5BD0404A1368334313604B6813F464
:104AC000003F59D03C4A5368334353604B6813F45A
:104AD000801F57D0384A9368334393604B6813F470
:104AE000001F55D0344AD3681E43D66001340B688A
:104AF00033FA04F252D00122A24003EA020632EA5B
:104B00000303F3D14B68122B3FF64DAF122B3FF648
:104B10006AAF01A757F823F0CF490008674A000899
:104B2000714A0008834A0008E7490008E74900087D
:104B3000E7490008E7490008E7490008E749000895
:104B4000E7490008E7490008E7490008E749000885
:104B5000E7490008E7490008E74900086B4A0008F0
:104B6000774A000801239AE7022398E7124A13685C
:104B700023EA06031360A1E70F4A536823EA0603FA
:104B80005360A3E70C4A936823EA06039360A5E702
:104B9000094AD36823EA0606D660A7E702B0F0BC4C
:104BA000704700BF000022100000311000100240CA
:104BB0000000014000080140000401400AB1016109
:104BC000704709040161704703685A6912F4806FE5
:104BD00001D1002070476FF480625A6100230363A3
:104BE000202280F83D2080F83E30026C42F0040222
:104BF000026480F83C30012070472DE9F0410746FF
:104C00000D4690461E4622E0FFF706FD069BC01AA1
:104C1000B04200D8DEB900233B63202287F83D2054
:104C200087F83E303A6C42F020023A6487F83C3014
:104C300001201AE03B689C6925EA0404A4B2B4FA96
:104C400084F46409A0450FD1B6F1FF3FDCD1C5F370
:104C50000743012BEED13B685C6925EA0404A4B24A
:104C6000B4FA84F46409EDE70020BDE8F0812DE991
:104C7000F04105460E46174698463DE01A6842F454
:104C800000721A602B686FF480625A6100232B63F4
:104C9000202285F83D2085F83E302A6C42F004023F
:104CA0002A6485F83C30012034E0FFF7B5FCA0EB26
:104CB0000800B84200D8FFB900232B63202285F8F2
:104CC0003D2085F83E302A6C42F020022A6485F8A7
:104CD0003C3001201EE02B689C6926EA0404A4B243
:104CE000003C18BF0124A4B12B685A6912F4806FEC
:104CF000C4D1B7F1FF3FD8D1C6F30743012BEAD1A6
:104D00002B685C6926EA0404A4B2003C18BF0124A5
:104D1000E9E70020BDE8F08170B504460D4616466F
:104D200023685B6913F0800F1CD12046FFF74CFF0E
:104D3000D0B9B5F1FF3FF3D0FFF76EFC801BA8425E
:104D400001D8002DECD100232363202284F83D20DC
:104D500084F83E30226C42F02002226484F83C3019
:104D6000012000E0002070BD0120FCE72DE9F043A8
:104D700085B004460D4691461F46DDF830800D9EF5
:104D80000368196841F48071196000964346002257
:104D90004FF00111FFF731FF60B9236805F0FE0500
:104DA0001D613346424626492046FFF760FF68B141
:104DB000012008E023681B6813F4807F02D04FF4C1
:104DC00000732364032005B0BDE8F0830023039340
:104DD00023685A6903929B690393039B32464146B9
:104DE0002046FFF799FF30B9012F0FD123685FFAF2
:104DF00089F61E61E7E7236C042B01D00120E2E76E
:104E00002268136843F400731360F7E723684FEADE
:104E100019221A61324641462046FFF77DFF20B92C
:104E200023685FFA89F61E61CDE7236C042B01D05D
:104E30000120C8E72268136843F400731360F7E7A2
:104E4000020001002DE9F04784B004460D461646E5
:104E500099460C9FDDF834800268136843F4806340
:104E600013600368196841F480711960CDF80080FF
:104E70003B4600224FF00111FFF7BFFE70B95FFA09
:104E800085FA236805F0FE051D6143463A4641490F
:104E90002046FFF7ECFE68B1012008E023681B689C
:104EA00013F4807F02D04FF400732364032004B016
:104EB000BDE8F0870023039323685A6903929B6936
:104EC0000393039B424639462046FFF725FF80B9EE
:104ED000B9F1010F18D12368F6B21E614246394676
:104EE0002046FFF719FF68B3236C042B24D0012060
:104EF000DDE7236C042B01D00120D8E7226813687A
:104F000043F400731360F7E72368320A1A614246DC
:104F100039462046FFF700FF18B92368F6B21E6134
:104F2000DCE7236C042B01D00120C0E72268136862
:104F300043F400731360F7E72268136843F40073C7
:104F40001360D4E72268136843F480731360CDF8CC
:104F500000803B4600224FF001112046FFF74DFE36
:104F600068B922684AF00103136143463A46094989
:104F70002046FFF77CFE002899D0012097E72368A0
:104F80001B6813F4807F02D04FF400732364032066
:104F90008DE700BF0200010070B504460D461646BD
:104FA00023685B6913F0040F1CD12046FFF70CFE49
:104FB000D0B9B5F1FF3FF3D0FFF72EFB801BA8421D
:104FC00001D8002DECD100232363202284F83D205A
:104FD00084F83E30226C42F02002226484F83C3097
:104FE000012000E0002070BD0120FCE770B50546FF
:104FF0000C4616462B68596911F0400F29D15969A2
:1050000011F0100F15D1FFF707FB801BA04201D84C
:10501000002CEFD100232B63202285F83D2085F85A
:105020003E302A6C42F020022A6485F83C30012090
:1050300070BD6FF010025A6100232B63202285F8A7
:105040003D2085F83E302A6C2A6485F83C300120EA
:10505000EEE70020ECE70000002800F0CC80F8B577
:10506000044690F83D30002B77D0242384F83D305F
:105070002268136823F0010313602268136843F465
:10508000004313602268136823F40043136000F0A8
:1050900025FE62685A4B9A4264D85A4B98428CBF9C
:1050A00000230123002B40F0A880574DA5FB0035BD
:1050B000AF0C2668716821F03F0141EA95417160AB
:1050C00021680B6A23F03F0365684D4A95424FD82B
:1050D0007A1C13430B622568E96921F44F4121F0E2
:1050E000FF016368464A93424CD801385B00B0FB2D
:1050F000F3F0013040F6FC73184278D0C0F30B0394
:105100000B43EB6121680B6823F0C003E269206A5E
:10511000024313430B6021688B6823F4034323F09D
:10512000FF032269E068024313438B602168CB6868
:1051300023F0FF036269A06902431343CB60226836
:10514000136843F00103136000202064202384F8D7
:105150003D30206384F83E00F8BD80F83C30FEF717
:105160001BFF82E7294B98428CBF0023012399E75C
:105170004FF4967202FB07F2254DA5FB02529209ED
:105180000132A6E7A268BAB9461E03EB4307B6FB95
:10519000F7F60136C6F30B06B6FA86F6760946BB75
:1051A000C2B9421E03EB4303B2FBF3F20132C2F376
:1051B0000B0242F40043A3E7461E03EB830707EB11
:1051C0008707B6FBF7F60136C6F30B06B6FA86F686
:1051D0007609E4E7421E03EB830303EB8303B2FB90
:1051E000F3F20132C2F30B0242F4404388E7042396
:1051F00086E7012384E7012070470120ACE700BF68
:10520000A08601007F841E0083DE1B43FF083D0053
:10521000D34D62102DE9F04383B004460F4690460B
:1052200099460C9EFFF7F8F9054694F83D00C0B288
:10523000202803D0022003B0BDE8F0830095192395
:1052400001224B492046FFF7D8FC002840F0898016
:1052500094F83C30012B00F08680012384F83C3028
:1052600023681A6812F0010F03D11A6842F0010294
:105270001A602268136823F400631360212384F802
:105280003D30402384F83E30002323640A9B636250
:10529000BDF82C306385638D2385364BE362019521
:1052A00000964B46424639462046FFF75FFD0028F0
:1052B0005BD1238D002B35D02A4631462046FFF79F
:1052C0002BFD20BB626A236812781A61616A4B1C4D
:1052D0006362228D013A92B22285638D9BB2013BBB
:1052E0009BB263852368586910F0040FE1D0002A4F
:1052F000DFD04A781A61636A01336362238D013B10
:105300002385638D9BB2013B9BB26385D1E7236C00
:10531000042B01D001208EE72268136843F4007348
:105320001360F7E72A4631462046FFF735FE50B1B5
:10533000236C042B01D001207DE72268136843F41D
:1053400000731360F7E72268136843F40073136077
:10535000202384F83D30002384F83E3084F83C302C
:1053600069E7022067E7022065E7012063E700BFE5
:10537000020010000000FFFF2DE9F04389B0044651
:105380000F4690469946129E00230793FFF744F973
:10539000054694F83D00C0B2202804D002273846C4
:1053A00009B0BDE8F0830095192301229E492046EB
:1053B000FFF723FC002840F0748194F83C30012B67
:1053C00000F07181012384F83C3023681A6812F0E0
:1053D000010F03D11A6842F001021A6022681368B3
:1053E00023F400631360222384F83D30402384F8C3
:1053F0003E3000232364109B6362BDF84430638514
:10540000638D2385894BE362019500964B464246A6
:1054100039462046FFF716FD0746002840F0458133
:10542000238D5BB9039323685A6903929A690392A7
:10543000039A1A6842F400721A6076E0012B0FD0CA
:10544000022B21D02268136843F480631360002389
:10545000069323685A6906929B690693069B64E04B
:105460002268136823F48063136072B600230493E8
:1054700023685A6904929A690492049A1A6842F459
:1054800000721A6062B650E02268136843F4006349
:10549000136072B60023059323685A6905929A69CE
:1054A0000592059A1A6822F480621A6062B63CE09E
:1054B0002A4631462046FFF799FD002840F0F78044
:1054C00023681A69636A1A70636A01336362238D01
:1054D000013B2385638D9BB2013B9BB2638524E036
:1054E00072B62268136843F40073136023681A6964
:1054F000636A1A70636A01336362238D013B2385FB
:10550000638D9BB2013B9BB2638562B623681A69C7
:10551000636A1A70636A01336362238D013B2385DA
:10552000638D9BB2013B9BB26385238D002B00F002
:10553000AF80032B00F28280012BB9D0022B0AD15D
:105540000095334600223A492046FFF756FB0028D3
:10555000C6D0012723E70095334600223449204670
:10556000FFF74BFB002840F0A4802268136823F467
:105570008063136072B623681A69636A1A70636A7B
:1055800001336362238D013B2385638D9BB2013B15
:105590009BB26385274B1B68DB08274AA2FB0323CA
:1055A0001B0A03EB8303C3EBC3030793079B013B76
:1055B0000793079B002B28D023685A6912F0040F29
:1055C000F4D01A6842F400721A6023681A69636A98
:1055D0001A70636A01336362238D013B2385638DF7
:1055E0009BB2013B9BB2638562B623681A69636A0A
:1055F0001A70636A01336362238D013B2385638DD7
:105600009BB2013B9BB263858FE72363202284F822
:105610003D2084F83E30226C42F02002226462B6C3
:1056200084F83C300127BAE6020010000000FFFFBA
:10563000040001003C00002089B5F8142A463146D8
:105640002046FFF7D3FC002835D123681A69636A26
:105650001A70626A531C6362238D013B2385638D3C
:105660009BB2013B9BB263852368596911F0040F1B
:105670003FF45BAF1B695370636A01336362238D30
:10568000013B2385638D9BB2013B9BB263854CE755
:10569000202384F83D30002384F83E3084F83C30E9
:1056A0007DE602277BE6022779E6012777E60127D8
:1056B00075E6012773E6012771E600BF82B0084B4B
:1056C0001B68084AA2FB03235B0A00FB03F3019358
:1056D00000BF019B5A1E0192002BF9D102B0704706
:1056E0003C000020D34D6210002800F0F18170B51D
:1056F00082B00446036813F0010F2CD0AA4B5B68FC
:1057000003F00C03042B1DD0A74B5B6803F00C03C4
:10571000082B12D06368B3F5803F41D0002B55D1E0
:1057200003F1804303F504331A6822F480321A60CF
:105730001A6822F480221A6037E09B4B5B6813F4EE
:10574000803FE7D0984B1B6813F4003F03D0636899
:10575000002B00F0BF81236813F0020F75D0924B2D
:105760005B6813F00C0F5FD08F4B5B6803F00C038A
:10577000082B54D02369002B00F089808B4B012229
:105780001A60FEF749FF0546874B1B6813F0020FAE
:1057900074D1FEF741FF401B0228F5D903209EE19A
:1057A000814A136843F480331360636843B3FEF7A0
:1057B00033FF05467C4B1B6813F4003FCBD1FEF74B
:1057C0002BFF401B6428F5D9032088E1B3F5A02FF7
:1057D00009D0754B1A6822F480321A601A6822F4D4
:1057E00080221A60E1E703F18043A3F53C331A6895
:1057F00042F480221A601A6842F480321A60D4E7B8
:10580000FEF70AFF0546684B1B6813F4003FA2D061
:10581000FEF702FF401B6428F5D903205FE1624BCD
:105820005B6813F4803FA5D15F4B1B6813F0020F38
:1058300003D02369012B40F04F815B4A136823F0AA
:10584000F803616943EAC1031360236813F0080F8A
:1058500032D0A369002B45D0554B01221A60FEF7C8
:10586000DBFE0546504B5B6A13F0020F21D1FEF7B9
:10587000D3FE401B0228F5D9032030E14A4A1368C1
:1058800023F0F803616943EAC1031360DDE7474B86
:1058900000221A60FEF7C0FE0546434B1B6813F05A
:1058A000020FD2D0FEF7B8FE401B0228F5D9032024
:1058B00015E10120FFF702FF236813F0040F00F049
:1058C0009780394BDB6913F0805F1DD1364BDA6965
:1058D00042F08052DA61DB6903F080530193019B4F
:1058E000012512E0324B00221A60FEF795FE0546B4
:1058F0002D4B5B6A13F0020FDED0FEF78DFE401BCE
:105900000228F5D90320EAE000252A4B1B6813F48E
:10591000807F11D0E368012B22D0002B38D103F116
:10592000804303F504331A6A22F001021A621A6AEC
:1059300022F004021A6218E01E4A136843F48073CE
:105940001360FEF769FE06461A4B1B6813F4807F4E
:10595000E0D1FEF761FE801B6428F5D90320BEE08C
:10596000114A136A43F001031362E36873B3FEF74D
:1059700053FE06460C4B1B6A13F0020F37D1FEF79D
:105980004BFE801B41F288339842F3D90320A6E0F6
:10599000052B11D0044B1A6A22F001021A621A6A0E
:1059A00022F004021A62E0E70010024000004242C6
:1059B00080044242007000404D4B1A6A42F00402DB
:1059C0001A621A6A42F001021A62CEE7FEF724FE5A
:1059D0000646474B1B6A13F0020F08D0FEF71CFE69
:1059E000801B41F288339842F3D9032077E0E5B970
:1059F000E369002B72D03E4A526802F00C02082A7A
:105A000056D0022B17D03B4B00221A60FEF704FE43
:105A10000446374B1B6813F0007F47D0FEF7FCFDB0
:105A2000001B0228F5D9032059E0314AD36923F03D
:105A30008053D361DCE72F4B00221A60FEF7ECFDA8
:105A400005462B4B1B6813F0007F06D0FEF7E4FDE4
:105A5000401B0228F5D9032041E0236AB3F5803FBB
:105A60001AD023494B6823F47413226A606A0243F4
:105A700013434B601F4B01221A60FEF7CDFD044615
:105A80001B4B1B6813F0007F0ED1FEF7C5FD001BFA
:105A90000228F5D9032022E0154A536823F4003385
:105AA000A1680B435360DCE7002018E0002016E0FB
:105AB000012B16D00E4B5B6803F48031226A9142B1
:105AC00011D103F47013626A93420ED1002006E0F4
:105AD00001207047012002E0012000E0002002B018
