:020000040800F2
:10000000005000204D350008291B00082B1B00085C
:100010002D1B00082F1B0008311B000800000000EA
:10002000000000000000000000000000331B00087A
:10003000351B000800000000371B0008391B0008B2
:100040009535000895350008953500089535000868
:100050009535000895350008953500089535000858
:100060009535000895350008953500089535000848
:100070009535000895350008953500089535000838
:100080009535000895350008953500089535000828
:100090009535000895350008953500089535000818
:1000A0009535000895350008953500089535000808
:1000B00095350008953500089535000895350008F8
:1000C00095350008953500089535000895350008E8
:1000D00095350008953500089535000895350008D8
:1000E000953500089535000895350008000000009A
:1000F0000000000000000000000000000000000000
:0C01000000000000000000005FF808F1A3
:1001100081F0004102E000BF83F0004330B54FEAB8
:1001200041044FEA430594EA050F08BF90EA020F25
:100130001FBF54EA000C55EA020C7FEA645C7FEAB8
:10014000655C00F0E2804FEA5454D4EB5555B8BFDB
:100150006D420CDD2C4480EA020281EA030382EA4C
:10016000000083EA010180EA020281EA0303362DDE
:1001700088BF30BD11F0004F4FEA01314FF4801CB1
:100180004CEA113102D0404261EB410113F0004FC3
:100190004FEA03334CEA133302D0524263EB43037A
:1001A00094EA050F00F0A780A4F10104D5F1200E18
:1001B0000DDB02FA0EFC22FA05F2801841F1000173
:1001C00003FA0EF2801843FA05F359410EE0A5F147
:1001D00020050EF1200E012A03FA0EFC28BF4CF078
:1001E000020C43FA05F3C01851EBE37101F000452E
:1001F00007D54FF0000EDCF1000C7EEB00006EEB3B
:100200000101B1F5801F1BD3B1F5001F0CD34908C4
:100210005FEA30004FEA3C0C04F101044FEA44521B
:1002200012F5800F80F09A80BCF1004F08BF5FEAA2
:10023000500C50F1000041EB045141EA050130BD82
:100240005FEA4C0C404141EB0101013C28BFB1F594
:10025000801FE9D291F0000F04BF01460020B1FADF
:1002600081F308BF2033A3F10B03B3F120020CDAB2
:100270000C3208DD02F1140CC2F10C0201FA0CF090
:1002800021FA02F10CE002F11402D8BFC2F1200CF5
:1002900001FA02F120FA0CFCDCBF41EA0C019040AB
:1002A000E41AA2BF01EB0451294330BD6FEA0404F4
:1002B0001F3C1CDA0C340EDC04F11404C4F12002DF
:1002C00020FA04F001FA02F340EA030021FA04F3F1
:1002D00045EA030130BDC4F10C04C4F1200220FA48
:1002E00002F001FA04F340EA0300294630BD21FA86
:1002F00004F0294630BD94F0000F83F4801306BF4C
:1003000081F480110134013D4EE77FEA645C18BF3F
:100310007FEA655C29D094EA050F08BF90EA020FD6
:1003200005D054EA000C04BF1946104630BD91EACE
:10033000030F1EBF0021002030BD5FEA545C05D1D1
:100340004000494128BF41F0004130BD14F5800410
:100350003CBF01F5801130BD01F0004545F0FE4184
:1003600041F470014FF0000030BD7FEA645C1ABFB9
:10037000194610467FEA655C1CBF0B46024650EAF0
:10038000013406BF52EA033591EA030F41F400211C
:1003900030BD00BF90F0000F04BF0021704730B5A2
:1003A0004FF4806404F132044FF000054FF0000177
:1003B00050E700BF90F0000F04BF0021704730B538
:1003C0004FF4806404F1320410F0004548BF40420D
:1003D0004FF000013EE700BF42004FEAE2014FEA62
:1003E00031014FEA02701FBF12F07F4393F07F4F3D
:1003F00081F06051704732F07F4208BF704793F040
:100400007F4F04BF41F40021704730B54FF4607452
:1004100001F0004521F000411CE700BF50EA010255
:1004200008BF704730B54FF000050AE050EA0102FE
:1004300008BF704730B511F0004502D5404261EB6E
:1004400041014FF4806404F132045FEA915C3FF4AF
:10045000D8AE4FF003025FEADC0C18BF03325FEA4C
:10046000DC0C18BF033202EBDC02C2F1200300FAFD
:1004700003FC20FA02F001FA03FE40EA0E0021FA22
:1004800002F11444BDE600BF70B54FF0FF0C4CF410
:10049000E06C1CEA11541DBF1CEA135594EA0C0FC2
:1004A00095EA0C0F00F0DEF82C4481EA030621EAFD
:1004B0004C5123EA4C5350EA013518BF52EA033538
:1004C00041F4801143F4801338D0A0FB02CE4FF0EA
:1004D0000005E1FB02E506F00042E0FB03E54FF01A
:1004E0000006E1FB03569CF0000F18BF4EF0010E12
:1004F000A4F1FF04B6F5007F64F5407404D25FEA0E
:100500004E0E6D4146EB060642EAC62141EA5551C0
:100510004FEAC52040EA5E504FEACE2EB4F1FD0C02
:1005200088BFBCF5E06F1ED8BEF1004F08BF5FEA80
:10053000500E50F1000041EB045170BD06F0004632
:1005400046EA010140EA020081EA0301B4EB5C04DF
:10055000C2BFD4EB0C0541EA045170BD41F48011D7
:100560004FF0000E013C00F3AB8014F1360FDEBFFC
:10057000002001F0004170BDC4F10004203C35DAD8
:100580000C341BDC04F11404C4F1200500FA05F35B
:1005900020FA04F001FA05F240EA020001F00042FC
:1005A00021F0004110EBD37021FA04F642EB060172
:1005B0005EEA430E08BF20EAD37070BDC4F10C049C
:1005C000C4F1200500FA04F320FA05F001FA04F260
:1005D00040EA020001F0004110EBD37041F100014C
:1005E0005EEA430E08BF20EAD37070BDC4F1200557
:1005F00000FA05F24EEA020E20FA04F301FA05F2BF
:1006000043EA020321FA04F001F0004121FA04F266
:1006100020EA020000EBD3705EEA430E08BF20EA36
:10062000D37070BD94F0000F0FD101F00046400070
:1006300041EB010111F4801F08BF013CF7D041EAF2
:10064000060195F0000F18BF704703F000465200F6
:1006500043EB030313F4801F08BF013DF7D043EAC7
:100660000603704794EA0C0F0CEA135518BF95EA7D
:100670000C0F0CD050EA410618BF52EA4306D1D104
:1006800081EA030101F000414FF0000070BD50EA23
:10069000410606BF1046194652EA430619D094EAAD
:1006A0000C0F02D150EA013613D195EA0C0F05D197
:1006B00052EA03361CBF104619460AD181EA0301EB
:1006C00001F0004141F0FE4141F470014FF00000A3
:1006D00070BD41F0FE4141F4780170BD70B54FF03E
:1006E000FF0C4CF4E06C1CEA11541DBF1CEA1355BE
:1006F00094EA0C0F95EA0C0F00F0A7F8A4EB0504A0
:1007000081EA030E52EA03354FEA013100F0888096
:100710004FEA03334FF0805545EA131343EA12635F
:100720004FEA022245EA111545EA10654FEA002614
:100730000EF000419D4208BF964244F1FD0404F5CD
:10074000407402D25B084FEA3202B61A65EB030529
:100750005B084FEA32024FF480104FF4002CB6EBE6
:10076000020E75EB030E22BFB61A754640EA0C0066
:100770005B084FEA3202B6EB020E75EB030E22BFA6
:10078000B61A754640EA5C005B084FEA3202B6EBE7
:10079000020E75EB030E22BFB61A754640EA9C00A6
:1007A0005B084FEA3202B6EB020E75EB030E22BF76
:1007B000B61A754640EADC0055EA060E18D04FEA34
:1007C000051545EA16754FEA06164FEAC30343EAD4
:1007D00052734FEAC2025FEA1C1CC0D111F4801FA1
:1007E0000BD141EA00014FF000004FF0004CB6E79A
:1007F00011F4801F04BF01430020B4F1FD0C88BF39
:10080000BCF5E06F3FF6AFAEB5EB030C04BFB6EB43
:10081000020C5FEA500C50F1000041EB045170BD36
:100820000EF0004E4EEA113114EB5C04C2BFD4EB63
:100830000C0541EA045170BD41F480114FF0000EE7
:10084000013C90E645EA060E8DE60CEA135594EA63
:100850000C0F08BF95EA0C0F3FF43BAF94EA0C0F66
:100860000AD150EA01347FF434AF95EA0C0F7FF4DB
:1008700025AF104619462CE795EA0C0F06D152EA2F
:1008800003353FF4FDAE1046194622E750EA410613
:1008900018BF52EA43067FF4C5AE50EA41047FF424
:1008A0000DAF52EA43057FF4EBAE12E780F0004053
:1008B00002E000BF81F0004142001FBF5FEA410338
:1008C00092EA030F7FEA226C7FEA236C6AD04FEA38
:1008D0001262D2EB1363C1BFD2184140484041407D
:1008E000B8BF5B42192B88BF704710F0004F40F42F
:1008F000000020F07F4018BF404211F0004F41F44B
:10090000000121F07F4118BF494292EA030F3FD016
:10091000A2F1010241FA03FC10EB0C00C3F1200329
:1009200001FA03F100F0004302D5494260EB4000B8
:10093000B0F5000F13D3B0F1807F06D340084FEA23
:10094000310102F10102FE2A51D2B1F1004F40EB18
:10095000C25008BF20F0010040EA03007047490080
:1009600040EB0000013A28BFB0F5000FEDD2B0FA1D
:1009700080FCACF1080CB2EB0C0200FA0CF0AABF40
:1009800000EBC25052421843BCBFD04018437047DE
:1009900092F0000F81F4000106BF80F400000132E4
:1009A000013BB5E74FEA41037FEA226C18BF7FEABB
:1009B000236C21D092EA030F04D092F0000F08BFFD
:1009C0000846704790EA010F1CBF0020704712F0E4
:1009D0007F4F04D1400028BF40F00040704712F123
:1009E00000723CBF00F50000704700F0004343F088
:1009F000FE4040F4000070477FEA226216BF0846BE
:100A00007FEA23630146420206BF5FEA412390EA80
:100A1000010F40F4800070474FF0000304E000BF76
:100A200010F0004348BF40425FEA000C08BF704727
:100A300043F0964301464FF000001CE050EA0102EB
:100A400008BF70474FF000030AE000BF50EA010200
:100A500008BF704711F0004302D5404261EB4101ED
:100A60005FEA010C02BF84460146002043F0B64312
:100A700008BFA3F18053A3F50003BCFA8CF2083A37
:100A8000A3EBC25310DB01FA02FC634400FA02FC40
:100A9000C2F12002BCF1004F20FA02F243EB020047
:100AA00008BF20F00100704702F1200201FA02FCA9
:100AB000C2F1200250EA4C0021FA02F243EB02009C
:100AC00008BF20EADC7070474FF0FF0C1CEAD052E0
:100AD0001EBF1CEAD15392EA0C0F93EA0C0F6FD0A1
:100AE0001A4480EA010C400218BF5FEA41211ED07F
:100AF0004FF0006343EA501043EA5111A0FB01316B
:100B00000CF00040B1F5000F3EBF490041EAD3713F
:100B10005B0040EA010062F17F02FD2A1DD8B3F1BB
:100B2000004F40EBC25008BF20F00100704790F02A
:100B3000000F0CF0004C08BF49024CEA502040EA7C
:100B400051207F3AC2BFD2F1FF0340EAC250704742
:100B500040F400004FF00003013A5DDC12F1190F80
:100B6000DCBF00F000407047C2F10002410021FAF2
:100B700002F1C2F1200200FA02FC5FEA310040F10A
:100B8000000053EA4C0308BF20EADC70704792F083
:100B9000000F00F0004C02BF400010F4000F013ABB
:100BA000F9D040EA0C0093F0000F01F0004C02BFB6
:100BB000490011F4000F013BF9D041EA0C018FE725
:100BC0000CEAD15392EA0C0F18BF93EA0C0F0AD02B
:100BD00030F0004C18BF31F0004CD8D180EA010051
:100BE00000F00040704790F0000F17BF90F0004FEA
:100BF000084691F0000F91F0004F14D092EA0C0FCC
:100C000001D142020FD193EA0C0F03D14B0218BF5E
:100C1000084608D180EA010000F0004040F0FE40A4
:100C200040F40000704740F0FE4040F44000704740
:100C30004FF0FF0C1CEAD0521EBF1CEAD15392EABF
:100C40000C0F93EA0C0F69D0A2EB030280EA010CAF
:100C500049024FEA402037D04FF0805343EA111148
:100C600043EA10130CF000408B4238BF5B0042F1A6
:100C70007D024FF4000C8B4224BF5B1A40EA0C004B
:100C8000B3EB510F24BFA3EB510340EA5C00B3EB7D
:100C9000910F24BFA3EB910340EA9C00B3EBD10F6B
:100CA00024BFA3EBD10340EADC001B0118BF5FEABD
:100CB0001C1CE0D1FD2A3FF650AF8B4240EBC250E6
:100CC00008BF20F0010070470CF0004C4CEA5020A7
:100CD0007F32C2BFD2F1FF0340EAC250704740F4F6
:100CE00000004FF00003013A37E792F0000F00F0E8
:100CF000004C02BF400010F4000F013AF9D040EA66
:100D00000C0093F0000F01F0004C02BF490011F4F9
:100D1000000F013BF9D041EA0C0195E70CEAD153F1
:100D200092EA0C0F08D142027FF47DAF93EA0C0FD8
:100D30007FF470AF084676E793EA0C0F04D14B02BC
:100D40003FF44CAF08466EE730F0004C18BF31F06E
:100D5000004CCAD130F000427FF45CAF31F0004368
:100D60007FF43CAF5FE700BF4FF0FF3C06E000BF01
:100D70004FF0010C02E000BF4FF0010C4DF804CD24
:100D80004FEA40024FEA41037FEA226C18BF7FEA34
:100D9000236C11D001B052EA530C18BF90EA010F36
:100DA00058BFB2EB030088BFC81738BF6FEAE170C5
:100DB00018BF40F0010070477FEA226C02D15FEA61
:100DC000402C05D17FEA236CE4D15FEA412CE1D0CD
:100DD0005DF8040B704700BF844608466146FFE794
:100DE0000FB5FFF7C9FF002848BF10F1000F0FBD76
:100DF0004DF808EDFFF7F4FF0CBF012000205DF86F
:100E000008FB00BF4DF808EDFFF7EAFF34BF0120F3
:100E100000205DF808FB00BF4DF808EDFFF7E0FF8C
:100E200094BF012000205DF808FB00BF4DF808EDDD
:100E3000FFF7D2FF94BF012000205DF808FB00BF40
:100E40004DF808EDFFF7C8FF34BF012000205DF822
:100E500008FB00BF4FEA4002B2F1FE4F0FD34FF044
:100E60009E03B3EB12620DD94FEA002343F0004317
:100E700010F0004F23FA02F018BF404270474FF0C5
:100E80000000704712F1610F01D1420205D110F04C
:100E9000004008BF6FF0004070474FF000007047FF
:100EA00000F1340191E838009C46A6464CF8045DF8
:100EB00090E8FF0FE54600BD90EC210B704700BFA6
:100EC00080EC210B704700BF90EC200B704700BFF7
:100ED00080EC200B704700BFD0EC200B704700BFA8
:100EE000C0EC200B704700BFF0EC0201F0EC0211E7
:100EF000F0EC0221F0EC0231F0EC0241F0EC025196
:100F0000F0EC0261F0EC0271F0EC0281F0EC029185
:100F1000F0EC02A1F0EC02B1F0EC02C1F0EC02D175
:100F2000F0EC02E1F0EC02F1704700BFE0EC0201EE
:100F3000E0EC0211E0EC0221E0EC0231E0EC0241D5
:100F4000E0EC0251E0EC0261E0EC0271E0EC0281C5
:100F5000E0EC0291E0EC02A1E0EC02B1E0EC02C1B5
:100F6000E0EC02D1E0EC02E1E0EC02F1704700BFFE
:100F7000B0FC0181B0FC0191B0FC01A1B0FC01B159
:100F8000704700BFA0FC0181A0FC0191A0FC01A161
:100F9000A0FC01B1704700BFEC4600B52DE9005040
:100FA0002DE9FF1F4FF000032DE90C0001A902F00D
:100FB00043FCDDF840E012B0704700BFEC4600B5DE
:100FC0002DE900502DE9FF1F4FF000032DE90C0023
:100FD00001A902F06BFCDDF840E012B0704700BFE1
:100FE000EC4600B52DE900502DE9FF1F4FF000033E
:100FF0002DE90C0001A902F07BFCDDF840E012B005
:10100000704700BFEC4600B52DE900502DE9FF1FE9
:101010004FF000032DE90C0001AB02F03DFCDDF8C0
:1010200040E012B0704700BFEC4600B52DE900501B
:101030002DE9FF1F4FF000032DE90C0001AA02F07B
:10104000ADFCDDF840E012B0704700BF844641EAD5
:10105000000313F0030349D1403A23D30B68036024
:101060004B6843608B688360CB68C3600B69036126
:101070004B6943618B698361CB69C3610B6A03620E
:101080004B6A43628B6A8362CB6AC3620B6B0363F6
:101090004B6B43638B6B8363CB6BC36340304031DB
:1010A000403ADBD230320BD30B6803604B684360AD
:1010B0008B688360CB68C36010301031103AF3D274
:1010C0000C3205D351F8043B40F8043B043AF9D202
:1010D000043208D0D2071CBF11F8013B00F8013BD5
:1010E00001D30B8803806046704700BF082A13D3E2
:1010F0008B07B1D010F00303AED0C3F10403D21AB2
:10110000DB071CBF11F8013B00F8013BA4D331F809
:10111000023B20F8023B9FE7043AD9D3013A11F889
:10112000013B00F8013BF9D20B7803704B78437018
:101130008B788370604670474FF0FF3C06E000BF3D
:101140004FF0010C02E000BF4FF0010C4DF804CD50
:101150004FEA410C7FEA6C5C4FEA430C18BF7FEA10
:101160006C5C1BD001B050EA410C0CBF52EA430C3E
:1011700091EA030F02BF90EA020F0020704710F1BE
:10118000000F91EA030F58BF994208BF90422CBF4D
:10119000D8176FEAE37040F0010070474FEA410C46
:1011A0007FEA6C5C02D150EA013C07D14FEA430C64
:1011B0007FEA6C5CD6D152EA033CD3D05DF8040BD5
:1011C000704700BF8446104662468C461946634607
:1011D00000E000BF01B5FFF7B7FF002848BF10F1DE
:1011E000000F01BD4DF808EDFFF7F4FF0CBF012023
:1011F00000205DF808FB00BF4DF808EDFFF7EAFF9F
:1012000034BF012000205DF808FB00BF4DF808ED59
:10121000FFF7E0FF94BF012000205DF808FB00BF4E
:101220004DF808EDFFF7CEFF94BF012000205DF8D8
:1012300008FB00BF4DF808EDFFF7C4FF34BF0120E5
:1012400000205DF808FB00BF4FEA410C7FEA6C5CB0
:1012500002D150EA013C0AD14FEA430C7FEA6C5CB0
:1012600002D152EA033C02D14FF0000070474FF028
:10127000010070474FEA410212F5001215D211D554
:101280006FF47873B3EB625212D94FEAC12343F083
:10129000004343EA505311F0004F23FA02F018BF05
:1012A000404270474FF00000704750EA013005D1CE
:1012B00011F0004008BF6FF0004070474FF0000091
:1012C000704700BF53B94AB9002908BF00281CBFA6
:1012D0004FF0FF314FF0FF3000F00CB8ADF1080CCB
:1012E0006DE904CE08F0E2F8DDF804E0DDE9022360
:1012F00004B07047704700BF10B5054C237833B970
:10130000044B13B10448AFF300800123237010BDD8
:10131000C0090020000000007097000808B5034BCA
:101320001BB103490348AFF3008008BD0000000073
:10133000C40900207097000800B583B090F8080138
:101340000091032302221A2100F0BEFA03B05DF8D7
:1013500004FB000030B583B005460C460091022323
:1013600004221B2190F8080100F0AEFA032C06D8E5
:10137000DFE804F002070B0F084BC5F8DC3003B0C0
:1013800030BD074BC5F8DC30F9E7064BC5F8DC305B
:10139000F5E7054BC5F8DC30F1E700BF6F120343FA
:1013A0006F1283426F1203426F12834130B583B0D4
:1013B00005460C460091022304221C2190F80801E6
:1013C00000F082FA032C07D8DFE804F002080D12BF
:1013D0004FF08D43C5F8E03003B030BD4FF08C4383
:1013E000C5F8E030F8E74FF08B43C5F8E030F3E79D
:1013F0004FF08A43C5F8E030EEE710B582B00446FE
:101400004FF47A73009300F2091302223B2190F803
:10141000080100F0B1F994F809311B021BB294F8ED
:101420000A01184302B010BD08B50B4606226B2115
:1014300090F8080100F022FA08BD00B583B090F8DA
:1014400008010091032302226B2100F03DFA03B052
:101450005DF804FB10B504460121FFF7EEFF002103
:101460002046FFF777FF00212046FFF79FFF02216C
:101470002046FFF761FF00212046FFF7D5FF10BD92
:1014800010B582B0044600F209134FF47A7201924B
:10149000009306231A46752190F8080100F0A0F980
:1014A00094F8090102B010BD08B5FFF7E9FF342830
:1014B00014BF0020012008BD2DE9F84307460E4661
:1014C00091469846002512E0EC0005EBC50007EBBD
:1014D00080004A463146043000F0BEF860198000B2
:1014E000703042463146384400F0B6F80135022DDE
:1014F000EADDBDE8F883000010B504460846216027
:1015000084F8082100F032F9034B044A04492046CC
:10151000FFF7D2FF204610BD000048420000C8423D
:10152000000048432DE9F041044608461546984618
:101530009DF818603E49FFF7C7FA2946FFF7C4FA3D
:101540003C49FFF7C1FA074600F092F805463846D5
:1015500000F002F9074641464046FFF7ADF9014663
:101560002846FFF765FB0546012E3CD0022E4BD0E6
:1015700006B34FF07E512846FFF79EF90546014617
:101580002068FFF755FB206029466068FFF750FB95
:1015900060602946A068FFF74BFBA0602946E06821
:1015A000FFF746FBE06029462069FFF741FB206119
:1015B000BDE8F08139464FF07E50FFF77BF960605F
:1015C0004FF07C51FFF780FA2060A0604FF040415F
:1015D0003846FFF779FAE06029464FF07E50FFF772
:1015E00069F92061C5E74FF07E5626604FF0404113
:1015F0003846FFF769FA6060A660E0602946304629
:10160000FFF758F92061B4E720600023636000F120
:101610000043A3604FF040413846FFF755FAE060C1
:1016200029464FF07E50FFF745F92061A1E700BF42
:10163000DB0FC940BD37863530B583B004469DF811
:1016400018500095FFF76EFF0023A36163612362CA
:10165000E36103B030BD000000B583B00023009308
:10166000024BFFF7E9FF03B05DF804FBF304353FDD
:1016700070B50446FFF7EEFB2030402859D82E49BC
:101680002046FFF7DDFB50B12C492046FFF712F949
:101690000446F4E729492046FFF70EF90446284995
:1016A0002046FFF7AFFB0028F4D126492046FFF77C
:1016B000C7FB00282DD023492046FFF7FBF8014641
:1016C0002048FFF7F7F8044621462046FFF7FCF9CB
:1016D000054601462046FFF7F7F906460021284651
:1016E000FFF7F2F91849FFF7E5F82946FFF7ECF99B
:1016F0001649FFF7E1F82946FFF7E6F91449FFF725
:10170000D9F801463046FFF7DFF92146FFF7D4F854
:1017100070BD10492046FFF775FB0028D4D0094959
:101720002046FFF7C9F801460A48FFF7C3F8044608
:10173000CAE70020ECE700BFDB0F4940DB0FC940E0
:10174000DB0F49C0DB0FC93F92E741399730083CB6
:1017500015A82A3EDB0FC9BF08B50349FFF7ACF84F
:10176000FFF786FF08BD00BFDB0FC93F014B1860C4
:10177000704700BFDC0900202DE9F04184B0154618
:101780001F46BDF828608DF80F100EB94FF47A7619
:101790004400DFF83480009601230DF10F0221464A
:1017A000D8F8000000F01CFF00962B463A46214670
:1017B000D8F8000000F0D0FF18B1FF2004B0BDE859
:1017C000F0812846FAE700BFDC09002000B583B0AD
:1017D000009313460122FFF7CFFF03B05DF804FB2F
:1017E00030B583B014461D46BDF81C300DF107021C
:1017F000FFF7ECFF60B10121A9400139621B013202
:1018000001FA02F39DF807100B401341069A13707A
:1018100003B030BD2DE9F04182B00646884615463A
:101820001F46501C02F024FD044600F8018B2A4696
:101830003946FFF70BFC4FF47A7300936B1C22467A
:1018400071000748006800F0CBFE0546204602F014
:1018500017FDB5FA85F0400902B0BDE8F08100BF80
:10186000DC09002000B583B08DF807200DF10703D7
:101870000122FFF7CFFF03B05DF804FBF0B583B0A2
:1018800004460D4616461F460E4B1B880DF10702F7
:10189000FFF79CFF77B1012202FA06F69DF80720B8
:1018A0003243D2B28DF8072029462046FFF7DAFFEF
:1018B00003B0F0BD0122B2409DF8073023EA0202D6
:1018C000F0E700BF000000202DE9F04182B006469D
:1018D0000F461446984664230DF10702FFF776FF82
:1018E00018B9002002B0BDE8F081012505FA08F51D
:1018F000013DA4EB0804013405FA04F39DF820200F
:10190000A240D2B21A409DF8071021EA03031A43FD
:101910008DF8072039463046FFF7A4FFE2E70000C4
:1019200030B589B000240494059406940794184BAC
:101930009A6942F020029A619A6902F020020192AB
:10194000019A9A6942F008029A619A6902F00802C3
:101950000292029A9A6942F004029A619B6903F02A
:1019600004030393039B0B4D22464FF4704128461A
:1019700000F036FB4FF47043049301230593069463
:101980000223079304A9284600F01AFA09B030BDD3
:1019900000100240000C014008B50B480B4B0360DF
:1019A0000B4B436000238360C3604FF480420261AD
:1019B00043618361C361036200F034FD00B908BD77
:1019C00000F044F8FBE700BFE009002000540040AD
:1019D000801A060010B586B0002302930393049387
:1019E00005930268154B9A4201D006B010BD144C05
:1019F000A36943F00803A361A36903F008030093FC
:101A0000009B4FF440730293122303930323059327
:101A100002A90C4800F0D4F90B4A536843F0E06384
:101A200043F002035360E36943F40013E361E369A5
:101A300003F400130193019BD7E700BF005400405B
:101A400000100240000C01400000014072B6FEE7A9
:101A500000B591B0002309930B930C93019302936B
:101A6000039304930593012106914FF4803207926A
:101A700008930A9102230D930E924FF4E0130F93F3
:101A800006A801F01FF880B90F23019302210291EB
:101A9000002303934FF480620492059301A801F0A0
:101AA0004FFA20B911B05DF804FBFFF7CFFFFFF745
:101AB000CDFF000008B5094801F0A8FC00F0ECF8E3
:101AC000FFF7C6FFFFF72CFF00F06AF8FFF764FF8F
:101AD00001F01AFD024802F0E5FEFBE7380A00209B
:101AE0008897000882B00E4B9A6942F001029A6111
:101AF0009A6902F001020092009ADA6942F080527B
:101B0000DA61DB6903F080530193019B054A536856
:101B100023F0E06343F00073536002B0704700BFEE
:101B20000010024000000140FEE7FEE7FEE7FEE78E
:101B3000FEE770477047704708B500F0BFF808BD72
:101B40000120704708B502F069FB162303604FF0CF
:101B5000FF3008BD08B54FF0FF31FFF7F3FFFEE798
:101B600008B503460B4A126842B10A4A106803449A
:101B70006A46934206D8074A136008BD054A0649DB
:101B80001160F2E702F04AFB0C2303604FF0FF30D4
:101B9000F3E700BF340A0020F80B00207047000074
:101BA00008B50A480A4B03604FF4E1334360002351
:101BB0008360C36003610C2242618361C36101F0F1
:101BC00017FB00B908BDFFF741FFFBE7380A00200B
:101BD0000038014010B586B00023029303930493AC
:101BE00005930268174B9A4201D006B010BD03F569
:101BF00058439A6942F480429A619A6902F4804299
:101C00000092009A9A6942F004029A619B6903F07B
:101C100004030193019B4FF4007302930223039387
:101C200003230593084C02A9204600F0C9F84FF49D
:101C30008063029300230393049302A9204600F0DB
:101C4000BFF8D2E7003801400008014010B5044653
:101C50000E4B18784FF47A73B3FBF0F30C4A10680C
:101C6000B0FBF3F000F096F868B90F2C01D9012011
:101C70000AE0002221464FF0FF3000F057F8054BF4
:101C80001C60002000E0012010BD00BF0800002003
:101C9000040000200C00002008B5074A136843F038
:101CA00010031360032000F02FF80F20FFF7CEFF82
:101CB000FFF718FF002008BD00200240034A11680A
:101CC000034B1B780B441360704700BF7C0A002055
:101CD00008000020014B1868704700BF7C0A0020F4
:101CE00038B50446FFF7F6FF0546B4F1FF3F02D0D2
:101CF000044B1B781C44FFF7EDFF401BA042FAD3B6
:101D000038BD00BF08000020074AD36823F4E06311
:101D10001B041B0C000200F4E060034343F0BF63AC
:101D200043F40033D360704700ED00E030B4174B4C
:101D3000DB68C3F30223C3F10704042C28BF042487
:101D40001D1D062D18D9033B4FF0FF3505FA04F48D
:101D500021EA0401994005FA03F322EA0303194337
:101D600000280BDB0901C9B200F1604000F56140B9
:101D700080F8001330BC70470023E5E700F00F0047
:101D80000901C9B2024B1954F4E700BF00ED00E0AD
:101D900014ED00E00138B0F1807F0AD2064B5860A4
:101DA000064AF02182F823100020986007221A606A
:101DB00070470120704700BF10E000E000ED00E038
:101DC000F0B482B000252C46A3E07F4FBB4210D078
:101DD00007D97E4FBB420CD007F58037BB4208D0F5
:101DE00013E0A7F58017BB4203D007F57027BB426D
:101DF00007D18B68002B58D0012B51D042610825A8
:101E000003E0A7F58017BB42F3D0FF2E4FD88446DE
:101E1000FF2E4FD8A200DCF800300F27974023EAAE
:101E2000070305FA02F21343CCF800304B6813F0B5
:101E3000805F6DD0664B9A6942F001029A619B699E
:101E400003F001030193019BA208971C614B53F817
:101E5000273004F00307BF004FF00F0C0CFA07FC0B
:101E600023EA0C0C5C4B98422AD003F5806398421D
:101E700000F08A8003F58063984200F0878003F5C4
:101E8000806398421AD004231BE0CD68BDE7CD687B
:101E90000435BAE7CD680835B7E7CD680C35B4E747
:101EA00002610825B1E70025AFE70425ADE700F1A1
:101EB000040CADE7A4F108029200ACE7032300E0B4
:101EC0000023BB4043EA0C030232424F47F8223062
:101ED0004B6813F4803F5BD0404A13683343136070
:101EE0004B6813F4003F59D03C4A53683343536066
:101EF0004B6813F4801F57D0384A9368334393607C
:101F00004B6813F4001F55D0344AD3681E43D66083
:101F100001340B6833FA04F252D00122A24003EAE2
:101F2000020632EA0303F3D14B68122B3FF64DAFA2
:101F3000122B3FF66AAF01A757F823F0F31D0008F4
:101F40008B1E0008951E0008A71E00080B1E000827
:101F50000B1E00080B1E00080B1E00080B1E0008BD
:101F60000B1E00080B1E00080B1E00080B1E0008AD
:101F70000B1E00080B1E00080B1E00080B1E00089D
:101F80008F1E00089B1E000801239AE7022398E792
:101F9000124A136823EA06031360A1E70F4A536845
:101FA00023EA06035360A3E70C4A936823EA060377
:101FB0009360A5E7094AD36823EA0606D660A7E737
:101FC00002B0F0BC704700BF0000221000003110CA
:101FD00000100240000001400008014000040140E0
:101FE0000AB10161704709040161704703685A69C9
:101FF00012F4806F01D1002070476FF480625A6143
:1020000000230363202280F83D2080F83E30026CDC
:1020100042F00402026480F83C30012070472DE950
:10202000F04107460D4690461E4622E0FFF752FE5D
:10203000069BC01AB04200D8DEB900233B632022C1
:1020400087F83D2087F83E303A6C42F020023A642F
:1020500087F83C3001201AE03B689C6925EA0404BB
:10206000A4B2B4FA84F46409A0450FD1B6F1FF3FDD
:10207000DCD1C5F30743012BEED13B685C6925EA4F
:102080000404A4B2B4FA84F46409EDE70020BDE8C6
:10209000F0812DE9F04105460E46174698463DE091
:1020A0001A6842F400721A602B686FF480625A61F9
:1020B00000232B63202285F83D2085F83E302A6CD2
:1020C00042F004022A6485F83C30012034E0FFF736
:1020D00001FEA0EB0800B84200D8FFB900232B6333
:1020E000202285F83D2085F83E302A6C42F02002FF
:1020F0002A6485F83C3001201EE02B689C6926EAA2
:102100000404A4B2003C18BF0124A4B12B685A698E
:1021100012F4806FC4D1B7F1FF3FD8D1C6F30743A3
:10212000012BEAD12B685C6926EA0404A4B2003CC6
:1021300018BF0124E9E70020BDE8F081F0B583B0C5
:1021400004460D4616461F46C36A082B0DD0012BC8
:102150000BD013F5803F08D0036B122B0AD1026815
:10216000136843F48073136004E02268136843F437
:10217000807313600097334600224FF00111204610
:10218000FFF74DFF80B92369B3F5804F16D123685F
:1021900005F0FE051D613B46324613492046FFF718
:1021A00078FFF8B903B0F0BD23681B6813F4807F93
:1021B00002D04FF4007323640320F3E7EB1122688D
:1021C00003F0060343F0F00313613B463246074930
:1021D0002046FFF75EFF18B92368EDB21D61DAE70C
:1021E0000120DFE70120DDE7020001000800010017
:1021F0002DE9F04184B004460D4616461F46C26ADA
:1022000001680B6843F480630B60082A0DD0012A33
:102210000BD012F5803F08D0036B112B0AD1026856
:10222000136843F48073136004E02268136843F476
:10223000807313600097334600224FF0011120464F
:10224000FFF7EDFE98B92369B3F5804F19D12368E4
:1022500045F00105EDB21D613B4632462A49204654
:10226000FFF717FF00284CD104B0BDE8F0812368C8
:102270001B6813F4807F02D04FF4007323640320A3
:10228000F2E74FEAE51808F00608236848F0F00284
:102290001A613B4632461D492046FFF7FAFE08B157
:1022A0000120E1E72368EDB21D613B463246164945
:1022B0002046FFF7EEFE08B10120D5E70022039289
:1022C000236859690391996903910399196841F445
:1022D00080711960009733464FF001112046FFF7D7
:1022E0009EFE20B9226848F0F1031361B4E7236829
:1022F0001B6813F4807F02D04FF400732364032023
:10230000B2E70120B0E700BF0200010008000100B1
:1023100070B504460D46164623685B6913F0800FBE
:102320001CD12046FFF762FED0B9B5F1FF3FF3D0D4
:10233000FFF7D0FC801BA84201D8002DECD1002370
:102340002363202284F83D2084F83E30226C42F042
:102350002002226484F83C30012000E0002070BD9F
:102360000120FCE770B504460D46164623685B69FC
:1023700013F0040F1CD12046FFF738FED0B9B5F199
:10238000FF3FF3D0FFF7A6FC801BA84201D8002D29
:10239000ECD100232363202284F83D2084F83E30D2
:1023A000226C42F02002226484F83C30012000E0DC
:1023B000002070BD0120FCE770B505460C461646AE
:1023C0002B68596911F0400F29D1596911F0100F8C
:1023D00015D1FFF77FFC801BA04201D8002CEFD164
:1023E00000232B63202285F83D2085F83E302A6C9F
:1023F00042F020022A6485F83C30012070BD6FF065
:1024000010025A6100232B63202285F83D2085F8B5
:102410003E302A6C2A6485F83C300120EEE700202B
:10242000ECE70000002800F0CC80F8B5044690F8F6
:102430003D30002B77D0242384F83D302268136888
:1024400023F0010313602268136843F40043136010
:102450002268136823F40043136000F02DFE6268C5
:102460005A4B9A4264D85A4B98428CBF002301239E
:10247000002B40F0A880574DA5FB0035AF0C266817
:10248000716821F03F0141EA9541716021680B6A52
:1024900023F03F0365684D4A95424FD87A1C134399
:1024A0000B622568E96921F44F4121F0FF0163685F
:1024B000464A93424CD801385B00B0FBF3F0013040
:1024C00040F6FC73184278D0C0F30B030B43EB616A
:1024D00021680B6823F0C003E269206A02431343BA
:1024E0000B6021688B6823F4034323F0FF03226908
:1024F000E068024313438B602168CB6823F0FF033D
:102500006269A06902431343CB602268136843F0F9
:102510000103136000202064202384F83D302063F1
:1025200084F83E00F8BD80F83C30FFF753FA82E7AC
:10253000294B98428CBF0023012399E74FF49672F0
:1025400002FB07F2254DA5FB025292090132A6E7D4
:10255000A268BAB9461E03EB4307B6FBF7F601368D
:10256000C6F30B06B6FA86F6760946BBC2B9421E1A
:1025700003EB4303B2FBF3F20132C2F30B0242F46A
:102580000043A3E7461E03EB830707EB8707B6FB71
:10259000F7F60136C6F30B06B6FA86F67609E4E7D7
:1025A000421E03EB830303EB8303B2FBF3F201321E
:1025B000C2F30B0242F4404388E7042386E7012379
:1025C00084E7012070470120ACE700BFA08601002E
:1025D0007F841E0083DE1B43FF083D00D34D621045
:1025E0002DE9F04385B004460F46914698460C9E6F
:1025F000FFF770FB054694F83D00C0B2202804D0D8
:102600000227384605B0BDE8F08300951923012262
:102610004F492046FFF703FD002840F0928094F8D0
:102620003C30012B00F08F80012384F83C3023687C
:102630001A6812F0010F03D11A6842F001021A6001
:102640002268136823F400631360212384F83D306B
:10265000102384F83E3000232364C4F82490A4F8A7
:102660002A80638D23853B4BE3622B4632463946F5
:102670002046FFF763FD0746002866D10023039339
:1026800023685A6903929B690393039B11E0236CAF
:10269000042B01D00127B4E72268136843F40073C8
:1026A0001360F7E72A4631462046FFF75BFE002815
:1026B0002ED1238D002B36D02A4631462046FFF7F7
:1026C00027FE0028E3D1626A236812781A61616AE2
:1026D0004B1C6362638D9BB2013B9BB26385238D70
:1026E000013B9BB223852268506910F0040FD9D0BA
:1026F000002BD7D04B781361636A01336362638D1B
:102700009BB2013B9BB26385238D013B2385C9E7C7
:10271000236C042B01D0012773E72268136843F46C
:1027200000731360F7E72268136843F400731360C3
:10273000202384F83D30002384F83E3084F83C3078
:102740005FE702275DE702275BE7012759E700BF44
:10275000020010000000FFFF2DE9F04389B004469D
:102760000F4691469846109E00230793FFF7B2FA52
:10277000054694F83D00C0B2202804D00227384610
:1027800009B0BDE8F0830095192301229D49204638
:10279000FFF745FC002840F0728194F83C30012B93
:1027A00000F06F81012384F83C3023681A6812F02E
:1027B000010F03D11A6842F001021A6022681368FF
:1027C00023F400631360222384F83D30102384F83F
:1027D0003E3000232364C4F82490A4F82A80638D3B
:1027E0002385894BE3622B46324639462046FFF764
:1027F000FFFC0746002840F04681238D5BB9039318
:1028000023685A6903929A690392039A1A6842F4F8
:1028100000721A6076E0012B0FD0022B21D02268C3
:10282000136843F4806313600023069323685A6996
:1028300006929B690693069B64E02268136823F462
:102840008063136072B60023049323685A6904926C
:102850009A690492049A1A6842F400721A6062B685
:1028600050E02268136843F40063136072B60023DB
:10287000059323685A6905929A690592059A1A6820
:1028800022F480621A6062B63CE02A463146204655
:10289000FFF792FD002840F0F88023681A69636A08
:1028A0001A70636A01336362238D013B2385638D54
:1028B0009BB2013B9BB2638524E072B62268136829
:1028C00043F40073136023681A69636A1A70636AB9
:1028D00001336362238D013B2385638D9BB2013BF2
:1028E0009BB2638562B623681A69636A1A70636A69
:1028F00001336362238D013B2385638D9BB2013BD2
:102900009BB26385238D002B00F0B080032B00F277
:102910008380012BB9D0022B0AD1009533460022C7
:102920003A492046FFF77BFB0028C6D0012726E75F
:1029300000953346002235492046FFF770FB0028FA
:1029400040F0A5802268136823F48063136072B698
:1029500023681A69636A1A70636A01336362238D9C
:10296000013B2385638D9BB2013B9BB26385284B62
:102970001B68DB08274AA2FB03231B0A03EB830324
:10298000C3EBC3030793079B013B0793079B002BF4
:1029900028D023685A6912F0040FF4D01A6842F460
:1029A00000721A6023681A69636A1A70636A0133D5
:1029B0006362238D013B2385638D9BB2013B9BB2F8
:1029C000638562B623681A69636A1A70636A0133A1
:1029D0006362238D013B2385638D9BB2013B9BB2D8
:1029E00063858FE72363202284F83D2084F83E30FE
:1029F000226C42F02002226462B684F83C30012747
:102A0000BDE600BF020010000000FFFF040001004F
:102A10000400002089B5F8142A4631462046FFF705
:102A2000CBFC002835D123681A69636A1A70626A80
:102A3000531C6362238D013B2385638D9BB2013B55
:102A40009BB263852368596911F0040F3FF45AAFB4
:102A50001B695370636A01336362238D013B2385D5
:102A6000638D9BB2013B9BB263854BE7202384F8C7
:102A70003D30002384F83E3084F83C307FE6022766
:102A80007DE602277BE6012779E6012777E6012725
:102A900075E6012773E600BF82B0084B1B68084A41
:102AA000A2FB03235B0A00FB03F3019300BF019B1E
:102AB0005A1E0192002BF9D102B070470400002089
:102AC000D34D6210002800F0F18170B582B0044649
:102AD000036813F0010F2CD0AA4B5B6803F00C03C2
:102AE000042B1DD0A74B5B6803F00C03082B12D0FE
:102AF0006368B3F5803F41D0002B55D103F180438B
:102B000003F504331A6822F480321A601A6822F43A
:102B100080221A6037E09B4B5B6813F4803FE7D05C
:102B2000984B1B6813F4003F03D06368002B00F040
:102B3000BF81236813F0020F75D0924B5B6813F0CE
:102B40000C0F5FD08F4B5B6803F00C03082B54D045
:102B50002369002B00F089808B4B01221A60FFF75C
:102B6000B9F80546874B1B6813F0020F74D1FFF7C5
:102B7000B1F8401B0228F5D903209EE1814A136871
:102B800043F480331360636843B3FFF7A3F805464B
:102B90007C4B1B6813F4003FCBD1FFF79BF8401B25
:102BA0006428F5D9032088E1B3F5A02F09D0754B2F
:102BB0001A6822F480321A601A6822F480221A609D
:102BC000E1E703F18043A3F53C331A6842F4802225
:102BD0001A601A6842F480321A60D4E7FFF77AF874
:102BE0000546684B1B6813F4003FA2D0FFF772F84C
:102BF000401B6428F5D903205FE1624B5B6813F446
:102C0000803FA5D15F4B1B6813F0020F03D02369EF
:102C1000012B40F04F815B4A136823F0F803616990
:102C200043EAC1031360236813F0080F32D0A3698D
:102C3000002B45D0554B01221A60FFF74BF8054693
:102C4000504B5B6A13F0020F21D1FFF743F8401B92
:102C50000228F5D9032030E14A4A136823F0F8032B
:102C6000616943EAC1031360DDE7474B00221A6044
:102C7000FFF730F80546434B1B6813F0020FD2D024
:102C8000FFF728F8401B0228F5D9032015E10120A1
:102C9000FFF702FF236813F0040F00F09780394B11
:102CA000DB6913F0805F1DD1364BDA6942F0805248
:102CB000DA61DB6903F080530193019B012512E087
:102CC000324B00221A60FFF705F805462D4B5B6A70
:102CD00013F0020FDED0FEF7FDFF401B0228F5D9EE
:102CE0000320EAE000252A4B1B6813F4807F11D0F3
:102CF000E368012B22D0002B38D103F1804303F588
:102D000004331A6A22F001021A621A6A22F00402DB
:102D10001A6218E01E4A136843F480731360FEF7CA
:102D2000D9FF06461A4B1B6813F4807FE0D1FEF7EB
:102D3000D1FF801B6428F5D90320BEE0114A136A35
:102D400043F001031362E36873B3FEF7C3FF064663
:102D50000C4B1B6A13F0020F37D1FEF7BBFF801B31
:102D600041F288339842F3D90320A6E0052B11D015
:102D7000044B1A6A22F001021A621A6A22F0040253
:102D80001A62E0E700100240000042428004424222
:102D9000007000404D4B1A6A42F004021A621A6A2F
:102DA00042F001021A62CEE7FEF794FF0646474B57
:102DB0001B6A13F0020F08D0FEF78CFF801B41F254
:102DC00088339842F3D9032077E0E5B9E369002B13
:102DD00072D03E4A526802F00C02082A56D0022BEA
:102DE00017D03B4B00221A60FEF774FF0446374BA6
:102DF0001B6813F0007F47D0FEF76CFF001B022812
:102E0000F5D9032059E0314AD36923F08053D361C7
:102E1000DCE72F4B00221A60FEF75CFF05462B4BC8
:102E20001B6813F0007F06D0FEF754FF401B0228FA
:102E3000F5D9032041E0236AB3F5803F1AD0234936
:102E40004B6823F47413226A606A024313434B6095
:102E50001F4B01221A60FEF73DFF04461B4B1B6807
:102E600013F0007F0ED1FEF735FF001B0228F5D9C5
:102E7000032022E0154A536823F40033A1680B4372
:102E80005360DCE7002018E0002016E0012B16D08C
:102E90000E4B5B6803F48031226A914211D103F436
:102EA0007013626A93420ED1002006E00120704741
:102EB000012002E0012000E0002002B070BD0120EE
:102EC000FBE70120F9E70120F7E700BF001002400F
:102ED0006000424286B0164B0FCB0DF1180C0CE986
:102EE0000F0040F20123ADF80430124B5B6803F091
:102EF0000C02082A02D0104806B07047C3F3834280
:102F0000624412F8102C13F4803F0CD0094B5B681C
:102F1000C3F34043634413F8143C074800FB02F03A
:102F2000B0FBF3F0E8E7054800FB02F0E4E700BF80
:102F3000A49700080010024000127A0000093D002A
:102F4000002800F0A08070B50D460446524B1B6867
:102F500003F007038B420BD24F4A136823F0070399
:102F60000B431360136803F007038B4240F08D801E
:102F7000236813F0020F17D013F0040F04D0474A50
:102F8000536843F4E0635360236813F0080F04D0E0
:102F9000424A536843F460535360404A536823F0F5
:102FA000F003A1680B435360236813F0010F31D085
:102FB0006368012B20D0022B25D0384A126812F00A
:102FC000020F64D035494A6822F0030213434B6074
:102FD000FEF780FE0646314B5B6803F00C03626827
:102FE000B3EB820F16D0FEF775FE801B41F28833DB
:102FF0009842F0D9032045E0284A126812F4003FB5
:10300000E0D101203EE0254A126812F0007FD9D1BC
:10301000012037E0204B1B6803F00703AB420AD9BD
:103020001D4A136823F007032B431360136803F052
:103030000703AB422DD1236813F0040F06D0174AC3
:10304000536823F4E063E1680B435360236813F093
:10305000080F07D0114A536823F46053216943EAEB
:10306000C1035360FFF736FF0C4B5B68C3F30313D8
:103070000B4AD35CD8400B4B18600B4B1868FEF71B
:10308000E5FD002070BD012070470120FAE7012016
:10309000F8E70120F6E700BF0020024000100240E0
:1030A0008C970008040000200C000020014B1868D9
:1030B000704700BF0400002008B5FFF7F7FF044B7E
:1030C0005B68C3F30223034AD35CD84008BD00BF4A
:1030D000001002409C97000808B5FFF7E7FF044B7B
:1030E0005B68C3F3C223034AD35CD84008BD00BF6A
:1030F000001002409C97000810B50446026813694E
:1031000023F44053C1680B4313618368026913437E
:1031100042691A430168CB6823F4B05323F00C03CF
:103120001343CB600268536923F4407381690B43F6
:1031300053610268124B9A421FD0FFF7BDFF00EBAC
:10314000800303EB830362689200B3FBF2F20D4845
:10315000A0FB02314909642303FB11231B01323315
:10316000A0FB03235B0903F0F00202EB011203F062
:103170000F03216813448B6010BDFFF7ADFFDEE73E
:10318000003801401F85EB512DE9F84305460F46F5
:1031900016469946DDF820802C68246837EA040337
:1031A0000CBF01240024B4421FD1B8F1FF3FF3D07B
:1031B000B8F1000F05D0FEF78DFDA0EB09004045EA
:1031C000EAD92A68D36823F4D073D3602A68536994
:1031D00023F001035361202385F83D3085F83E300C
:1031E000002385F83C30032000E00020BDE8F88390
:1031F00058B310B5044690F83D300BB3242384F83F
:103200003D302268D36823F40053D3602046FFF793
:1032100073FF2268136923F4904313612268536992
:1032200023F02A0353612268D36843F40053D36028
:1032300000202064202384F83D3084F83E3010BD07
:1032400080F83C30FEF7C6FCD8E7012070472DE936
:10325000F04182B01E4690F83D30DBB2202B54D1B5
:1032600004460D469046002953D0002A53D090F8CA
:103270003C30012B51D0012380F83C300023036403
:10328000212380F83D30FEF725FD0746A4F8248071
:10329000A4F82680A368B3F5805F05D04FF000083E
:1032A000002384F83C3012E0236913B14FF000088A
:1032B000F6E7A8460025F3E738F8023B2268C3F397
:1032C00008035360E28C92B2013A92B2E284E38C3A
:1032D0009BB273B100963B46002280212046FFF747
:1032E00053FFE0B9002DE7D015F8012B23685A6091
:1032F000E8E700963B46002240212046FFF744FFC6
:1033000078B9202384F83D3000E0022002B0BDE807
:10331000F0810120FAE70120F8E70220F6E7032018
:10332000F4E70320F2E72DE9F04182B01E4690F861
:103330003E30DBB2202B5CD104460D46904600297E
:103340005BD0002A5BD090F83C30012B59D0012390
:1033500080F83C3000230364222280F83E2003637F
:10336000FEF7B8FC0746A4F82C80A4F82E80A368CA
:10337000B3F5805F05D04FF00008002384F83C309F
:1033800017E0236913B14FF00008F6E7A8460025BF
:10339000F3E723685B68C3F3080328F8023B03E004
:1033A00023685B682B700135E28D92B2013A92B2CC
:1033B000E285E38D9BB2BBB100963B460022202103
:1033C0002046FFF7E1FEF0B9002DE2D0A368B3F587
:1033D000805FE5D013B92369002BE1D023685B68D7
:1033E00003F07F032B70DEE7202384F83E300020BB
:1033F00000E0022002B0BDE8F0810120FAE70120E0
:10340000F8E70220F6E70320F4E7000008B5054BD3
:103410001860054B1868002302221946806801F0E5
:1034200057FC08BD800A002010000020022801D8A7
:103430000120704708B500F0F1FE09230360002069
:1034400008BD0000013801280AD810B514464FF015
:10345000FF3392B204480068FFF7F9FE204610BD22
:103460004FF0FF30704700BF800A0020022801D8CB
:103470000020704708B500F0D1FE092303604FF02B
:10348000FF3008BD08B500F0C9FE092303604FF006
:10349000FF3008BD08B548B94FF0FF330122084896
:1034A0000068FFF740FF40B9012008BD00F0B6FEFC
:1034B000092303604FF0FF30F7E70520F5E700BF71
:1034C000800A002008B5022804D84FF400534B604E
:1034D000002008BD00F0A2FE09230360F8E7000009
:1034E000012800D0704708B54FF6FF73994200D00D
:1034F00008BD682202490348FDF7FEFFF8E700BF58
:10350000E0090020840A002010B50A4C2046FDF78F
:10351000A1FF1E20FEF7E4FB2046FDF7C5FF0028B3
:10352000F3D00448FDF769FF0146034801F0BAF9FA
:10353000F7E700BF840A0020B897000808B54FF6E7
:10354000FF710120FFF7CCFF08BD00000C480D49BA
:103550000D4A002302E0D458C4500433C4188C42EE
:10356000F9D30A4A0A4C002301E013600432A24254
:10357000FBD3FEF713FB00F057FEFEF79BFA7047F4
:1035800000000020C0090020989B0008C00900200E
:10359000F80B0020FEE7000003685A004CBF43F020
:1035A000004323F000431844704700BF2DE9F8435F
:1035B00029B34F1E044615463E464FF0000808EB5F
:1035C000060101EBD171491004EBC1094846FFF730
:1035D000E3FF0346C80008308F42204409D0AB42C5
:1035E00009D8FFF7D9FF0138A8420AD201F1010832
:1035F000E5E7AB4205D9884501D04E1EDFE74FF025
:1036000000094846BDE8F883012807D0022807D002
:10361000044B00280CBF1846002070470248704732
:1036200002487047B93C0008C13C0008C93C00088A
:1036300030B5244B044683B08D1E3BB3284601A908
:10364000AFF30080E8B101992A46FFF7AFFF0146CA
:10365000B8B1FFF7A1FF4B68A064012B2DD0002B60
:1036600026DB081DFFF798FF0023C4E91303036856
:10367000002B12DBFFF790FF03460020236103B00D
:1036800030BD00230920236103B030BD0E4B0F492C
:103690001846C91AC9100191D6E7C3F30360FFF7B2
:1036A000B3FF0028206114BF0020092003B030BD03
:1036B0000123081DC4E91303D9E700230520236172
:1036C000DDE700BF00000000609A0008889B00084A
:1036D000036810B5DA07044606D49B0700F14800DA
:1036E00009D5FDF7F1FB2368590709D51A070ED54F
:1036F000DB0613D510BDFDF7DFFB23685907F5D4B2
:1037000004F1D000FDF7E8FB23681A07F0D404F5B4
:10371000A870FDF7E9FB2368DB06EBD404F5E8703D
:10372000BDE81040FDF724BC0346006800B1184412
:10373000704700BF704700BF70B504460E46204674
:10374000316CFFF775FF054688B9326C214662611E
:1037500001203246236998470828F0D0072806D16F
:103760002846316CFFF7E6FF301DFDF799FB00F0AE
:103770004DFD00BF2DE9F04706464FF0000CADF5BA
:10378000727D03AD0C1D91460FCC0FC50FCC0FC53C
:103790000FCC0FC594E80F00F768D6F8188085E8BD
:1037A0000F0002ADC5F800C021E02B6C4FF4F072A1
:1037B000736129467AA8FDF749FC314634697AAA33
:1037C0005046A047889BCDE9005804466B644946A3
:1037D000334632460120B8470346F0B94FF4F07241
:1037E00028467AA99946FDF731FC082C1BD13046B2
:1037F000296CFFF71DFF09F1090904465FFA89FAF0
:103800000028D2D0AB6B3246CDE9005801206B6462
:103810004AF010013346B84700B1092420460DF59F
:10382000727DBDE8F087072CF7D14846296CFFF779
:1038300081FF03A8FDF734FB4FF0FF3CF0B5CB6BE5
:10384000F9B00B640E1D01AC0F4605460FCE0FC438
:103850000FCE0FC40FCE0FC496E80F0084E80F0000
:10386000CDF800C006E06A4629462B69984708282B
:10387000044608D128461099FFF7DAFE0028F2D056
:10388000092079B0F0BD6846FFF722FF062CF7D17A
:1038900039462846FFF750FF30B4DD6BC1608261C6
:1038A00019461D64002230BCFFF764BF70B5436940
:1038B000C6680B64AEB90A46036904460D46014664
:1038C00002209847072805D008280FD1294620460E
:1038D000FFF732FF3046296CFFF72CFF281DFDF75C
:1038E000DFFA0122FFF746FF00F090FC00F08EFCAB
:1038F000C26832B110B4CC6B00220C6410BCFFF76C
:1039000039BFFFF799BF00BF012912D009D873B999
:103910000F2A0CD800EB820042681846009B1A6000
:1039200070470339012994BF01200220704702200B
:1039300070470846704700BF002310B584B003AC41
:103940000A4600941946FFF7DFFF039804B010BD44
:10395000012912D009D873B90F2A0CD8009900EBAD
:10396000820209681846516070470339012994BFE3
:10397000012002207047022070470846704700BFB0
:1039800030B500230D4685B003AC039219462A4694
:103990000094FFF7DDFF05B030BD00BF4FF0FF3CE6
:1039A000F0B5D36BADF50F7D1364151D17AC07464D
:1039B0000E460FCD0FC40FCD0FC40FCD0FC495E829
:1039C0000F0084E80F00CDF858C012E00C2116A8B3
:1039D0006A46FFF7D5FF314616A8B84778B9694659
:1039E0000820049B16AA98470528044608D00928F1
:1039F00005D068462699FFF71BFE0028E6D009246B
:103A000016A8FFF765FE20460DF50F7DF0BD00BF3F
:103A10002DE9F04FCC6C174654F8042B89B00D46B5
:103A20001E4600F003080694002B79D00221130CE7
:103A30008DF81D301204DBB204EB830405928DF87F
:103A40001C102B6DB8F1020F08BFAC6B13F0010313
:103A50000CD0384605A900F08BFA18B9082009B037
:103A6000BDE8F08F092009B0BDE8F08FD4F800A0C0
:103A7000BAF1000FEDD0019300F008030293022E7B
:103A80004AD0B4F800A0B4F802900434AA6C0F2114
:103A9000384629F0010B9344FFF74EFF834539D890
:103AA0002AF001025A44824294BF002001204FEACA
:103AB000490303F002030AF0010A43EA0A03012B57
:103AC00049D0022B32D0002BCCD1B8F1000F02D05C
:103AD000002840F0CD800434D4F800A0BAF1000FE3
:103AE000CDD1384605A900F043FA0028BAD1019B90
:103AF000002BB3D00F213846FFF71EFF0E210246E0
:103B00003846FFF73DFF38460F216A4AFFF738FF76
:103B10000720A8E70020CAE7D4F804900834B5E7E6
:103B2000032312020592ADF81C308AE7236823F0C4
:103B3000004BB8F1000F45D128B1029A002A5CD0A1
:103B4000BBF1000F74D0002B00DA04340BF1010B31
:103B500004EB8B04C0E7B8F1000F19D1B0B1D4E980
:103B60000023991C4FEAD2723FF47CAF05F1580153
:103B70000133049100F09080201DFFF7D5FD04ABC8
:103B800001462846AFF3008000285BD10834A3E744
:103B90000D213846D5F82090FFF7CEFE8145F5D1AE
:103BA000AB6A9C42F2D12046FFF7F6FC0F21024699
:103BB0003846FFF7E5FE38462A460021FFF7E0FECB
:103BC000072050E70D213846D5F82090FFF7B4FEC6
:103BD000814501D02368B6E7AB6A9C42FAD1042242
:103BE0000021C5E90B12A318C5F828B06B63236840
:103BF0008B4259DB01230193A8E705F15803CDF867
:103C00000C809146B04604F1040A1E460EE0504670
:103C10000496FFF789FD0022014604AB2846AFF366
:103C2000008009F101090AF1040AE0B9D945EED191
:103C300038460D21FFF780FE049B2862C5E9093450
:103C4000062010E781460D213846FFF775FEB9F1D1
:103C5000020F286225D12B46049A43F82C2F6B6261
:103C60000620AC62FFE646462368DDF80C806AE772
:103C70002046FFF791FC02460434AC632846144604
:103C8000AFF3008000283FF4EDAE384622460F2106
:103C9000FFF776FE0720E6E638460D21FFF74CFEDB
:103CA0002862049B6B62DBE70BF1010004EB8000F0
:103CB0007AE700BF000000000023FFF7A9BE00BFA5
:103CC0000123FFF7A5BE00BF0223FFF7A1BE00BF7F
:103CD0002DE9F043064615461C46C3B0042900F200
:103CE000B280DFE801F09650B0270300002C40F0CE
:103CF000AA80102A00F2A7800368D80600F1EB80A2
:103D000020AF3846FDF73EF900230120B26B00FAE0
:103D100003F129421CBF52F8041B47F8231001335A
:103D2000042BF4D13846B263FDF722F9002043B0EA
:103D3000BDE8F083032C40F0868094B204EB12437C
:103D4000102B4FEA12457ED803681F0700F1CB8085
:103D500020AF3846FDF7EAF807EBC501B56B54B163
:103D60000B4601EBC401E81AE4001A5843F8042B8F
:103D70008B42FAD125443846B563FDF7B5F80020EB
:103D800043B0BDE8F083012C4FEA124895B256D0FB
:103D9000052C58D108EB0509B9F1200F53D8B8F11B
:103DA0000F0F73D9A946002D40F08480B36B65B323
:103DB00020AF4FF0000907EBC807043F03EBC50530
:103DC00053F8041BAB4247F8041FF9D1B9F1000FB7
:103DD0000FD06F464146102938BF102107EBC101B3
:103DE000843903EBC90553F8040BAB4241F8040FC7
:103DF000F9D1012C7FD0B8F10F0FB56342D9B9F1D9
:103E0000000F02D06846FDF767F8002043B0BDE818
:103E1000F083C4B923460124826B371DA8B204FA8B
:103E200003F101421CBF52F8041B47F82310013371
:103E3000102BF4D115F40050E7D1B26304E008EB85
:103E40000503102B03D9022043B0BDE8F083B8F17D
:103E50000F0FF8D83368DA0706D5304623F003038E
:103E600040F8483BFDF72CF820AF3846FDF728F81E
:103E7000B36B002D9DD11D4604353846B563FDF763
:103E80001BF8C2E720A8FDF71FF8B8E7B9F1100F3B
:103E90003FD9A9F110093368D90708D5304623F076
:103EA000010343F0020340F8483BFDF711F8B9F174
:103EB000000F31D033685A071FD4B8F10F0F24D93F
:103EC0006F46C8F110053846FDF70AF8002DB36BB0
:103ED00080DD20AF6FE723F01003336006F5E87054
:103EE000FDF750F80CE723F00803036000F5A87015
:103EF000FDF71CF82CE720AFBEE7304623F00403A3
:103F000040F8D03BFCF7ECFFD7E720A8FCF7E0FF38
:103F1000D6E74FF00009BEE7B8F10F0F3FF646AF06
:103F200020AF3846FCF7D4FFB36B002D7FF441AFD0
:103F30003846FCF7C9FF68E7027A7AB9437AA3B139
:103F400003214268013B10B443721368141D0172CF
:103F50001A024460026010BC180E70470368013AF0
:103F600002721A020260180E7047B020704700BF3C
:103F70002DE9F04305460E464FF0000885B0304667
:103F8000FFF7DAFFB028044600F0B180070620D51D
:103F900000F0F003802B4DD0902B36D0A02B60D0BA
:103FA000B02B73D0C02B00F08A8000F0F803D02B28
:103FB0000BD100F00702013242F400220523012157
:103FC0002846FFF785FE0028D9D0092005B0BDE8B6
:103FD000F08300230DF10C0919460D228700CDF85E
:103FE00000902846FFF790FCFFB2039B0437600661
:103FF0004CBFDF1BFF1800230D2219462846CDF8C1
:1040000000900397FFF7A4FCB9E700F00D030D2B18
:10401000DBD0002303AF194600F00F0200972846BB
:10402000FFF772FC00230D22194628460097FFF780
:104030008FFCA4E73046FFF77FFF24022043B0F552
:10404000004FC2D00023040119462846A2B2FFF750
:104050003FFE0028B9D114F4004F18BF4FF00108FB
:104060008DE7C3434FF47F6203F007031A41002337
:10407000010702F47F6248BF42F480421946284695
:10408000FFF726FE00283FF47AAF9EE7B12833D031
:10409000B22800F08B80B32839D000F0FC03B42B99
:1040A00093D0012300F007021A4442F4002219467B
:1040B0002846FFF70DFE00283FF461AF85E7C628CC
:1040C00042D0C7284CD000F0F803C02B5BD0C828E2
:1040D00060D0C9287FF479AF3046FFF72DFF020387
:1040E00000F00F0002F470220130024366E7B8F1DD
:1040F000000F18D0002069E73046FFF71DFF024689
:1041000000283FF462AF10F0F003D0D05DE73046F6
:10411000FFF712FF0123010300F00F0001F47021EB
:10412000C2180A43C3E703AC43460E224146284661
:104130000094FFF7E9FB284643460F2241460094CE
:10414000FFF706FC404641E73046FFF7F5FE010366
:1041500000F00F0001F47021421C03230A43A6E77C
:104160003046FFF7E9FE024600283FF42EAF10F07C
:10417000F0037FF42AAF04212846FFF7A9FD0028A9
:104180003FF4FDAE21E700F00F020132032342F4B9
:1041900020228CE73046FFF7CFFE00F0F00200F05F
:1041A0000F031032013343EA023207E700230DF117
:1041B0000C090D2219462846CDF80090FFF7A4FB04
:1041C0003046FFF7B9FE02064FF002040CD5039B00
:1041D00000F07F00A040034430460393FFF7ACFE9D
:1041E000030604F10704F2D40023039A00F07F00D1
:1041F00000FA04F402F50172144419460D2228460F
:10420000CDF800900394FFF7A3FBB8E6062008B5AD
:1042100000F05AFE0120FDF79DFC00BF014B18681D
:10422000704700BF1000002070B50D4E0D4D761B7D
:10423000B61006D0002455F8043B01349847A64236
:10424000F9D1094E094D05F093FA761BB61006D048
:10425000002455F8043B01349847A642F9D170BDBB
:10426000889B0008889B0008949B0008889B000896
:10427000024B0146186800F00BB800BF1000002088
:10428000024B0146186803F071BE00BF1000002009
:104290002DE9F04F01F10B05162D064683B024D809
:1042A000102900F2B68000F0F1FA10250220182340
:1042B000DFF8E88443445C68A3F10802944200F00C
:1042C000B4806368E16823F0030323445A68A56857
:1042D00042F00102E96030468D6008345A6000F017
:1042E000DBFA204603B0BDE8F08F35F0070500F19A
:1042F0009080A94200F28D8000F0C8FAB5F5FC7FED
:10430000C0F085816B0A00F08B80042B00F25B818A
:10431000AB0903F1390003F13807C100DFF87C84F1
:1043200041444C680839A14206D10CE0002A80F2D1
:104330002281E468A14206D0636823F003035A1B7C
:104340000F2AF3DD3846D8F81040DFF854C464452E
:1043500077D0626822F00302531B0F2B00F36581B4
:10436000002BC8E904CC80F25681B2F5007F80F0C2
:1043700006810121D30852090B4401FA02F2D8F850
:10438000041058F8337008EBC30E0A43AEF108016D
:10439000C4E90271C8F8042048F83340FC600121E8
:1043A00083109940914253D8114206D120F0030066
:1043B0004900114200F10400FAD008EBC0094C4654
:1043C0008646E768BC4207D109E1002B80F21081E4
:1043D000FF68BC4200F003817A6822F00302531B9D
:1043E0000F2BF2DD45F0010E3046D7E902413D4486
:1043F00043F00106C7F804E0E1608C60C8E90455A9
:10440000C5E902CC6E60BB5000F046FA07F1080423
:1044100002E00C2300243360204603B0BDE8F08F97
:104420004FF4007140203F2778E7DC68A34208BFC3
:1044300002307FF446AFD8F81040DFF864C364451B
:1044400087D10121D8F80420831099409142ABD93B
:10445000D8F80840676827F00307BD4202D87B1BE5
:104460000F2B77DCDFF83C93C84BD9F800201B6892
:1044700001322B4404EB070A00F0248103F580533A
:104480000F3323F47F6B2BF00F0B5946304600F0AF
:104490000DFC411C024600F0E180824500F2DC8008
:1044A000BB4B196859440846196000F04181D9F89E
:1044B0000010019301311BBFA2EB0A0A5044C9F856
:1044C0000020186012F0070A00F00A81CAF1080102
:1044D0000A44CAF5805193440831A1EB0B01C1F3A2
:1044E0000B0949463046009200F0E0FB421CDDE932
:1044F000002300F04381801A00EB090B19684BF090
:10450000010049444445C8F808201960506000F093
:104510001C810F2F40F21B814FF0050C60680C3F8F
:1045200027F0070700F00100384304EB070E0F2FB8
:104530006060CEE901CC00F2378114465068954B9B
:104540001A688A4238BF1960934B1A688A4238BF8A
:10455000196086E045F0010243F0010325446260E2
:104560003046C8F8085008346B6000F095F92046D2
:1045700003B0BDE8F08F23445A68E168A7E6B2F5BE
:10458000206F4FEA522361D3142B00F2BA8003F15B
:104590005C01C9005B3308EB010758F80110083FC4
:1045A0008F4200F092804B6823F00303934202D9BC
:1045B00089688F42F7D1CF68D8F80420C4E9021780
:1045C000BC60CC60EBE6142B59D9542B00F2A180CF
:1045D0002B0B03F16F0003F16E07C1009EE60EF195
:1045E000010E1EF0030F04F108047FF4EAAE51E05F
:1045F0003C463A445368F96854F8085F43F00103B5
:1046000053603046E9608D6000F046F904E7E80841
:1046100005F108034CE622445368304643F0010399
:104620005360083400F038F9F6E645F0010743F02E
:104630000101254467603046C8E90455C5E902CC4C
:104640006960A35000F028F90834E5E6930903F106
:104650003901C90038339EE7444564D0D8F8084092
:10466000606820F0030B5D45ABEB050302D80F2B10
:104670003FF770AF304600F00FF90024CCE603F1AD
:104680005C0003F15B07C10048E659F808394B4567
:1046900040F0A98010F0030F00F1FF30F5D1D8F8F9
:1046A000043023EA0103C8F80430490099423FF678
:1046B000CFAE19B9CCE649000EF1040E1942FAD07A
:1046C00070467AE603F1100BDFE64FF0010E9A1008
:1046D000D8F804300EFA02F21A43C8F804206DE745
:1046E00002EB0B014942C1F30B09494630460092E7
:1046F00000F0DCFA431CDDE900237FF4FCAED14678
:10470000FCE6542B26D8130B03F16F01C9006E335E
:1047100041E7B3F5AA7F26D8EB0B03F1780003F14C
:104720007707C100FAE51A4B186858441860BEE6CE
:10473000CAF30B0CBCF1000F7FF4B9AED8F80840F7
:10474000BB444BF001006060F9E61446F7E6012334
:1047500053608FE7B3F5AA7F32D8D30B03F178010A
:10476000C900773317E740F25452934232D8AB0C6A
:1047700003F17D0003F17C07C100CFE5AAF1080A2F
:10478000D3444FF00009ABEB020BB7E6CC0B002093
:104790009C0B0020C40B0020C80B0020400400200C
:1047A000480400204808002004F108013046009326
:1047B00003F0DCFBD8F80840009B60681968BEE68F
:1047C00040F254518B420AD8930C03F17D01C90089
:1047D0007C33E0E64FF47E717F207E279EE54FF428
:1047E0007E717E23D7E6D8F804305EE7F0B4860702
:1047F00046D0541E002A3CD00346CAB201E0013C18
:1048000037D303F8012B9D07F9D1032C2AD9CDB258
:1048100045EA05250F2C45EA054534D9A4F11002D7
:1048200022F00F0C03F120071609674403F1100270
:1048300042E9045542E902551032BA42F8D1721CDD
:1048400014F00C0F03EB021204F00F0613D0331F09
:1048500023F003030433134442F8045B9342FBD177
:1048600006F003042CB1CAB21C4403F8012B9C428D
:10487000FBD1F0BC704734461346002CF3D1F8E767
:1048800014460346C1E71A462646E0E7014803F00E
:104890009FBC00BFE00B0020014803F09BBC00BFA1
:1048A000E00B00200FB400B5074983B004AB0868E3
:1048B00053F8042B8168019300F026FB03B05DF8E8
:1048C00004EB04B0704700BF100000202DE9F84F42
:1048D0001646002900F0BD8006F10B050C46804607
:1048E000FFF7D4FF162D5FD810252A46AE4260D8B8
:1048F00054F8041CA4F1080921F00307974280F240
:104900008680C94B09EB0700D3F808C0844500F046
:10491000B980D0F804C02CF0010303445B68DB07C6
:1049200000F18C802CF0030C07EB0C03934280F217
:104930001581CB070FD454F8083CA9EB030ADAF829
:10494000043023F003018C44BC44944538DA7B18CE
:10495000934280F20F8131464046FFF799FC0646AC
:10496000E0B154F8043CA0F1080223F001034B44E9
:10497000934200F0F9803A1F242A00F21C81132A86
:1049800000F2CD80034622461168196051685960D3
:1049900092689A602146404603F0E8FA4046FFF7E5
:1049A0007BFF3046BDE8F88F25F00705002D2A462D
:1049B0009CDA0C230026C8F800303046BDE8F88F9A
:1049C0005646D0E90213CB60996056F8081FDAF812
:1049D0000C303A1F242ACB60996000F20781132A19
:1049E00040F2028123681B2ACAF808306368CAF8BB
:1049F0000C3000F21B8108340AF11003226867466C
:104A00001A606268D1465A60A26834469A607B1B7D
:104A10000F2BD9F8042021D802F001023A4309EB08
:104A20000701C9F804204B6843F001034B60264698
:104A30004046FFF731FF3046BDE8F88FC9078AD4FA
:104A400054F8083CA9EB030ADAF8041021F003013A
:104A50007DE71146BDE8F84FFFF71ABC02F00102EE
:104A600009EB050143F001032A43C9F804204F4430
:104A70004B607B68404643F0010308317B6003F0E4
:104A800075FAD4E7DCF804B005F110002BF0030B45
:104A900007EB0B0C84454DDAC9073FF55CAF54F8C2
:104AA000081CA9EB010ADAF8041021F003018B4479
:104AB000BB4458453FF74BAF5646DAF80C1056F852
:104AC000080F3A1F242AC160886000F2BD80132AB3
:104AD00040F2B88021681B2ACAF808106168CAF839
:104AE0000C1000F2C18008340AF110022168116034
:104AF00061685160A1689160ABEB05020AEB0501AA
:104B000042F0010299604A60DAF80430404603F04E
:104B100001031D43CAF80450FFF7BEFE4DE72368AA
:104B20001B2A03606368436049D804F1080200F15E
:104B3000080329E7ACEB050209EB050142F001028D
:104B400099604A6054F8043C404603F001031D4359
:104B500044F8045CFFF7A0FE26462EE7D0E90212D7
:104B60001F46CA60916052E750F8043C23F00303EB
:104B70001F444CE75646DAF80C1056F8080F3A1F57
:104B8000242AC160886027D8132A23D921681B2AC8
:104B9000CAF808106168CAF80C102FD808340AF156
:104BA000100221681F4611606368D1465360A368F4
:104BB000344693602BE7214603F0C6FBEAE6A36880
:104BC000242A8360E368C36024D004F1100200F15A
:104BD0001003D9E63246E4E7214630461F46D14667
:104BE00003F0B2FB344612E7334607E7214630466E
:104BF0006746D14603F0A8FB344608E7A168242A9B
:104C0000CAF81010E168CAF8141023D010340AF161
:104C10001802C6E7236904F118020361616900F113
:104C200018034161B0E600BF40040020A368242AB5
:104C3000CAF81030E368CAF8143021D010340AF1F1
:104C40001803DBE6324651E72146304603F07CFB91
:104C5000154B51E721690AF12002CAF81810616961
:104C60001834CAF81C109CE7A168242ACAF810104E
:104C7000E168CAF814100DD010340AF1180235E7B3
:104C800022690AF12003CAF8182062691834CAF8A8
:104C90001C20B3E621690AF12002CAF818106169E4
:104CA0001834CAF81C1021E740040020002238B54F
:104CB000064D044608462A60FCF752FF431C00D00C
:104CC00038BD2B68002BFBD0236038BDF40B0020CF
:104CD0002DE9F043654D0446D5F800900F46904607
:104CE0001E4683B0B9F1000F03D0D9F83830002B3D
:104CF00079D0B8F1020F06D0B8F1010F00F2A3800D
:104D0000002EC0F2A080636ED90752D521464846D6
:104D100003F030F8216B41B104F14003994202D015
:104D2000484603F023F9002323630023B4F90C5011
:104D3000A36163602B0665D425F44A6525F003055D
:104D4000B8F1020FA58164D001AB6A4621464846FE
:104D500003F042FAA3891843A081002E30D0002F1F
:104D60002FD0D9F83830002B39D0009BC4E9047615
:104D7000B342B4F90C3027601CBF43F40063A38135
:104D8000B8F1010F04BF43F00103A3819AB213F0FD
:104D900008032CD0D10754D500217642A661666E57
:104DA000A16016F0010627D00026304603B0BDE80A
:104DB000F083A3899A05A9D4A06D03F009FAA5E7A9
:104DC000009E3046FFF754FA074600283ED0A389DC
:104DD00043F08003A381D9F83830002BC5D1484671
:104DE00003F024F8C1E7484603F020F881E7A36008
:104DF000666E16F00106D7D193051BD5304603B079
:104E0000BDE8F0834846216903F0B0F8B4F90C50CE
:104E100092E7002600230121626E45F00205A3609F
:104E2000D70704F14303A581616123602361E5D4C1
:104E3000A805E3D4A06D03F0CDF9304603B0BDE87A
:104E4000F083A660D4E74FF0FF36D7E7009DB54268
:104E500004D02846FFF70CFA074620B94FF0FF367A
:104E6000B4F90C50D6E72E46B1E700BF1000002081
:104E70001F2938B5054621D8D0F8DC220C466AB186
:104E800052F8213053B1012B16D0591C10D00025F7
:104E9000204642F824509847284638BD284600F05E
:104EA00031F8224601462846BDE8384000F014B8E3
:104EB000162301202B6038BD002038BD16234FF08B
:104EC000FF302B6038BD00BF024B01461868FFF76A
:104ED000CFBF00BF1000002070B50C46034600266F
:104EE000074D204611461C462E60FCF72BFE431C46
:104EF00000D070BD2B68002BFBD0236070BD00BFBD
:104F0000F40B0020FCF71CBE2DE9F04FD7B01C4677
:104F10008B461746814603F053F903680E941846F2
:104F2000189303F029FE1790B9F1000F04D0D9F8B7
:104F30003830002B00F0EA81DBF8643013F0010F09
:104F4000BBF90C309AB202D19D0540F1B5869004B0
:104F50000AD4DBF8642043F4005322F40051ABF888
:104F60000C309AB2CBF86410110740F1BB80DBF82B
:104F70001030002B00F0B68002F01A030A2B00F06C
:104F8000BF80002300210022CDE92B33CDE91A3365
:104F9000CDE91C33139319930A932DAB98462A93AA
:104FA0003B78DA46CDE91412002B00F060813C46D4
:104FB00004E014F8013F002B00F0B980252BF8D154
:104FC000E51B40F0B7802378002B00F050810023D0
:104FD0000B938DF88B3007934FF0FF33667804F115
:104FE000010B20212B2409930BF1010BA6F12003C7
:104FF0005A2B00F2BB80DFE813F0EA02B900B900D7
:10500000E302B900B900B900BF02B900B9006A00F3
:105010005202B90033025E02B90057025B005B0026
:105020005B005B005B005B005B005B005B00B9004A
:10503000B900B900B900B900B900B9004201B9001E
:10504000C1019401420142014201B900B900B90015
:10505000B900AF02B900B900FB01B900B900B9004D
:10506000D501B9007802B900B900B707B900B90095
:10507000B900B900B900B900B900B9004201B900DE
:10508000C1019801420142014201A50298018D012E
:10509000B9009B02B9003A02FF0189028D01B900F3
:1050A000D50172009207B900B9009607B9007200E5
:1050B0000022A6F130031BF8016B02EB820203EB26
:1050C0004202A6F13003092BF5D90B928EE70E9B15
:1050D00053F8042B002A0B920E93C0F2BE819BF86A
:1050E000006081E75946484601F05EFD002841F026
:1050F0009B83BBF80C2002F01A030A2B7FF441AF0C
:10510000BBF90E30002BFFF63CAFDBF86430DE0756
:1051100002D4950541F1808123463A4659464846D6
:1051200001F0FEFC0A900A9857B0BDE8F08FE51B2D
:1051300000F09D80DDE92B3201332A44072BC8E9BA
:105140000075CDE92B3206DC08F108080A9A2378AD
:105150002A440A9238E7514648462AAA03F0AAFD93
:10516000002841F00E840DF1B408EFE7002E7ED048
:10517000002301211A4608918DF8F4608DF88B30D8
:105180000D9309931293169310930C913DAF079BC7
:1051900013F0020302D0089902310891079911F027
:1051A00084010F9105D10B9908980D1A002D00F379
:1051B0009C832C9C72B101202B9A044402440DF173
:1051C0008B01072ACDE92B24C8E9001000F30B84DA
:1051D00008F108086BB102212B9B0C44013323AA70
:1051E000072BCDE92B34C8E9002100F30B8408F12B
:1051F00008080F9B802B00F07882099B0C9A9D1A5F
:10520000002D00F3B282079BDD0500F119822B9B74
:105210000C9A01331444072BC8E900722C942B9389
:1052200000F3D58308F10808079B5D0705D50B9BA4
:10523000089A9D1A002D00F3F283DDE90A320899DD
:105240008A42ACBF9B185B180A93002C40F0C182C5
:1052500000232B930D9B1BB148460D9902F086FE4F
:105260005F460DF1B4083B78002B7FF4A0AE2C9B79
:10527000D346002B40F0FB8700232B93B7E20E9B15
:10528000073323F007031946F1E80223CDE914237D
:10529000DDE9143424F000441D4618460E914FF009
:1052A000FF322146B04BFBF7CFFF002840F06F855F
:1052B000284621464FF0FF32AB4BFBF7A7FF0028F3
:1052C00040F06585DDE9140100220023FBF794FF1F
:1052D000002841F0E9809DF88B2003200021A34F96
:1052E000A34B08900D91472EC8BF1F46079C0C90FA
:1052F00024F0800407940991129116911091002ACC
:105300003FF445AF089B0133089340E7484602F05D
:105310008DFD11E6079B9BF8006043F02003079387
:1053200062E6079B43F010030793079B9C0640F13E
:105330008E840E9B073323F007031946F1E80223FE
:1053400014461D460E91002A73F10003C0F2F88442
:10535000099B0133079B00F0098323F0800354EA83
:105360000502089340F00383099A002A40F0048361
:105370000793002356AF09930C9353E100210124B6
:105380000E9B0A4653F8040B0894CDE90D138DF8D3
:105390008B108DF8F40009911291169110910C94D4
:1053A0003DAFF4E600250E9C8DF88B5054F8047B3D
:1053B000002F00F02386099A1346013300F0168768
:1053C0002946384602F080FF0D90002801F0A681A2
:1053D0002B460D9A0995D21B0C9222EAE272089292
:1053E0000E949DF88B200D9312931693109386E7DD
:1053F000079B43F010030793079B9A0640F14884EC
:105400000E9B073323F00703F3E802450E93079B37
:1054100023F480630893002300228DF88B20099ADF
:105420001146013100F0DF80089921F080010791D9
:1054300054EA050140F0D580002A40F03882002B64
:1054400097D1089B13F001030C9300F0658430237F
:105450000DF257178DF85731E4E00B9B5B420B932D
:10546000079B9BF8006043F004030793BCE5079B90
:105470009D0600F17084079BDC0600F17B86079B8C
:10548000580600F10687079B990540F173860E9B2D
:105490000A9953F8042B5F4611700E93E3E69BF8CC
:1054A00000608DF88B409FE5079B9BF8006043F000
:1054B0008003079398E55A4612F8016B2A2E01F0F3
:1054C0000783A6F13003092B934698BF002201F20F
:1054D0006F811BF8016B02EB820203EB4202A6F123
:1054E0003003092BF5D9099280E5079B43F010039F
:1054F0000893089B9D0640F1BB830E9B073323F066
:105500000703F3E802450E93012385E747F63002CF
:105510000E9B079953F8044B41F002010E93154B73
:1055200000251993782602230891ADF88C2073E7A3
:105530009BF80060079B6C2E00F0418543F0100340
:10554000079351E59BF80060079B682E00F04D859E
:1055500043F04003079347E5079B9BF8006043F047
:105560000803079340E500BFFFFFEF7FC4970008E3
:10557000C8970008D4970008484602F021FE436807
:1055800018461C9303F0F8FA034648461D461D933F
:1055900002F016FE826820211A92002D3FF49FAD82
:1055A0001A9B002B3FF49BAD1A9B1B78002B3FF4FA
:1055B00096AD079B9BF8006043F48063079313E567
:1055C000079B9BF8006043F0010307930CE59DF8EF
:1055D0008B30002B7FF483AD9BF800608DF88B102F
:1055E00002E5079A0892012B00F0C181022B00F01E
:1055F000668156AFE20842EA4572E90804F0070303
:105600000D461446303354EA05013A4607F8013D89
:10561000F0D108990846C00700F1D38256ABDB1BD6
:1056200007910C93002309990D93129316931093ED
:105630000C9B9DF88B208B42B8BF0B4608935EE60F
:10564000652E40F3E580DDE9140100220023FBF71D
:10565000C9FD002800F01B8201212B9BCB4A0B4483
:105660000C44072BCDE92B34C8E9002100F36785F2
:1056700008F10808249B139A934280F218832B9B0D
:10568000179A013318991444072BC8E900122C9477
:105690002B9300F39D8408F10808139B5D1E002DD9
:1056A0007FF7C2AD102D40F35785B94F10262B9BC5
:1056B0000F9705E008F10808103D102D40F34F85C5
:1056C00001331034072BCDE92B34C8E90076F1DD26
:1056D000514648462AAA03F0EDFA002840F081809E
:1056E000DDE92B340DF1B408E6E70B9B089A9D1A0F
:1056F000002D7FF782AD102D41F3A780A4482146ED
:10570000102304462B9A0F9004E0103D102D08F151
:10571000080817DD01321031072ACDE92B21C8E92D
:105720000043F2DD514648462AAA03F0C3FA002896
:1057300057D1DDE92B21103D102D4FF010030DF155
:10574000B408E7DC0C4601320F9B2C44072ACDE954
:105750002B24C8E9003500F30A84099B0C9A08F150
:1057600008089D1A002D7FF74EAD102D40F37A8565
:1057700087482146102304462B9A0F9004E0103DE1
:10578000102D08F1080816DD01321031072ACDE985
:105790002B21C8E90043F2DD514648462AAA03F00E
:1057A00089FAF0B9DDE92B21103D102D4FF01003DF
:1057B0000DF1B408E8DC0C4601320F9B2C44072A9B
:1057C000CDE92B24C8E9003500F3348208F108083C
:1057D00019E5514648462AAA03F06CFA00283FF41E
:1057E00037ADD3460D9911B1484602F0BFFBDBF847
:1057F000643013F0010FBBF80C3002D1980540F172
:105800007784590601F11C800A9857B0BDE8F08FE3
:10581000139B012B40F3B78101232B9D1C441D4496
:10582000072D2C94C8F800702B95C8F8043000F3AD
:10583000FF8308F10808179B0135189A1C44072DAF
:10584000CDE92B54C8E9002300F3008408F10808CF
:105850000023DDE914010022FBF7C4FC139B0028A0
:1058600040F0BD81013B013501371C44072DCDE9D6
:105870002B54C8F80070C8F8043000F3938308F183
:1058800008081B9A0135144426AB072DCDE92B548B
:10589000C8E900327FF7C6AC514648462AAA03F051
:1058A00009FA00289DD12C9C0DF1B408BCE4012B11
:1058B00000F0D087022B079B08937FF49AAE1998CB
:1058C00056AF230943EA0573290904F00F020D4678
:1058D0001C46835C07F8013D54EA0503F1D1089B9F
:1058E000079356ABDB1B0C939CE6102D40F33887D7
:1058F000DDE92B211E930B463946102437465646C8
:10590000CA46894604E0103D102D08F1080817DD4D
:10591000013220491033072ACDE92B23C8E90014AE
:10592000F1DD314650462AAA03F0C4F9002840F0C0
:10593000F883DDE92B23103D102D0DF1B408E7DCD1
:105940004846D146B2463E46074619461E9B6C184D
:1059500001321049072ACDE92B24C8E9001500F3CC
:10596000CF839DF88B2008F1080823E40893002DCD
:1059700008BF0A2C80F07883089B303407930123FA
:105980008DF857410C930DF257174BE60498000819
:1059900018980008089800082B9B1799013318984D
:1059A0000C44072BC8E900012C942B9300F32585A8
:1059B00008F10808002AC0F2FF86139A0133144444
:1059C000072BCDE92B34C8E900727FF72BAC514689
:1059D00048462AAA03F06EF900287FF402AF2C9CF7
:1059E0000DF1B40820E4514648462AAA1E9303F05C
:1059F00061F900287FF4F5AE2C9C1E9B0DF1B408D4
:105A0000FFF7E8BB514648462AAA03F053F900289D
:105A10007FF4E7AE2C9C0DF1B408FFF7EABB102D24
:105A200040F3FF8610262B9B04E0103D102D08F15B
:105A3000080817DD0133B94A1034072BCDE92B34A0
:105A4000C8E90026F1DD514648462AAA03F032F99A
:105A500000287FF4C6AEDDE92B34103D102D0DF18A
:105A6000B408E7DC0133AD4A2C44072BCDE92B34D5
:105A7000C8E900257FF7E1AB514648462AAA03F062
:105A800019F900287FF4ADAE2C9CFFF7D6BB249A01
:105A9000002A40F31A81109B139A9342A8BF134621
:105AA000002B1D460BDD2B9B2C440133072BC8E933
:105AB00000752C942B9300F3DB8508F10808109BEC
:105AC000002DA8BF5B1B002B1D4600F36783109BB6
:105AD0003B441E46079B590500F10185249B139A00
